:100000000C94FC050C946B150C9444150C941D1564
:100010000C94F6140C9424060C9424060C94CF141F
:100020000C9424060C9424060C9492150C9404163B
:100030000C9424060C9424060C9424060C94240698
:100040000C9424060C94750D0C9424060C94240630
:100050000C9424060C9424060C9424060C94A218E8
:100060000C9424060C9424060C9424060C94240668
:100070000C9424060C9424060C9424060C94240658
:100080000C944F0D0C9424060C9424060C94240616
:100090000C94C20B0C9424060C9424060C94240695
:1000A0000C9424060C9424060C9424068A118D11B9
:1000B0007C1180118411AE11AE11AE119111951108
:1000C00099119F11A311AE11A911084AD73B3BCE3C
:1000D000016E84BCBFFDC12F3D6C74319ABD568347
:1000E0003DDA3D00C77F11BED9E4BB4C3E916BAAFF
:1000F000AABE000000803F07634236B79BD8A71A0C
:1001000039685618AEBAAB558C1D3CB7CC5763BD99
:100110006DEDFD753EF6177231BF000000803F089F
:10012000000000BE922449123EABAAAA2ABECDCC42
:10013000CC4C3E00000080BEABAAAAAA3E00000044
:1001400000BF000000803F0000000000084178D39D
:10015000BB4387D1133D190E3CC3BD4282AD2B3E3C
:1001600068EC8276BED98FE1A93E4C80EFFFBE01DC
:10017000C4FF7F3F00000000000001B202FFFF014A
:1001800090040923A135016A0206000160080000FD
:100190000000000000000060044000000001620256
:1001A000000000600400400000037B034CCD6C03A2
:1001B000AB0336567600680402CB47A2021804004F
:1001C000058BC1010C0400000000037F060CC92C44
:1001D000979797038903264666006C022000024029
:1001E0000400000000024404000000000248040073
:1001F000000000024C040000000002500400000057
:100200000002540400000000025804000000000234
:100210005C040000000002BC040000000001EC04CB
:1002200000004000037F060CC92C97979704020337
:100230000D355D040904872D353D00A30100000044
:100240000001078601FE074105F120283038077EAE
:1002500001300746019A074704F1283038076C043B
:10026000F12830380216020001FB00003E000B00AE
:1002700036000100020003000000650054FFEF009B
:1002800000FA80000B128200010002000000000052
:1002900000000000000000000000280000FFFF45F3
:1002A00081FFFFFA7200000000000003E800000078
:1002B0000100017FFFFFFE8001001B000000000025
:1002C000000000000000000000003E03304000007D
:1002D0000002CAE3093E8000002000000000000088
:1002E00000400000006000000041FF000000000B23
:1002F0002A0000165500002182FD872650FD80004F
:1003000000001F0000000580000000000000010048
:100310000000020000000300004000000000000494
:100320006F0002653200005EC04000000000000067
:10033000000000000000000000FB8C6F5DFD5D0808
:10034000D9007C733B006C12CC3200139D3200D07C
:10035000D632000800400001F4FFE6807902000078
:10036000000000D0D600002710FB00000040000075
:10037000000000000000000000000000010000007C
:100380000000000100010000000000FA36FFBC3050
:100390008E0005FBF0FFD95BC8FFD09ABE000010AD
:1003A000A9FFF41EB200CEBBF70000000100000060
:1003B00004000200020200000CFFC2800000018065
:1003C0000000CF800040000000000000010000009D
:1003D0000000000600000000140000000000000003
:1003E000000000000000000000000000000000000D
:1003F00000000000000000000000000000000000FD
:1004000000000000000000000000000000033F6842
:10041000B6793528BCC67ED16C8000000040000053
:10042000000000B26A0000000000000000000000B0
:100430000000003FF000000030000000000000005D
:1004400000000000000000000000000000000000AC
:100450000000000000000000000000254D002F708B
:100460006D000005AE000C02D00000000000650029
:1004700054FFEF00000000000000000100004400F5
:100480000000000C000000010000000000006500FA
:100490000000540000FFEF0000000000000000001A
:1004A000000000000000000000400000000000000C
:1004B00000000000000000000040000000000000FC
:1004C000000000000000000000000000010000002B
:1004D000020000000000000000000000000000001A
:1004E000000000000000000000000000000000000C
:1004F000000000000000000000001B0000000000E1
:1005000000000000000000000000000000000000EB
:1005100000000000000000000000000000000000DB
:10052000000000000040000000001B000000000070
:1005300000000000000000000000000000000000BB
:1005400000000000000000000000000000000000AB
:10055000000000000000000000000000000000009B
:10056000000000000000000000D8DCBAA2F1DEB2FA
:10057000B8B4A88191F74A907F916AF3F9DBA8F9A2
:10058000B0BAA080F2CE81F3C2F1C1F2C3F3CCA223
:10059000B280F1C6D880BAA7DFDFDFF2A7C3CBC530
:1005A000B6F087A2942448703C95406834589B78F4
:1005B000A2F183922D557DD8B1B4B8A1D09180F22B
:1005C00070F370F27C80A8F101B09887D943D88687
:1005D000C988BAA1F20EB89780F1A9DFDFDFAADFE0
:1005E000DFDFF2AAC5CDC7A90CC92C97979797F161
:1005F000A989264666B0B4BA80ACDEF2CAF1B28CE4
:1006000002A9B69800890E161EB8A9B4992C547C7C
:10061000B08AA896365676F1B9AFB4B083C0B8A800
:100620009711B18F98B9AFF0240844106418F1A362
:1006300029557DAF83B593AFF0002850F1A3869F75
:1006400061A6DADEDFD9FAA38696DB31A6D9F8DF18
:10065000BAA68FC2C5C7B28CC1B8A2DFDFDFA3DFE5
:10066000DFDFD8D8F1B8A8B286B4980D355DB8AA46
:1006700098B0872D353DB2B6BAAF8C96198F9FA72B
:100680000E161EB49AB8AA872C547CB9A3DEDFDFFD
:10069000A3B180F2C4CDC9F1B8A9B499830D355D79
:1006A00089B9A32D557DB593A30E161EA92C547C94
:1006B000B8B4B0F19783A81184A50998A383F0DAA0
:1006C000240844106418D8F1A529557DA585950204
:1006D0001A2E3A565A4048F9F3A3D9F8F0988324D1
:1006E00008441064189782A8F111F098A2240844D5
:1006F000106418DAF3DED883A59401D9A302F1A21D
:10070000C3C5C7D8F18492A24DDA2AD84869D92A3C
:10071000D86855DA32D85071D932D8705DDA3AD803
:100720005879D93AD87893A34DDA2AD84869D92A82
:10073000D86855DA32D85071D932D8705DDA3AD8E3
:100740005879D93AD878A88A9AF02850789EF388B0
:1007500018F19F1D98A8D908D8C89F129EF315A814
:10076000DA1210D8F1AFC8978734B5B994A421F341
:10077000D922D8F22DF3D92AD8F235F3D932D8813B
:10078000A4606061D961D86C6869D969D8747071E6
:10079000D971D8B1A384193D5DA3831A3E5E93102D
:1007A00030811011B8B0AF8F94F2DA3ED8B49AA865
:1007B0008729DAF8D8879A35DAF8D8879A3DDAF8AF
:1007C000D8B1B9A49885022E56A581000C14A39720
:1007D000B08AF12DD928D84DD948D86DD968D8B16B
:1007E000840DDA0ED8A32983DA2C0ED8A38449838A
:1007F000DA2C4C0ED8B8B0A88A9AF520AADADFD83D
:10080000A840AAD0DADED8A860AADAD0DFD8F1975B
:1008100086A8319B069907AB9728889BF00C20147B
:1008200040B8B0B4A88C9CF0042851791D3014381D
:10083000B282ABD0982C505078789BF11AB0F08AE5
:100840009CA82951798B2951798A2470598B205879
:10085000718A4469388B3940688A6448318B3049E1
:1008600060A588200971584468113964493019F12C
:10087000AC002C547CF08CA804285078F188972682
:10088000A85998AC8C02264666F0899CA829517913
:10089000247059446938644831A98809205970ABDB
:1008A00011384069A8193148608CA83C415C207C13
:1008B00000F187981986A86E767EA999882D557DB6
:1008C0009EB9A38A228A6E8A568A5E9FB1830626C3
:1008D00046660E2E4E6E9DB8AD002C547CF2B18C47
:1008E000B499B9A32D557D8191AC38AD3AB58391BA
:1008F000AC2DD928D84DD948D86DD968D88C9DAEA3
:1009000029D904AED851D904AED879D904D881F305
:100910009DAD008DAE1981ADD901D8F2AEDA26D8E1
:100920008E912983A7D9ADADADADF32AD8D8F1B05A
:10093000AC89913E5E76F3AC2E2EF1B18C5A9CAC14
:100940002C2828289CAC3018A8988128343C97245F
:10095000A728343C9C24F2B089AC912C4C6C8A9B27
:100960002DD9D8D851D9D8D879D9D8D8F19E88A33B
:1009700031DAD8D8912DD928D84DD948D86DD96831
:10098000D8B18393353D8025DAD8D88569DAD8D8AF
:10099000B49381A328343CF3AB8BF8A391B609B48C
:1009A000D9ABDEFAB0879CB9A3DDF1A3A3A3A395CD
:1009B000F1A3A3A39DF1A3A3A3A3F2A3B49080F2F8
:1009C000A3A3A3A3A3A3A3A3A3A3B2A3A3A3A3A3E8
:1009D000A3B087B599F1A3A3A398F1A3A3A3A39769
:1009E000A3A3A3A3F39BA3A3DCB9A7F1262626D830
:1009F000D8FF2900444D5020496E697469616C69C3
:100A00007A6174696F6E206661696C656420286321
:100A10006F64652000444D50207265616479212027
:100A200057616974696E6720666F722066697273B8
:100A30007420696E746572727570742E2E2E004566
:100A40006E61626C696E6720696E74657272757032
:100A50007420646574656374696F6E2E2E2E004574
:100A60006E61626C696E6720444D502E2E2E004DD3
:100A700050553630353020636F6E6E656374696F24
:100A80006E206661696C6564004D505536303530B6
:100A900020636F6E6E656374696F6E207375636338
:100AA00065737366756C00496E697469616C697A07
:100AB000696E6720444D502E2E2E004D50552069F2
:100AC0006E697469616C697A65642E2E2E00496EB8
:100AD000697469616C697A696E6720493243206480
:100AE0006576696365732E2E2E004649464F206F4A
:100AF000766572666C6F77210007060504010008B1
:100B00000A0B0C0D0900000000240027002A002D0C
:100B100000300000000000250028002B002E0031CE
:100B20000004040404040304050202020204030294
:100B30000202020606060606060404020202040475
:100B400004080201104080401020408040800802CC
:100B5000040180402010020110801020404020003D
:100B600000000200090F0000030401000C00000057
:100B70000000000000000000000000000000080B62
:100B80000002020201000904000001020200000547
:100B90002400100105240101010424020605240695
:100BA00000010705810310004009040100020A004A
:100BB0000000070502024000000705830240000014
:100BC0000403090412010002EF02014041233680B0
:100BD00000010102030141726475696E6F204C4C83
:100BE000430041726475696E6F204C656F6E61726F
:100BF000646F00003B24332411241FBECFEFDAE0E2
:100C0000DEBFCDBF24E0AEE2B2E001C01D92A63649
:100C1000B207E1F712E0A0E0B1E0EAEFF8E502C0C8
:100C200005900D92AE32B107D9F715E0CBEFD5E0C4
:100C300004C02197FE010E94512ACA3FD107C9F77B
:100C40000E94EC180C94702C0C94000080913102DE
:100C500090E020913202821B910908950895E0915D
:100C6000320280913102E81730F4F0E0E957FD4F8D
:100C7000808190E008958FEF9FEF08959091320268
:100C800080913102981750F4E92FF0E0E957FD4FB9
:100C9000208130E09F5F9093320202C02FEF3FEF40
:100CA000C9010895089580E090E0089585ED80934E
:100CB000BC008091BC0084FDFCCF1092CF0208954F
:100CC00040916202262F30E0240F311D2132310580
:100CD000DCF42091CF022430C9F4FC0180E090E0E4
:100CE000861758F4309162022191DC01A05CBD4F5F
:100CF000A30FB11D2C930196F3CF80916202680F70
:100D00006093620280E0089581E0089582E0089592
:100D1000CF92DF92EF92FF920F931F93CF93DF93C7
:100D20007C01262F972F8A018091D002882391F091
:100D3000C62FD72F6E01C40ED51ECC15DD0571F060
:100D40006991D701ED91FC910190F081E02DC701EF
:100D50000995F3CF642F822F0E946006C801DF91AE
:100D6000CF911F910F91FF90EF90DF90CF9008955A
:100D7000CF93DF931F92CDB7DEB769832091D00266
:100D80002223D1F02091F302203240F021E030E024
:100D9000FC013383228380E090E015C08091D10272
:100DA000E82FF0E0EE52FD4F998190838F5F8093A2
:100DB000D1028093F30205C061E0CE0101960E944A
:100DC000600681E090E00F90DF91CF910895FC01E3
:100DD0009C01225F3F4F81E0428D538D42175307A4
:100DE00009F080E008956130710539F4DC01ED917E
:100DF000FC91BC01625F7F4F06C0672B41F4DC01B0
:100E0000ED91FD91BD010284F385E02D09940895D3
:100E1000CF93DF93EC018A8D9B8DDC01ED91FC91EA
:100E20000084F185E02D0995E881F9810084F18540
:100E3000E02DBC01CE01DF91CF9109940895CF92AE
:100E4000DF92EF92FF920F931F93CF93DF938C016A
:100E50006A017B01FC012281338144815581C701F4
:100E6000B6010E947628181684F4D1E0C0E0F8019B
:100E70002681378140855185C701B6010E946D25C5
:100E800087FFD0E08D2F9C2F02C080E090E0DF91A3
:100E9000CF911F910F91FF90EF90DF90CF90089529
:100EA00081E0809333020895CF93DF93FC01268184
:100EB00037812115310529F161E02130310509F033
:100EC00060E0EC01888568278A810E945F1160E0FC
:100ED0008C810E945F1100000000000000000000F3
:100EE0000000000000000000000000000000000002
:100EF00000000000000061E08C81DF91CF910C9434
:100F00005F11DF91CF9108950C94EC2A0C94EC2A98
:100F10000C94EC2A0C94EC2A0C94EC2A0C94EC2AF9
:100F200097FF03C09195819591098F3F910519F025
:100F300014F08FEF90E06FEF70E0681B790B072ED5
:100F4000000C880B990B0E94742520E030E04CE4E3
:100F500052E40E94A7279B01AC0160E070E080E0B2
:100F600090E40E94832820E030E048EC52E40E94A4
:100F7000D32520E030E040E85DE30E94D3250E94C5
:100F800019280895CB01181619062CF0009731F492
:100F900020E030E005C021E030E002C022E030E097
:100FA00030938603209385030E94900770939900E5
:100FB0006093980020919400309195008091980062
:100FC000909199008217930720F410929500109247
:100FD00094000895CB01181619062CF0009731F4EF
:100FE00020E030E005C021E030E002C022E030E047
:100FF00030938F0320938E030E9490077093890093
:101000006093880020918400309185008091880051
:10101000909189008217930720F410928500109216
:10102000840008950F931F93CF93DF938B01FC01EE
:10103000E05CFF4FAB01770F660B770B408351836A
:1010400062837383EC016496B801CE010E94EA07C3
:10105000B801CE01DF91CF911F910F910C94C2077F
:10106000CF93DF93EC0161EE71E00E948F14CE010B
:10107000DF91CF910895CF93DF93EC0169EE71E09A
:101080000E948F14CE01DF91CF910895EF92FF92CD
:101090000F931F93CF93DF93CDB7DEB72C970FB687
:1010A000F894DEBF0FBECDBFDC015A962D913C9166
:1010B0005B976217730709F466C0DB018C01FC01C2
:1010C000738F628FED91FC910680F781E02DCB014B
:1010D0000995D8015A966D917C915B97DB01ED9152
:1010E000FC910480F581E02DCE01079609956FEE05
:1010F00071E0CE0101960E948F148B859C85EF8054
:10110000F8840D811E81E114F104B9F0009709F112
:10111000080F191FB801CE0101960E946814882398
:1011200061F029813A818D819E81B701820F931FE1
:101130000E94692C1E830D830CC089819A810097BF
:1011400011F00E94EC2A1A8219821E821D821C82D2
:101150001B82E091F402F091F5024D815E8169817C
:101160007A810280F381E02D84EF92E009958BEF84
:1011700091E00E94EE0D89819A810E94EC2A8F8174
:1011800098850E94EC2A2C960FB6F894DEBF0FBE0D
:10119000CDBFDF91CF911F910F91FF90EF900895F8
:1011A0004F925F926F927F928F929F92AF92BF9277
:1011B000CF92DF92EF92FF920F931F93CF93DF9323
:1011C000CDB7DEB72C970FB6F894DEBF0FBECDBFFC
:1011D0005C016A017B01DC0112962D913D914D91DC
:1011E0005C911597C701B6010E947628F50102852A
:1011F000138518160CF005C126813781408551856D
:10120000C701B6010E946D2587FFFBC00E947D18B3
:1012100069837A838B839C83F80184AD95ADA6ADF9
:10122000B7AD29813A814B815C81281B390B4A0B70
:101230005B0BCA01B9010E9472254B015C01D80108
:1012400050966D917D918D919C9153970E9472253E
:101250009B01AC01C501B4010E94762887FDD9C06D
:1012600020E034E244E759E4C501B4010E94A72715
:101270002B013C01F80164A175A182A193A1680F23
:10128000791F072E000C880B990B0E947425A7016B
:1012900096010E94C8266B017C01A30192010E9465
:1012A000D325D801D4962D913D914D915C91D7973E
:1012B0000E94C9264B015C01F80164AB75AB86AB9B
:1012C00097AB20A531A542A553A5C701B6010E9441
:1012D000D3256D837E838F839887D801D8962D91EF
:1012E0003D914D915C91DB97C701B6010E94C826E4
:1012F000F80124A535A546A557A50E94D325A3012D
:1013000092010E94A7272B013C01D801D0962D9174
:101310003D914D915C91D397C501B4010E94D325B5
:101320004B015C01F801C0AED1AEE2AEF3AEA30159
:1013300092016D817E818F8198850E94C926A501C9
:1013400094010E94C9264B015C01D8011C96CD90E6
:10135000DD90ED90FC901F972601370177FA70948D
:1013600077F87094A30192010E946D2587FD0BC050
:10137000A7019601B401C5010E94762818162CF029
:101380006401750102C073016201F801E05CFF4F66
:1013900060817181828193810E9474259B01AC01DF
:1013A000C701B6010E94C9266B017C0120E030E034
:1013B0004FE753EC0E946D2587FD0FC020E030E021
:1013C0004FE753E4C701B6010E947628181644F08F
:1013D000C701B6010E94192805C061E07FEF02C075
:1013E0006FEF70E0C8010E94120829813A814B8199
:1013F0005C81D801DC962D933D934D935C93DF97F0
:1014000008C060E070E0C8010E94120880E090E02F
:1014100002C081E090E02C960FB6F894DEBF0FBEBC
:10142000CDBFDF91CF911F910F91FF90EF90DF9093
:10143000CF90BF90AF909F908F907F906F905F9074
:101440004F9008952F923F924F925F926F927F92AA
:101450008F929F92AF92BF92CF92DF92EF92FF92C4
:101460000F931F93CF93DF93CDB7DEB727970FB6B8
:10147000F894DEBF0FBECDBF8F83962E742F590117
:101480008FB7F894C0905904D0905A04E0905B0450
:10149000F0905C048FBF5F81550F5B83812C312CF2
:1014A0002224239450E05D834C832801612C712C0D
:1014B000871608F0A4C02092D0025F815093F202F8
:1014C0001092D1021092F302692D84E493E07E839E
:1014D0000E94B8060E94140E2092D0025F815093A1
:1014E000F2021092D1021092F3027E818091CF021B
:1014F0008111FCCF2C813D81281931092132310520
:1015000014F020E230E0213208F020E22092CF02F5
:101510002092CE028FEF8093CD021092CC02820FE8
:101520008093CB022092AA028091AA024B81842B45
:101530008093AA028091A902813071F41092A902CD
:101540008091AA028093BB008091BC0083FDF8CFFC
:1015500055EC5093BC0003C085EE8093BC00809195
:10156000CF028130E1F38091CC02821710F42091F8
:10157000CC02ABEAB2E0E7E8F2E08E2F47E852E0B7
:10158000841B821718F48D918193F7CF1092320249
:10159000209331029091310280913202981749F1E3
:1015A0000115110591F4A501430D511D37FC5A9504
:1015B0005A83498384E493E07E830E943E06E98156
:1015C000FA81808333947E81E5CF2FB7F8948091A0
:1015D000590490915A04A0915B04B0915C042FBF10
:1015E0008C199D09AE09BF0984159505A605B70597
:1015F000D0F2872F713208F080E2880E59CF0115A2
:10160000110509F12FB7F8948091590490915A046B
:10161000A0915B04B0915C042FBF8C199D09AE09A9
:10162000BF0920E030E080179107A207B30758F008
:10163000272F30E0832D032C000C990B8217930782
:1016400014F433243A94832D27960FB6F894DEBF12
:101650000FBECDBFDF91CF911F910F91FF90EF9003
:10166000DF90CF90BF90AF909F908F907F906F90C2
:101670005F904F903F902F900895BF92CF92DF924E
:10168000EF92FF920F931F93CF93DF931F92CDB7EB
:10169000DEB7F82EE62EC42EB22ED02E08EE13E0C2
:1016A0009E012F5F3F4F41E00E94220A882321F1D3
:1016B000EC2DF0E0EB19F109319621E030E002C0A9
:1016C000220F331FBA94E2F7215031090E2E01C0C8
:1016D000220F0A94EAF78D2D01C0880FEA95EAF7E8
:1016E000422F4095998149232823422B49836E2D0F
:1016F0008F2D0E946D1801C080E00F90DF91CF9177
:101700001F910F91FF90EF90DF90CF90BF900895C1
:10171000CF92DF92EF92FF920F931F93CF93DF93BD
:101720001F92CDB7DEB7F82EE62ED42EC22E08EECD
:1017300013E09E012F5F3F4F41E00E94220A9981F2
:10174000CC2041F041E050E001C0440FDA94EAF7C8
:10175000492B09C021E030E0A90101C0440FDA940F
:10176000EAF74095492349836E2D8F2D0E946D180D
:101770000F90DF91CF911F910F91FF90EF90DF902D
:10178000CF9008951F920F920FB60F9211242F93AE
:101790003F934F935F936F937F938F939F93AF93F9
:1017A000BF93EF93FF938091B900887F803609F44F
:1017B0009CC068F5883209F45BC090F4803109F46C
:1017C00054C038F4882309F4F6C0883009F44DC0B9
:1017D000F6C0883109F44CC0803209F45DC0EFC016
:1017E000803409F468C048F4803309F455C0883364
:1017F00009F0E5C08093CD02D8C0803509F44FC010
:10180000883509F45DC0883409F0D9C0D6C088395C
:1018100009F4C7C0A8F4883709F467C038F48836DB
:1018200009F463C0803709F460C0C9C0883809F47E
:10183000B8C0803909F45FC0803809F0C0C05BC00F
:10184000803B09F486C038F4803A09F466C0883ACF
:1018500009F47FC0B4C0803C09F4A7C0883C09F4F7
:10186000A4C0883B09F48AC0AAC08091AA0210C013
:101870009091CC028091CB02981770F5E091CC0248
:1018800081E08E0F8093CC02F0E0E555FD4F808122
:101890008093BB0085EC86C08093CD028EC0E09122
:1018A000CC0281E08E0F8093CC028091BB00F0E0EF
:1018B000E555FD4F80839091CC028091CB026EC0A4
:1018C000E091CC0281E08E0F8093CC028091BB002E
:1018D000F0E0E555FD4F80838091CE0281116DC00F
:1018E00081E08093A90284EA61C083E08093CF0203
:1018F00010928602CFCF80918602803208F051C0CC
:10190000E091860281E08E0F809386028091BB0079
:10191000F0E0EA59FD4F8083BDCF85EC8093BC0099
:101920001092CF0280918602803230F4E0918602DC
:10193000F0E0EA59FD4F10826091860270E0E0917C
:101940006402F091650286E692E0099510928602A3
:1019500036C084E08093CF0210926302109262023C
:10196000E0916002F091610209958091620281111B
:1019700005C081E08093620210924002E091630210
:1019800081E08E0F80936302F0E0E05CFD4F808188
:101990008093BB009091630280916202981708F4D3
:1019A00079CF85E88093BC000AC085EC8093BC00A9
:1019B0001092CF0204C01092CD020E945606FF91F1
:1019C000EF91BF91AF919F918F917F916F915F91B7
:1019D0004F913F912F910F900FBE0F901F90189530
:1019E0000F931F93CF938C01C62F262F30E02E5FCD
:1019F0003D4F232B19F480E092E002C08EEF91E07E
:101A00000E94060E61E06C2788E00E945F11C11100
:101A10000DC060E070E0C8010E94EA0760E070E07D
:101A2000C801CF911F910F910C94C207CF911F91C4
:101A30000F910895CF93DF93EC0160E070E08A8509
:101A40009B850E9412088A859B8560E04496DF9101
:101A5000CF910C94F00C2AE831E0FC013183208313
:101A600060E00C94F00CCF93DF93EC010E942B0DFF
:101A7000CE01DF91CF910C94EC2A2AE931E0FC01F0
:101A80003183208344960C942B0DCF93DF93EC018C
:101A90000E943D0DCE01DF91CF910C94EC2A1F9254
:101AA0000F920FB60F9211242F933F934F935F9392
:101AB0006F937F938F939F93AF93BF93EF93FF9316
:101AC0008FE793E00E945407FF91EF91BF91AF9190
:101AD0009F918F917F916F915F914F913F912F9146
:101AE0000F900FBE0F901F9018951F920F920FB678
:101AF0000F9211242F933F934F935F936F937F9394
:101B00008F939F93AF93BF93EF93FF9388E893E0F6
:101B10000E945407FF91EF91BF91AF919F918F91D8
:101B20007F916F915F914F913F912F910F900FBED9
:101B30000F901F9018950895089508950895089599
:101B4000CF93DF93EC0160E070E00E94120818AEC2
:101B500019AE1AAE1BAE1CAA1DAA1EAA1FAADF919F
:101B6000CF9108950F931F93CF93DF93EC0104E07F
:101B700010E064E670E0CE010E94120862E370E0BB
:101B800080E090E00E9429126CE97FEFCE010E9474
:101B900012086EE170E080E090E00E94291201508E
:101BA000110939F760E070E0CE01DF91CF911F910C
:101BB0000F910C941208CF93DF93EC018A859B85DB
:101BC00061E044960E94F00C8A859B850E94B20DCC
:101BD0008A859B85DF91CF910C94A00DBC01009765
:101BE00091F0FC0101900020E9F73197AF01481B0B
:101BF000590BE091F402F091F5020280F381E02D9F
:101C000084EF92E0099480E090E00895CF93DF9311
:101C10000E94EE0DEC018BEF91E00E94EE0D8C0F17
:101C20009D1FDF91CF9108952091F3029091F202D0
:101C3000213208F04AC08091CF028111FCCF32E0FE
:101C40003093CF0231E03093CE023FEF3093CD029C
:101C50001092CC022093CB02A2EDB2E04BEA52E00C
:101C6000FA013E2F341B321718F43D913193F9CF0E
:101C70001092AA022091AA02990F922B9093AA0285
:101C80009091A902913061F41092A9029091AA0258
:101C90009093BB009091BC0093FDF8CF95EC01C0F0
:101CA00095EE9093BC009091CF029230E1F3909129
:101CB000CD029F3F79F08091CD02803241F080913A
:101CC000CD02803331F084E005C081E003C082E0C2
:101CD00001C083E01092D1021092F3021092D00260
:101CE00008950F931F93CF93DF93CCE6D3E008EED4
:101CF00013E02DE633E041E06AE388810E94220A86
:101D00008981DF91CF911F910F91089521E042E0E9
:101D10006AE680916C030C94880B482F6EE68091E4
:101D20006C030C946D182F923F924F925F926F92BA
:101D30007F928F929F92AF92BF92CF92DF92EF925B
:101D4000FF920F931F93CF93DF933C015B01342EDF
:101D5000D22F202E4F716DE680916C030E946D187A
:101D60008D2F0E948D0E80E190E00E94572A6C0119
:101D7000002339F080E190E00E94572AC82F492EB5
:101D800002C0C0E0412CE12CF12CEA14FB0408F065
:101D90006EC0C7014096A816B90618F45A2C5E18F2
:101DA00002C080E1582E852D90E020E031E02D1B0F
:101DB00031092817390714F45D2E5194F301EE0D03
:101DC000FF1D222059F09C2FAC2FB42D8A2F891B88
:101DD000851530F484918D933196F8CFCE2F4F2E08
:101DE0002C2F342D452D6FE680916C030E94341802
:101DF000852C912CC114D10429F1432D4F716DE62E
:101E000080916C030E946D188D2F0E948D0E08EE3C
:101E100013E09601452D6FE680916C030E94220A23
:101E2000A401B6018C2F942D0E94532C892B51F0C4
:101E3000C6010E94EC2A222021F18C2F942D0E94B1
:101E4000EC2A1FC0E80CF91CD50DEA14FB0408F0BD
:101E50009CCFD11101C03394432D4F716DE6809119
:101E60006C030E946D188D2F0E948D0E8ECFC601BF
:101E70000E94EC2A222039F08C2F942D0E94EC2A0B
:101E800002C080E001C081E0DF91CF911F910F91EE
:101E9000FF90EF90DF90CF90BF90AF909F908F908A
:101EA0007F906F905F904F903F902F9008950F9389
:101EB0001F93662351F0462F9C0108EE13E064E760
:101EC00080916C030E94220A02C0FC0110821F91C3
:101ED0000F9108950F931F93CF93DF93CCE6D3E038
:101EE00008EE13E02DE633E042E062E788810E94CD
:101EF000220A898190E0982F88272A81822BDF91FE
:101F0000CF911F910F910895EF92FF920F931F931E
:101F1000CF93DF931F92CDB7DEB77A0189019E017F
:101F20002F5F3F4F41E00E94220A882339F0298128
:101F30002E7730E035952795F70120830F90DF91BC
:101F4000CF911F910F91FF90EF9008950F931F93E2
:101F5000CF93DF938C01C0E0D0E0F801EC0FFD1FC0
:101F60006491662371F0E091F402F091F502019022
:101F7000F081E02D84EF92E00995892B11F02196F4
:101F8000ECCFCE01DF91CF911F910F910895CF93A8
:101F9000DF930E94A60FEC018BEF91E00E94EE0D03
:101FA0008C0F9D1FDF91CF9108958F929F92AF92DA
:101FB000BF920F931F93CF93DF93CDB7DEB7A19757
:101FC0000FB6F894DEBF0FBECDBF19A2423008F4A1
:101FD0004AE08E010F5D1F4F842E912CA12CB12C55
:101FE000A50194010E942F2AE62FB901CA010150D0
:101FF0001109EA3014F4E05D01C0E95CD801EC930A
:10200000232B242B252B61F7C8010E94EE0DA196EE
:102010000FB6F894DEBF0FBECDBFDF91CF911F91F9
:102020000F91BF90AF909F908F900895CF93DF93C3
:10203000EA0191E09093D0028093F2021092D102D3
:102040001092F30284E493E00E94B806698184E46C
:1020500093E00E94B806688184E493E00E94B80689
:102060000E94140E91E0811190E0892FDF91CF91B1
:1020700008954F925F926F927F928F929F92AF924C
:10208000BF92CF92DF92EF92FF926B017C019B0196
:10209000AC010E941D29882319F082E292E01AC047
:1020A00046015701E894B7F82FEF3FEF4FE75FE79E
:1020B000C501B4010E941D29811110C02FEF3FEF0F
:1020C0004FE75FE7C501B4010E946D25181634F48F
:1020D00086E292E00E94EE0D7C018FC02FEF3FEF71
:1020E0004FE75FE4C701B6010E94762818161CF47A
:1020F0008AE292E0EFCF2FEF3FEF4FE75FECC701AF
:10210000B6010E946D2587FDF3CF20E030E0A901E4
:10211000C701B6010E946D2587FF11C0E091F4024E
:10212000F091F5020190F081E02D6DE284EF92E0F4
:1021300009955C01F7FAF094F7F8F09402C0A12C2D
:10214000B12C2AE037ED43EA5BE3C701B6010E94F8
:10215000C9262B013C010E9420286B017C010E94B2
:1021600072259B01AC01C301B2010E94C8262B015C
:102170003C014AE0C701B6010E94D50F7C01EA0C80
:10218000FB1CE091F402F091F5020190F081E02D4A
:102190006EE284EF92E00995E80EF91E20E030E04F
:1021A00040E251E4C301B2010E94D3252B013C015E
:1021B0000E9420284B01A12CB12C4AE0C501B4019A
:1021C0000E94D50FE80EF91EC501B4010E947225C8
:1021D0009B01AC01C301B2010E94C82620E030E09F
:1021E00040E251E40E94D3250E94202880E090E044
:1021F0004AE00E94D50FE80EF91E8BEF91E00E9495
:10220000EE0D8E0D9F1DFF90EF90DF90CF90BF9051
:10221000AF909F908F907F906F905F904F900895B8
:10222000FC018091A802811103C08FEF9FEF0895F8
:102230009FB7F89482E08093E9002091F20030E0AB
:102240001216130614F421E030E02115310559F07F
:10225000289884E68093A7028091F1008083809182
:10226000F200882319F09FBFC90108958BE680937F
:10227000E800F9CF2FB7F89483E08093E9009091BC
:10228000E800892F807295FF04C09091F20080E4ED
:10229000891B2FBF089580914C0481110DC082E0ED
:1022A0008093480484E08093490410924B04109278
:1022B0004A0481E080934C0488E494E00895362F2A
:1022C00090E0FC01E15AF44F4491FC01E05CF44FD2
:1022D0002491FC01EF5DF44F8491882309F451C0EF
:1022E0004423E1F150E0FA013197EF30F105B0F508
:1022F000EA5AFF4F0C94512A909180009F7707C0B3
:10230000909180009F7D03C090918000977F909373
:10231000800024C094B59F7702C094B59F7D94BD82
:102320001DC0909190009F7707C0909190009F7D75
:1023300003C090919000977F909390000FC0909170
:10234000C0009F7703C09091C0009F7D9093C00014
:1023500005C09091C200977F9093C200E82FF0E0F3
:10236000EE0FFF1FED5EF44FA591B4918FB7F89477
:10237000EC91311103C020952E2301C02E2B2C93FC
:102380008FBF0895CF93DF9390E0FC01E05CF44FA2
:102390002491FC01EF5DF44F8491882361F190E07A
:1023A000880F991FFC01EB5FF44FC591D491FC019C
:1023B000ED5EF44FA591B491611109C09FB7F894F7
:1023C0008881209582238883EC912E230BC0623074
:1023D00061F49FB7F8943881822F80958323888396
:1023E000EC912E2B2C939FBF06C08FB7F894E881F9
:1023F0002E2B28838FBFDF91CF910895823108F073
:102400008251E82FF0E0E750F54FE49180917B0096
:10241000E3FB222720F930E095E0220F331F9A9545
:10242000E1F78F7D282B20937B00E770E064E09339
:102430007C0080917A00806480937A0080917A0099
:1024400086FDFCCF809178002091790090E0922B5E
:1024500008958F929F92AF92BF92CF92DF92EF92A8
:10246000FF926B017C010E947D184B015C01C1143D
:10247000D104E104F104F1F00E947D18DC01CB01EC
:1024800088199909AA09BB09883E9340A105B1059D
:1024900070F321E0C21AD108E108F10888EE880E35
:1024A00083E0981EA11CB11CC114D104E104F10405
:1024B00019F7DDCFFF90EF90DF90CF90BF90AF90F6
:1024C0009F908F900895089540915604509157041D
:1024D000209154043091550442175307B4F490915D
:1024E000E8009570E1F39091E80092FD19C08093A7
:1024F000F100809156049091570401968F739927AB
:10250000892B19F48EEF8093E80080915604909106
:1025100057040196909357048093560481E00895E0
:1025200080E00895CF92DF92EF92FF920F931F9376
:10253000CF93DF931F92CDB7DEB7182F062FE42E6F
:10254000862F880F8E5F99830E94641283E00E9419
:102550006412F12EC12E9981D92E8C2D8F198017DE
:1025600098F4F601E7FE02C0849101C080810E94C8
:102570006412182F80E00E9464128123FFEFCF1AAB
:10258000DF0A8111EACF01C081E00F90DF91CF9186
:102590001F910F91FF90EF90DF90CF900895DF9201
:1025A000EF92FF920F931F93CF93DF93D82E8A0160
:1025B0007B01E40EF51EEB01CE15DF0571F0D7FEB1
:1025C00003C0FE01849101C088810E94641221969B
:1025D0008111F2CF8FEF9FEF01C0C801DF91CF9142
:1025E0001F910F91FF90EF90DF900895615030F0B0
:1025F0002091F100FC0120830196F8CF289884E611
:102600008093A7020895CF92DF92EF92FF920F93EB
:102610001F93CF93DF936C017A018B01C0E0D0E070
:10262000CE15DF0589F0D8016D918D01D601ED91B0
:10263000FC910190F081E02DC6010995892B11F4E0
:102640007E0102C02196ECCFC701DF91CF911F918F
:102650000F91FF90EF90DF90CF900895CF93DF938D
:102660001F92CDB7DEB76983DC01ED91FC9102804A
:10267000F381E02D41E050E0BE016F5F7F4F09958F
:102680000F90DF91CF91089583E08093E9008091CE
:10269000F200882319F08AE38093E8000895FC0192
:1026A0008485958597FD0BC09FB7F89482E0809351
:1026B000E9008091F2009FBF90E0019608959FB7D6
:1026C000F89482E08093E9008091F2009FBF90E04F
:1026D00008950E944E2C0F931F93CF93DF931F9268
:1026E000CDB7DEB782E0898342E450E06EE77BE05D
:1026F00080E80E94CF120E944B11DC0112960D91CE
:102700001C9113970115110569F0D801ED91FC9109
:102710000280F381E02DBE016F5F7F4FC8010995F4
:1027200097FF07C089810F90DF91CF911F910F9183
:102730000895F80100851185E5CF8F929F92AF92A1
:10274000BF92CF92DF92EF92FF920F931F93CF939E
:10275000DF935C016B017A0180911501882309F4F4
:102760005BC08091A802882309F456C080912F0293
:1027700080FF05C08091E00082608093E000E70167
:1027800010E00AEF83E0882E9AE3992E2097D9F182
:102790000E943A1181110AC0015009F43DC061E064
:1027A00070E080E090E00E942912F0CF282F30E006
:1027B000C217D3070CF48C2F4FB7F8948092E9001E
:1027C0009091E80095FF1DC0282F30E0C21BD30B6D
:1027D000F601982F915020F081918093F100FACF6B
:1027E000C20ED31E112319F09092E80009C0809107
:1027F000E80085FD06C09092E80011E0209709F0FE
:1028000010E04FBFC3CF1111C3CF5D9884E6809312
:1028100058041E141F0444F081E090E0F5019383F6
:10282000828380E090E001C0C701DF91CF911F91CA
:102830000F91FF90EF90DF90CF90BF90AF909F905F
:102840008F9008950E943A1190E00895CF93DF93FE
:102850001F92CDB7DEB7FC018485958597FD05C035
:102860002FEF3FEF358724870BC0CE0101960E94E2
:102870001011019719F4898190E002C08FEF9FEF4A
:102880000F90DF91CF9108950F931F93CF93DF9314
:102890001F92CDB7DEB78C01FC018485958597FF2B
:1028A0000EC0CE0101960E941011019719F42981E2
:1028B00030E002C02FEF3FEFF80135872487F801A1
:1028C000848595850F90DF91CF911F910F91089589
:1028D0000F931F93CF93DF93EC0188819981009729
:1028E00029F02A813B812617370788F48B016F5F17
:1028F0007F4F0E94842B009761F0998388831B830C
:102900000A832C813D81232B11F4FC01108281E08C
:1029100001C080E0DF91CF911F910F910895EF9258
:10292000FF920F931F93CF93DF93EC0119821882CC
:102930001B821A821D821C826115710549F18B016F
:10294000FB0101900020E9F731977F01E61AF70AB1
:10295000B7010E9468142881398181110DC02115A9
:10296000310519F0C9010E94EC2A198218821D82D2
:102970001C821B821A820CC0FD82EC82B801C90144
:10298000DF91CF911F910F91FF90EF900C94692CE4
:10299000DF91CF911F910F91FF90EF9008951F92BB
:1029A0000F920FB60F9211242F933F934F935F9383
:1029B0006F937F938F939F93AF93BF93EF93FF9307
:1029C000E0910801F09109010995FF91EF91BF9104
:1029D000AF919F918F917F916F915F914F913F91B7
:1029E0002F910F900FBE0F901F9018951F920F926E
:1029F0000FB60F9211242F933F934F935F936F93D2
:102A00007F938F939F93AF93BF93EF93FF93E09147
:102A10000601F09107010995FF91EF91BF91AF91E8
:102A20009F918F917F916F915F914F913F912F91E6
:102A30000F900FBE0F901F9018951F920F920FB618
:102A40000F9211242F933F934F935F936F937F9334
:102A50008F939F93AF93BF93EF93FF93E091040104
:102A6000F09105010995FF91EF91BF91AF919F9171
:102A70008F917F916F915F914F913F912F910F9027
:102A80000FBE0F901F9018951F920F920FB60F92C6
:102A900011242F933F934F935F936F937F938F9363
:102AA0009F93AF93BF93EF93FF93E0910201F09157
:102AB00003010995FF91EF91BF91AF919F918F9184
:102AC0007F916F915F914F913F912F910F900FBE2A
:102AD0000F901F9018951F920F920FB60F9211240E
:102AE0002F933F934F935F936F937F938F939F9316
:102AF000AF93BF93EF93FF93E0910001F091010139
:102B00000995FF91EF91BF91AF919F918F917F9127
:102B10006F915F914F913F912F910F900FBE0F904A
:102B20001F9018951F920F920FB60F9211248F933A
:102B30009F938091E1009091E100937F9093E10059
:102B400083FF0FC01092E90091E09093EB00109288
:102B5000EC0092E39093ED001092A80298E090931D
:102B6000F00082FF20C093E09093E9009091F20082
:102B7000992319F09AE39093E800909158049923CF
:102B800039F090915804915090935804992389F109
:102B90009091A702992339F09091A70291509093B8
:102BA000A702992341F184FF10C08091E2008E7E3C
:102BB00081608093E2008091E1008F7E8093E1004C
:102BC00080912F028E7E806111C080FF16C080919F
:102BD000E2008E7E80618093E2008091E1008E7E33
:102BE0008093E10080912F028E7E816080932F027E
:102BF00004C05D9ACDCF289AD6CF9F918F910F9028
:102C00000FBE0F901F9018951F920F920FB60F9244
:102C10001124CF92DF92EF92FF920F931F932F9385
:102C20003F934F935F936F937F938F939F93AF9354
:102C3000BF93EF93FF93CF93DF93CDB7DEB76C973E
:102C4000DEBFCDBF1092E9008091E80083FFEDC1A7
:102C500068E0CE0145960E94F61282EF8093E8006C
:102C60008D8987FF05C09091E80090FFFCCF03C0DD
:102C70009EEF9093E800982F907609F0C6C09E8949
:102C80002F89188D91110CC0803829F48091300261
:102C90008093F10002C01092F1001092F10048C13F
:102CA000422F50E0512B913051F4811141C14130FC
:102CB000510509F03DC1809130028D7F0BC09330EA
:102CC00061F4811135C14130510509F031C1809164
:102CD00030028260809330022BC1953041F48091A4
:102CE000E80080FFFCCF20682093E30021C19630EC
:102CF00009F05FC0EB8CFC8C1092E9001092570435
:102D000010925604123091F510925504109254040A
:102D10000E946B1399E0BE016F5F7F4FDB01E92FCB
:102D20001D92EA95E9F799831A8391E09E8390EAD0
:102D300098879AEF99872091560430915704275F1E
:102D40003F4F3C832B838D831092E90010925704F0
:102D500010925604F0925504E092540449E050E079
:102D600080E00E94CF120E946B13E2C0F0925504E3
:102D7000E09254040E944B11DC011296ED90FC90FD
:102D80001397E114F10409F4C0C0D701ED91FC914F
:102D90000480F581E02DBE016B5E7F4FC701099570
:102DA000009719F00CF0C4C0C7C0F701E084F184AB
:102DB000E8CF973009F4C0C0983021F481E08093C7
:102DC000F100B6C0993009F0B3C0837009F0B4C007
:102DD000EFEAF1E081E021E036E39081992361F0B0
:102DE0008093E9002093EB0091919093EC00309355
:102DF000ED008F5F873089F78EE78093EA001092AD
:102E0000EA008F898093A80293C08B8D9C8D1092CD
:102E1000E900109257041092560490935504809341
:102E20005404898D811156C08E899D89913A59F437
:102E3000813209F081C047E050E06EE071E080E04F
:102E40000E94CF1275C0913209F076C0833289F4A6
:102E5000888D90E0982F88272F89822BA0E0B0E002
:102E600080930A0190930B01A0930C01B0930D0184
:102E70005FC0803269F48091E80082FFFCCF67E098
:102E80008EE091E00E94F6128BEF8093E80006C07E
:102E9000823209F04DC08F898093150180912E02F6
:102EA000882319F0EEEFFAE002C0E0E0F8E080914C
:102EB0000E0190910F01A0911001B0911101803B82
:102EC0009440A105B10509F07BC08091150180FFF8
:102ED00093C076C00E944B11DC0112960D911C919B
:102EE00013970115110541F1D801ED91FC91019065
:102EF000F081E02DBE016B5E7F4FC8010995811105
:102F000017C0F80100851185ECCF113009F44EC0CF
:102F1000133091F48F89882309F445C0823081F4FD
:102F200040E860E182EE9BE00E949212882321F04B
:102F30008EEF8093E80079C081E28093EB0075C04A
:102F4000813029F440E86BE086ED9BE0EDCF8330E3
:102F500099F70E944B11DC011296ED90FC901397AB
:102F60008E010F5F1F4F6801E114F10479F0D70162
:102F7000ED91FC910680F781E02DB801C70109951C
:102F8000080F111DF701E084F184EECFD8011C92E7
:102F9000F60101900020E9F73197BF016C197D0916
:102FA00040E0C601C1CF60EC7BE002C064EC7BE096
:102FB0006115710509F2FB01449150E080E840CFB2
:102FC0000FB6F894A89580916000886180936000A6
:102FD000109260000FBEA895EE3F2AE0F20739F08C
:102FE0008091FE0A9091FF0A91838083A1CF109275
:102FF000FF0A1092FE0A9CCFEE3F8AE0F80731F0FC
:10300000808191819093FF0A8093FE0A87E797E77A
:10301000918380839BE088E10FB6F894A895809314
:1030200060000FBE9093600083CF6C960FB6F8944B
:10303000DEBF0FBECDBFDF91CF91FF91EF91BF916A
:10304000AF919F918F917F916F915F914F913F9140
:103050002F911F910F91FF90EF90DF90CF900F90E5
:103060000FBE0F901F901895EF92FF920F931F9332
:10307000CF93DF9300D0CDB7DEB7142F91E09093BC
:10308000D0028093F2021092D1021092F30284E4F3
:1030900093E029833A830E94B8062981022FE22E09
:1030A0003A81F32E8E2D801B811740F4F701619138
:1030B0007F0184E493E00E94B806F4CF0E94140ECE
:1030C00091E0811190E0892F0F900F90DF91CF91C7
:1030D0001F910F91FF90EF900895CF93DF931F9270
:1030E000CDB7DEB749839E012F5F3F4F41E00E947D
:1030F00034180F90DF91CF9108953FB7F8948091E5
:103100005E0490915F04A0916004B091610426B5C3
:10311000A89B05C02F3F19F00196A11DB11D3FBF0F
:10312000BA2FA92F982F8827820F911DA11DB11D9D
:10313000BC01CD0142E0660F771F881F991F4A9599
:10314000D1F708951F920F920FB60F9211242F936B
:103150003F938F939F93AF93BF9380915904909126
:103160005A04A0915B04B0915C0430915D0423E0AB
:10317000230F2D3720F40196A11DB11D05C026E8AF
:10318000230F0296A11DB11D20935D048093590465
:1031900090935A04A0935B04B0935C0480915E0406
:1031A00090915F04A0916004B09161040196A11D0B
:1031B000B11D80935E0490935F04A0936004B0936C
:1031C0006104BF91AF919F918F913F912F910F908B
:1031D0000FBE0F901F901895CF93DF93CDB7DEB73A
:1031E000CE5AD1090FB6F894DEBF0FBECDBF78948A
:1031F00084B5826084BD84B5816084BD85B58260FC
:1032000085BD85B5816085BD80916E0081608093AC
:103210006E00109281008091810082608093810015
:103220008091810081608093810080918000816025
:1032300080938000809191008260809391008091C2
:1032400091008160809391008091900081608093D3
:1032500090008091C10084608093C1008091C10082
:1032600082608093C1008091C10081608093C10021
:103270008091C30081608093C3008091C000826010
:103280008093C0008091C20081608093C2008091D1
:103290007A00846080937A0080917A0082608093C3
:1032A0007A0080917A00816080937A0080917A0020
:1032B000806880937A001092A802109230021092D7
:1032C0002F028091D70081608093D70080EA80939D
:1032D000D80089B5806189BD89B5826089BD09B48E
:1032E00000FEFDCF61E070E080E090E00E942912D6
:1032F0008091D8008F7C80618093D8008091E0001D
:10330000807F8093E0008091E1008E7E8093E100D9
:103310008DE08093E200559A209AEEEFFFE78591C9
:1033200094918B3F9C4D19F481E080932E0261E0D3
:1033300088E00E94C21161E089E00E94C21161E050
:103340008AE00E94C21161E08BE00E94C21161E03C
:103350008CE00E94C21160E087E00E94C2118FEFF2
:103360009FEF909301038093000385EB91E00E940F
:10337000060E10923202109231021092D102109277
:10338000F3021092CF0281E08093CE021092A90244
:1033900061E082E00E945F1161E083E00E945F11C2
:1033A0008091B9008E7F8093B9008091B9008D7FA4
:1033B0008093B90088E48093B80085E48093BC00D2
:1033C0008CE08093B8008EEC9AE00E94C70F01E079
:1033D00023E042E06BE680916C030E943D0B00E02D
:1033E00022E044E06BE180916C030E943D0B22E0FF
:1033F00044E06CE180916C030E943D0B20E046E0CC
:103400006BE680916C030E94880B8BEB9AE00E9424
:10341000C70F28EE33E04DE653E065E780916C037B
:103420000E94840F80916D03843319F08FE69AE037
:1034300002C089E89AE00E94C70F87EA9AE00E94DA
:10344000C70F21E047E06BE680916C030E94880B78
:103450006EE170E080E090E00E94291220E046E0FA
:103460006BE680916C030E94880B40E76DE68091CB
:103470006C030E946D1886E00E948D0E40E06DE6A0
:1034800080916C030E946D1828EE33E04DE653E006
:1034900060E080916C030E94840F80906D0328EEA1
:1034A00033E04DE653E061E080916C030E94840FAD
:1034B00090906D0328EE33E04DE653E062E080919A
:1034C0006C030E94840FA0906D034FE765E280912A
:1034D0006C030E946D1820E045E06AE680916C0361
:1034E0000E94880B48E665E280916C030E946D188B
:1034F00021E041E06AE680916C030E94880B64E160
:1035000070E080E090E00E94291201E020E040E0BD
:1035100069E877E089E692E00E94930E882309F437
:10352000CDC288E090E00E94572AB82E192FE12CD6
:10353000F12CF701E755FE4F4491F701E655FE4F98
:103540002491670183E0C80ED11CF701E555FE4FB9
:10355000E491EE23D1F1EE2EF12CE330D8F0B70157
:103560008B2D912FC255DF4F2883CE5AD040C355A3
:10357000DF4F4883CD5AD0400E94842BB82E192F9C
:10358000C355DF4F4881CD5AD040C255DF4F288107
:10359000CE5AD040AB2DB12F80E090E08E159F0524
:1035A00048F4F601E80FF91FE755FE4FE491ED935B
:1035B0000196F4CF00E0B7018B2D912F0E94930E5E
:1035C000EC0CFD1C811117C010C094E0E90EF11C39
:1035D000F601E755FE4FE491E13039F442E368E348
:1035E00080916C030E946D1806C08B2D912F0E9454
:1035F000EC2A82E064C2A0ECEA16F10408F499CF48
:103600008B2D912F0E94EC2A03E023E042E06BE631
:1036100080916C030E943D0B42E168E380916C0352
:103620000E946D1844E069E180916C030E946D185E
:1036300001E023E045E06AE180916C030E943D0BCC
:1036400003E023E042E06AE180916C030E943D0BBD
:1036500022E044E06BE180916C030E943D0B43E06B
:1036600060E780916C030E946D1840E061E78091F3
:103670006C030E946D1820E040E060E080916C03D4
:103680000E94880B082D26E046E060E080916C03E4
:103690000E943D0B092D26E046E061E080916C031D
:1036A0000E943D0B0A2D26E046E062E080916C030B
:1036B0000E943D0BE12CF12CF701E658FE4FE491FE
:1036C000A1E8B0E0AC0FBD1FAE0DB11DEC9381E0E1
:1036D0008E0DBFEFEB1AFB0A23E02E1568F7CD57CE
:1036E000DF4F6881C358D04070E09B012E5F3F4F91
:1036F00090E02817390704F700E0CE57DF4F288104
:10370000C258D040CF57DF4F4881C158D04081E8E0
:1037100090E08C0F9D1F03960E94930E80E0F701AE
:10372000E658FE4FE491A1E8B0E0AC0FBD1FA80F32
:10373000B11DEC938F5F9FEFE91AF90A843078F39B
:10374000CD57DF4F6881C358D04070E0AB014E5F6A
:103750005F4F282F30E0421753070CF700E0CE5799
:10376000DF4F2881C258D040CF57DF4F4881C15822
:10377000D04081E890E08C0F9D1F03960E94930E2D
:103780000E94860E0E946A0F682FCE0101960E9449
:10379000570F42E06FE180916C030E946D184CE975
:1037A00061E280916C030E946D1840E560E28091B7
:1037B0006C030E946D1840E062E280916C030E94ED
:1037C0006D180E94860E21E046E06AE680916C0347
:1037D0000E94880B21E047E06AE680916C030E941A
:1037E000880B21E043E06AE680916C030E94880B1D
:1037F00080E0F701E658FE4FE491A1E8B0E0AC0F9D
:10380000BD1FA80FB11DEC938F5FAFEFEA1AFA0A44
:10381000843078F3CD57DF4F6881C358D04070E0D3
:10382000AB014E5F5F4F282F30E0421753070CF774
:1038300000E0CE57DF4F2881C258D040CF57DF4F2E
:103840004881C158D04081E890E08C0F9D1F0396BD
:103850000E94930E80E0F701E658FE4FE491A1E844
:10386000B0E0AC0FBD1FA80FB11DEC938F5FBFEF91
:10387000EB1AFB0A843078F3CD57DF4F6881C358C9
:10388000D04070E0AB014E5F5F4F282F30E0421711
:1038900053070CF700E0CE57DF4F2881C258D040C5
:1038A000CF57DF4F4881C158D04081E890E08C0F5E
:1038B0009D1F03960E94930E80E0F701E658FE4F8D
:1038C000E491A1E8B0E0AC0FBD1FA80FB11DEC93CF
:1038D0008F5F2FEFE21AF20A843078F3CD57DF4F73
:1038E0006881C358D04070E0AB014E5F5F4F282F16
:1038F00030E0421753070CF700E0CE57DF4F288126
:10390000C258D040CF57DF4F4881C158D04081E8DE
:1039100090E08C0F9D1F03960E94930E0E946A0FE9
:1039200083309105D8F3682FCE0101960E94570F7E
:1039300080E0F701E658FE4FE491A1E8B0E0AC0F5B
:10394000BD1FA80FB11DEC938F5F9FEFE91AF90A15
:10395000843078F3CD57DF4F3880C358D040832C64
:10396000912CA4014E5F5F4F282F30E04217530780
:1039700004F7CE57DF4FB880C258D040CF57DF4F43
:103980002880C158D040422D4F716DE680916C0364
:103990000E946D188B2D0E948D0EC12CD12C612C94
:1039A0007724739471E8472E512C4C0E5D1EA3E0D2
:1039B0004A0E511CC814D90498F5C60140968816C1
:1039C000990618F4A32CAC1802C050E1A52E8A2D3C
:1039D00090E093012B1931092817390714F4AB2C07
:1039E000A19492012C0D3D1D08EE13E04A2D6FE6C7
:1039F00080916C030E94220ACA0CD11CBA0CC81414
:103A0000D904C0F6B11001C02394422D4F716DE668
:103A100080916C030E946D188B2D0E948D0ECACF71
:103A20000E946A0F83309105D8F3682FCE0101966A
:103A30000E94570FF701E658FE4F80E09491A1E8ED
:103A4000B0E0AC0FBD1FA80FB11D9C938F5F8430F9
:103A500010F43196F3CFCD57DF4F6881C358D04073
:103A600070E0AB014E5F5F4F282F30E042175307E5
:103A700084F700E0CE57DF4F2881C258D040CF579F
:103A8000DF4F4881C158D04081E890E08C0F9D1FE6
:103A900003960E94930E20E047E06AE680916C0353
:103AA0000E94880B8AE290E090936F0380936E03EC
:103AB0000E94860E0E94710E80E001C081E080931A
:103AC000F70380916C032CED30E0CD56DF4F398346
:103AD0002883C359D040AE014D565F4F63E10E9429
:103AE000161080916C032CE430E0CF56DF4F398301
:103AF0002883C159D040AE014F565F4F65E10E9407
:103B0000161080916C032BEA3FEFCF57DF4F3983BC
:103B10002883C158D040AE014F575F4F67E10E94E4
:103B2000161080916C032CEF36E03A832983AE01A6
:103B30004F5F5F4F6AE00E9416101091F70311115A
:103B400045C08FE59AE00E94C70F21E047E06AE692
:103B500080916C030E94880B8FE39AE00E94C70F4C
:103B60008091F3039091F403009709F41DC4813010
:103B7000910509F41BC48230910509F419C48330FE
:103B8000910509F418C4079769F414C4133008F0B8
:103B90002DC4113009F423C480916900836080939F
:103BA0006900E89A0E94710E8093F60385E19AE01D
:103BB0000E94C70F81E08093F50380916E0390917E
:103BC0006F039093F9038093F80310C084EF99E09A
:103BD0000E94A60F6091F70370E080E090E04AE059
:103BE0000E94D50F82EF99E00E94C70F61E080919B
:103BF0008A030E94C21161E080918C030E94C2116D
:103C000010928F0310928E0361E0809181030E94D5
:103C1000C21161E0809183030E94C2111092860359
:103C20001092850360E081EC93E00E94F00CF89420
:103C300010928000109281001092850010928400F2
:103C400028EE33E030938900209388008091810032
:103C500088608093810080918100846080938100DE
:103C600080916F00826080936F001092900010929C
:103C70009100109295001092940030939900209337
:103C800098008091910088608093910080919100CC
:103C900084608093910080917100826080937100B4
:103CA0007894C090C303D090C403E090C503F09013
:103CB000C603A70196016091D5037091D603809148
:103CC000D7039091D8030E946D258823C1F0C0923C
:103CD000D503D092D603E092D703F092D803109286
:103CE000E5031092E6031092E7031092E8031092A6
:103CF000E1031092E2031092E3031092E403C090F8
:103D0000C703D090C803E090C903F090CA03A7018D
:103D100096016091D9037091DA038091DB03909151
:103D2000DC030E946D258823C1F0C092D903D09294
:103D3000DA03E092DB03F092DC031092E5031092C9
:103D4000E6031092E7031092E8031092E103109249
:103D5000E2031092E3031092E403C090CB03D090EF
:103D6000CC03E090CD03F090CE03A70196016091C3
:103D7000DD037091DE038091DF039091E0030E94E8
:103D80006D258823C1F0C092DD03D092DE03E0925E
:103D9000DF03F092E0031092E5031092E603109225
:103DA000E7031092E8031092E1031092E2031092ED
:103DB000E3031092E4038DEA93E00E94B20D0E94A7
:103DC0007D186093E9037093EA038093EB0390936B
:103DD000EC0382E00E94FE11BC01990F880B990B45
:103DE0000E94742520E030E040E450E40E94D32596
:103DF00020E030EC4FE754E40E94A72720E030E0B9
:103E000040E050E40E94C9262B013C0160933C0233
:103E100070933D0280933E0290933F0281E00E94A6
:103E2000FE11BC01990F880B990B0E94742520E0AC
:103E300030E040EA50E40E94D32520E030EC4FE728
:103E400054E40E94A72720E030E0A9010E94C9267F
:103E50004B015C01609338027093390280933A02FF
:103E600090933B0280E00E94FE11BC01990F880BE9
:103E7000990B0E9474252AE939E949E15FE30E9420
:103E8000D32520E030EC4FE754E40E94A72720E040
:103E900030E0A9010E94C9266B017C0160933402C5
:103EA000709335028093360290933702A3019201FA
:103EB0006091D5037091D6038091D7039091D80378
:103EC0000E946D258823C1F04092D5035092D603FD
:103ED0006092D7037092D8031092E5031092E60324
:103EE0001092E7031092E8031092E1031092E203AC
:103EF0001092E3031092E4038DEA93E00E94A00D78
:103F0000A50194016091DD037091DE038091DF03D0
:103F10009091E0030E946D258823C1F08092DD031B
:103F20009092DE03A092DF03B092E0031092E503CB
:103F30001092E6031092E7031092E8031092E10357
:103F40001092E2031092E3031092E4038DEA93E0EF
:103F50000E94A00DA70196016091D9037091DA0328
:103F60008091DB039091DC030E946D258823C1F0D2
:103F7000C092D903D092DA03E092DB03F092DC0323
:103F80001092E5031092E6031092E7031092E80303
:103F90001092E1031092E2031092E3031092E40303
:103FA0008DEA93E00E94A00D60EA7FE080E090E05F
:103FB0000E94291286EC91E00E94060E00E010E0BB
:103FC0008091F503882351F12091FA033091FB038E
:103FD0008091F8039091F90340913302411103C09D
:103FE00028173907C8F3109233020E94710E80938C
:103FF000F6030E946A0F9C019093FB038093FA03DF
:104000009091F60394FD04C02115344009F001C2DB
:104010000E94860E8AEE9AE00E94C70F20E030E0F0
:1040200044E353E460914004709141048091420460
:10403000909143040E94D3252BED3FE049E450E4E6
:104040000E94A727AB01BC0181E993E00E94080709
:1040500082E00E94FE11BC01990F880B990B0E940F
:10406000742520E030E040E450E40E94D32520E0B5
:1040700030EC4FE754E40E94A72720E030E040E016
:1040800050E40E94C9264B015C0181E00E94FE11B0
:10409000BC01990F880B990B0E94742520E030E039
:1040A00040EA50E40E94D32520E030EC4FE754E48E
:1040B0000E94A72720E030E0A9010E94C9266B01D9
:1040C0007C0180E00E94FE11BC01990F880B990BC6
:1040D0000E9474252AE939E949E15FE30E94D3256A
:1040E00020E030EC4FE754E40E94A72720E030E0C6
:1040F000A9010E94C9262B013C01A50194016091F0
:104100003C0270913D0280913E0290913F020E94DC
:10411000C826CB56DF4F688379838A839B83C55932
:10412000D04020E030E0A9010E94762818168CF4D7
:104130002DEC3CEC4CE45DE3CB56DF4F688179819C
:104140008A819B81C559D0400E94762887FF11C083
:1041500042C02DEC3CEC4CE45DEBCB56DF4F68816C
:1041600079818A819B81C559D0400E946D2518169E
:1041700094F1A50194016091D5037091D6038091CB
:10418000D7039091D8030E946D258823C1F08092B7
:10419000D5039092D603A092D703B092D803109281
:1041A000E5031092E6031092E7031092E8031092E1
:1041B000E1031092E2031092E3031092E4038DEA0C
:1041C00093E00E94A00D80923C0290923D02A0924A
:1041D0003E02B0923F02A7019601609138027091B1
:1041E000390280913A0290913B020E94C8264B010D
:1041F0005C0120E030E0A9010E94762818165CF4EA
:104200002DEC3CEC4CE45DE3C501B4010E94762842
:1042100087FF0BC03CC02DEC3CEC4CE45DEBC501D2
:10422000B4010E946D25181694F1A70196016091C2
:10423000DD037091DE038091DF039091E0030E9423
:104240006D258823C1F0C092DD03D092DE03E09299
:10425000DF03F092E0031092E5031092E603109260
:10426000E7031092E8031092E1031092E203109228
:10427000E3031092E4038DEA93E00E94A00DC09244
:104280003802D0923902E0923A02F0923B02A30146
:1042900092016091340270913502809136029091C2
:1042A00037020E94C8266B017C0120E030E0A901A2
:1042B0000E94762818165CF42DEC3CEC4CE45DE38F
:1042C000C701B6010E94762887FF0BC03CC02DECC9
:1042D0003CEC4CE45DEBC701B6010E946D2518165D
:1042E00094F1A30192016091D9037091DA03809156
:1042F000DB039091DC030E946D258823C1F040927E
:10430000D9035092DA036092DB037092DC031092BF
:10431000E5031092E6031092E7031092E80310926F
:10432000E1031092E2031092E3031092E4038DEA9A
:1043300093E00E94A00D40923402509235026092A8
:1043400036027092370285ED91E00E94EE0D609189
:104350003C0270913D0280913E0290913F020E948A
:10436000391089ED91E00E94EE0D60913802709154
:10437000390280913A0290913B020E9439108DEDF2
:1043800091E00E94EE0D60913402709135028091AF
:104390003602909137020E9439100115110509F477
:1043A0000FCE0E9400000CCE12E005C013E003C047
:1043B00011E001C014E0E12FF0E0EE0FFF1FE0502C
:1043C000FF4F80E597E091838083123009F0DECBC8
:1043D00080916900806380936900EA9AE3CB8091C1
:1043E00069008C6080936900E99ADCCB133039F462
:1043F00080916900806C80936900EB9AD3CB143074
:1044000009F0CACB80916A00806380936A00EE9ABB
:10441000C9CB91FF03CE6091F8037091F9038091AD
:10442000FA039091FB038617970738F40E946A0FEE
:104430009093FB038093FA03EECF8CEF93E00E94FE
:10444000570F8091FA039091FB032091F80330916C
:10445000F903821B930B9093FB038093FA038CEF79
:1044600093E0892B29F4E0916C03F0916D0302C075
:10447000ECEFF3E06480712C762C66248581682A49
:10448000C084D12CDC2CCC248185C82AE484F12C76
:10449000FE2CEE248585E82A608170E0762F662761
:1044A0008181682B072E000C880B990B0E947425C4
:1044B00020E030E040E858E30E94D3254B015C0146
:1044C00060935C0370935D0380935E0390935F033E
:1044D000B301770C880B990B0E94742520E030E023
:1044E00040E858E30E94D3252B013C016093600310
:1044F000709361038093620390936303B601DD0CB4
:10450000880B990B0E94742520E030E040E858E3C6
:104510000E94D325CB56DF4F688379838A839B83A0
:10452000C559D0406093640370936503809366031C
:1045300090936703B701FF0C880B990B0E947425B9
:1045400020E030E040E858E30E94D325C756DF4F13
:10455000688379838A839B83C959D04060936803B9
:104560007093690380936A0390936B039B01AC0182
:10457000C301B2010E94D3256B017C01CB56DF4FF2
:10458000288139814A815B81C559D040C501B40178
:104590000E94D3259B01AC01C701B6010E94C82629
:1045A0009B01AC010E94C926C356DF4F6883798303
:1045B0008A839B83CD59D0406093500370935103FD
:1045C0008093520390935303A3019201C501B40158
:1045D0000E94D3256B017C01C756DF4F28813981AA
:1045E0004A815B81C959D040CB56DF4F68817981C0
:1045F0008A819B81C559D0400E94D3259B01AC0183
:10460000C701B6010E94C9269B01AC010E94C926C0
:10461000CF55DF4F688379838A839B83C15AD0400B
:1046200060935403709355038093560390935703FC
:10463000A5019401C501B4010E94D3256B017C0141
:10464000A3019201C301B2010E94D3259B01AC01D9
:10465000C701B6010E94C8266B017C01CB56DF4F13
:10466000288139814A815B81C559D040CA01B9018D
:104670000E94D3259B01AC01C701B6010E94C82648
:104680006B017C01C756DF4F288139814A815B81EC
:10469000C959D040CA01B9010E94D3259B01AC0180
:1046A000C701B6010E94C9266B017C0160935803C3
:1046B0007093590380935A0390935B03A50194016F
:1046C000C501B4010E94C926CB55DF4F68837983A9
:1046D0008A839B83C55AD040A3019201C301B201D2
:1046E0000E94C926C755DF4F688379838A839B83DD
:1046F000C95AD040A5019401CB55DF4F688179811B
:104700008A819B81C55AD0400E94D3254B015C0110
:10471000A3019201C755DF4F688179818A819B810E
:10472000C95AD0400E94D3259B01AC01C501B401F8
:104730000E94C92620E030E040E85FE30E94C826DE
:104740004B015C01CB56DF4F288139814A815B8167
:10475000C559D040C755DF4F688179818A819B81D7
:10476000C95AD0400E94D3252B013C01C756DF4FC8
:10477000288139814A815B81C959D040CB55DF4FAF
:10478000688179818A819B81C55AD0400E94D32556
:104790009B01AC01C301B2010E94C826A50194018E
:1047A0000E94482760933C0470933D0480933E042C
:1047B00090933F04A7019601C701B6010E94D3253B
:1047C0006B017C01CF55DF4F288139814A815B81A4
:1047D000C15AD040CA01B9010E94D325A701960150
:1047E0000E94C9260E94D9289B01AC01C356DF4F05
:1047F000688179818A819B81CD59D0400E94A72709
:104800000E9478276093400470934104809342048F
:1048100090934304C356DF4F288139814A815B81DD
:10482000CD59D040CA01B9010E94D325A7019601F4
:104830000E94C9260E94D9289B01AC01CF55DF4FA9
:10484000688179818A819B81C15AD0400E94A727C3
:104850000E94782760934404709345048093460433
:1048600090934704DBCB81E993E00E941E078DEA19
:1048700093E00C943D0DE4EFF2E01382128248EED7
:1048800053E060E070E0448355836683778382E27F
:1048900091E0918380838FEF9FEF95878487E4E495
:1048A000F3E013821282448355836683778324E383
:1048B00031E031832083E1EFF3E02AEA31E0318314
:1048C000208327E030E0338322831482158216820E
:1048D000108617821286118610923C0410923D04B5
:1048E00010923E0410923F04109240041092410432
:1048F0001092420410924304109244041092450412
:104900001092460410924704EDEAF3E02AE931E000
:10491000318320831382128240E050E06FE773E41A
:1049200044835583668377831086118612861386A7
:10493000448755876687778740E157E260E070E0FB
:10494000408B518B628B738B2AE831E0358B248B43
:10495000168A178A108E118E128E138E148E158E53
:10496000168E178E10A211A293A382A315A214A2D1
:1049700082E991E097A386A310A611A612A613A61A
:1049800014A615A616A617A610AA11AA12AA13AA4B
:1049900010AE11AE12AE13AE14AA15AA16AA17AA1B
:1049A00014AE15AE16AE17AE1092ED031092EE03D4
:1049B0001092EF031092F003A1E9B3E080E791E0D9
:1049C00011969C938E9386E491E013969C938E931C
:1049D000129740E050E060E070EC14964D935D93C8
:1049E0006D937C93179740E050E060E070E4189678
:1049F0004D935D936D937C931B971D96FC93EE9363
:104A00001C9784E591E01F969C938E931E9740E03F
:104A100050E064E372EC50964D935D936D937C93FC
:104A2000539740E050E064E372E454964D935D93F5
:104A30006D937C9357975996FC93EE93589760E04B
:104A400070E0CD010E94F306E8E8F3E082EA91E02D
:104A5000918380832AE030E03383228329E030E0B1
:104A600035832483178216821086EFE7F3E0918363
:104A700080838CE090E0938382838BE090E0958349
:104A800084831782168281E0808788E680936C0396
:104A9000ECE5F3E080E090E0A0E8BFE38083918361
:104AA000A283B38314821582168217821086118620
:104AB000128613861486158616861786E0E5F3E0BF
:104AC000108211821282138214821582168217823A
:104AD000108611861286138608950E94AF2508F469
:104AE00081E00895E89409C097FB3EF49095809585
:104AF000709561957F4F8F4F9F4F9923A9F0F92FA4
:104B000096E9BB279395F695879577956795B79521
:104B1000F111F8CFFAF4BB0F11F460FF1BC06F5F07
:104B20007F4F8F4F9F4F16C0882311F096E911C019
:104B3000772321F09EE8872F762F05C0662371F03A
:104B400096E8862F70E060E02AF09A95660F771F4E
:104B5000881FDAF7880F9695879597F90895990F2A
:104B60000008550FAA0BE0E8FEEF16161706E80737
:104B7000F907C0F012161306E407F50798F0621B58
:104B8000730B840B950B39F40A2661F0232B242B2D
:104B9000252B21F408950A2609F4A140A6958FEF4C
:104BA000811D811D08950E94E6250C9457260E94C0
:104BB000492638F00E94502620F0952311F00C94DD
:104BC00040260C94462611240C948B260E946826BD
:104BD00070F3959FC1F3950F50E0551F629FF00150
:104BE000729FBB27F00DB11D639FAA27F00DB11D69
:104BF000AA1F649F6627B00DA11D661F829F2227F2
:104C0000B00DA11D621F739FB00DA11D621F839F78
:104C1000A00D611D221F749F3327A00D611D231F4E
:104C2000849F600D211D822F762F6A2F11249F579C
:104C300050409AF0F1F088234AF0EE0FFF1FBB1F9F
:104C4000661F771F881F91505040A9F79E3F51055E
:104C500080F00C9440260C948B265F3FE4F3983E42
:104C6000D4F3869577956795B795F795E7959F5F08
:104C7000C1F7FE2B880F911D9695879597F908959A
:104C800097F99F6780E870E060E008959FEF80ECFF
:104C9000089500240A9416161706180609060895A2
:104CA00000240A9412161306140605060895092E08
:104CB0000394000C11F4882352F0BB0F40F4BF2B77
:104CC00011F460FF04C06F5F7F4F8F4F9F4F0895B7
:104CD00057FD9058440F551F59F05F3F71F04795AD
:104CE000880F97FB991F61F09F3F79F08795089592
:104CF000121613061406551FF2CF4695F1DF08C0B1
:104D0000161617061806991FF1CF869571056105CD
:104D100008940895E894BB2766277727CB0197F975
:104D200008952F923F924F925F926F927F928F924F
:104D30009F92AF92BF92CF92DF92EF92FF920F932A
:104D40001F93CF93DF93CDB7DEB7CA1BDB0B0FB634
:104D5000F894DEBF0FBECDBF09942A8839884888F1
:104D60005F846E847D848C849B84AA84B984C88487
:104D7000DF80EE80FD800C811B81AA81B981CE0F7E
:104D8000D11D0FB6F894DEBF0FBECDBFED01089563
:104D90005058BB27AA270E94E0260C9457260E9451
:104DA000492638F00E94502620F039F49F3F19F42C
:104DB00026F40C9446260EF4E095E7FB0C9440266E
:104DC000E92F0E94682658F3BA1762077307840711
:104DD000950720F079F4A6F50C948A260EF4E09558
:104DE0000B2EBA2FA02D0B01B90190010C01CA01A5
:104DF000A0011124FF27591B99F0593F50F4503E50
:104E000068F11A16F040A22F232F342F4427585F41
:104E1000F3CF469537952795A795F0405395C9F759
:104E20007EF41F16BA0B620B730B840BBAF0915011
:104E3000A1F0FF0FBB1F661F771F881FC2F70EC0B0
:104E4000BA0F621F731F841F48F487957795679583
:104E5000B795F7959E3F08F0B0CF9395880F08F06F
:104E60009927EE0F9795879508950E94492660F03F
:104E700080E891E009F49EEF0E94502628F040E877
:104E800051E071F45EEF0CC00C9446260C948A2617
:104E9000E92FE0780E94682640F3092E052AB1F335
:104EA000261737074807590738F00E2E07F8E02570
:104EB00069F0E025E0640AC0EF6307F8009407FAA0
:104EC000DB01B9019D01DC01CA01AD01EF930E9434
:104ED000BE270E9457260E9478275F91552339F0FC
:104EE0002BED3FE049E450FD49EC0C94C9260895B0
:104EF000DF93DD27B92FBF7740E85FE3161617066B
:104F000048075B0718F4D92F0E947B289F938F9343
:104F10007F936F930E941929EAECF0E00E944F28DA
:104F20000E9457262F913F914F915F910E94E62555
:104F3000DD2351F09058A2EA2AED3FE049EC5FE30F
:104F4000D0785D270E94E026DF910C9457260E94BE
:104F5000BB270C9457260E94502658F00E944926E1
:104F600040F029F45F3F29F00C94402651110C9435
:104F70008B260C9446260E94682668F39923B1F389
:104F8000552391F3951B550BBB27AA27621773076F
:104F9000840738F09F5F5F4F220F331F441FAA1F03
:104FA000A9F335D00E2E3AF0E0E832D091505040BF
:104FB000E695001CCAF72BD0FE2F29D0660F771F6D
:104FC000881FBB1F261737074807AB07B0E809F053
:104FD000BB0B802DBF01FF2793585F4F3AF09E3FD8
:104FE000510578F00C9440260C948B265F3FE4F337
:104FF000983ED4F3869577956795B795F7959F5F1B
:10500000C9F7880F911D9695879597F90895E1E066
:10501000660F771F881FBB1F621773078407BA07C5
:1050200020F0621B730B840BBA0BEE1F88F7E09520
:1050300008950E9420286894B1110C948B2608953D
:105040000E94702688F09F5798F0B92F9927B75182
:10505000B0F0E1F0660F771F881F991F1AF0BA951C
:10506000C9F714C0B13091F00E948A26B1E00895CA
:105070000C948A26672F782F8827B85F39F0B93FBC
:10508000CCF3869577956795B395D9F73EF49095CF
:105090008095709561957F4F8F4F9F4F0895DF9357
:1050A000CF931F930F93FF92EF92DF927B018C01BE
:1050B000689406C0DA2EEF010E94E625FE01E8940E
:1050C000A5912591359145915591A6F3EF010E9447
:1050D000E026FE019701A801DA9469F7DF90EF90CE
:1050E000FF900F911F91CF91DF9108950E94AF25FE
:1050F00008F48FEF08959B01AC0160E070E080E858
:105100009FE30C94A727FA01EE0FFF1F30962105AD
:105110003105A1F16115710561F48038BFE39B078A
:1051200049F168949038810561F08038BFEF9B07A2
:1051300041F099234AF5FF3FE1053105210519F1B9
:10514000E8940894E795D901AA2329F4AB2FBE2F40
:10515000F85FD0F310C0FF5F70F4A695E0F7F73961
:1051600050F019F0FF3A38F49F779F930DD00F90CD
:1051700007FC9058089546F00C94462660E070E0D5
:1051800080E89FE308954FE79F775F934F933F93A6
:105190002F930E94B3292F913F914F915F910E94CD
:1051A000D3250C942A2919F416F40C9446260C9451
:1051B0005C290E947026B8F39923C9F3B6F39F5770
:1051C000550B87FF0E946A290024A0E640EA90015F
:1051D00080585695979528F4805C660F771F881F36
:1051E00020F026173707480730F4621B730B840B37
:1051F000202931294A2BA69517940794202531257B
:105200004A2758F7660F771F881F20F026173707A1
:10521000480730F4620B730B840B200D311D411DC8
:10522000A09581F7B901842F9158880F969587959D
:1052300008959B01AC010C94D3250E94AF25880BE7
:10524000990B089529F416F00C9440260C948A26A4
:105250000C9446260E947026A8F39638A0F707F80B
:105260000F92E8942BE33AEA48EB5FE70E94E925C6
:105270000F920F920F924DB75EB70F920E94FB29CB
:10528000E7EFF0E00E944F284F915F91EF91FF917F
:10529000E595EE1FFF1F49F0FE57E0684427EE0F2B
:1052A000441FFA95E1F74195550B0E9475290F901F
:1052B00007FE0C947B2808959F3F31F0915020F415
:1052C000879577956795B795880F911D96958795E2
:1052D00097F9089591505040660F771F881FD2F7B5
:1052E00008950C9440260C945C290E947026D8F3F3
:1052F0009923C9F3940F511DA3F39150504094F09A
:1053000059F0882332F0660F771F881F9150504064
:10531000C1F79E3F51052CF7880F911D96958795F3
:1053200097F908955F3FACF0983E9CF0BB278695B7
:1053300077956795B79508F4B1609395C1F7BB0F62
:1053400058F711F460FFE8CF6F5F7F4F8F4F9F4F8B
:10535000E3CF0C948B2616F00C945C290C94462613
:1053600068940C9440260E947026A8F39923C1F3F8
:10537000AEF3DF93CF931F930F93FF92C92FDD27D7
:1053800088232AF02197660F771F881FDAF720E01D
:1053900030E040E85FEB9FE3883920F0803E38F052
:1053A00021968F770E94C926EFE1F1E004C00E94A8
:1053B000C926ECE4F1E00E944F288B01BE01EC010C
:1053C000FB2E6F5771097595771F880B990B0E94FB
:1053D000742528E132E741E35FE30E94E625AF2D23
:1053E0009801AE01FF900F911F91CF91DF910E9424
:1053F000E0260C945726FA01DC01AA0FBB1F9B0183
:10540000AC01BF5728F4222733274427507820C007
:10541000B75190F4AB2F0024469537952795011C82
:10542000A395D2F3002071F0220F331F441FB395D0
:10543000DAF30ED00C94C82661307105A0E88A0713
:10544000B94630F49B01AC0166277727882790780E
:10545000309621F020833183428353830895A1E263
:105460001A2EAA1BBB1BFD010DC0AA1FBB1FEE1FDE
:10547000FF1FA217B307E407F50720F0A21BB30B29
:10548000E40BF50B661F771F881F991F1A9469F7A5
:1054900060957095809590959B01AC01BD01CF0101
:1054A0000895EE0FFF1F0590F491E02D0994CF931E
:1054B000DF938230910510F482E090E0E091640483
:1054C000F091650420E030E0C0E0D0E0309711F1C9
:1054D0004081518148175907C0F04817590761F4B6
:1054E00082819381209719F09B838A832BC09093AC
:1054F00065048093640426C02115310519F0421714
:10550000530718F49A01BE01DF01EF010280F38115
:10551000E02DDCCF2115310509F1281B390B243092
:10552000310590F412968D919C9113976115710538
:1055300021F0FB019383828304C0909365048093E0
:105540006404FD01329644C0FD01E20FF31F819314
:105550009193225031092D933C933AC020916204DB
:1055600030916304232B41F42091180130911901EB
:105570003093630420936204209116013091170147
:105580002115310541F42DB73EB740911A015091D4
:105590001B01241B350BE0916204F0916304E217B8
:1055A000F307A0F42E1B3F0B2817390778F0AC0146
:1055B0004E5F5F4F2417350748F04E0F5F1F509323
:1055C0006304409362048193919302C0E0E0F0E0B1
:1055D000CF01DF91CF9108950F931F93CF93DF9366
:1055E000009709F48CC0FC0132971382128200915B
:1055F0006404109165040115110581F42081318145
:10560000820F931F20916204309163042817390799
:1056100079F5F0936304E093620471C0D80140E02F
:1056200050E0AE17BF0750F412962D913C9113979E
:10563000AD012115310509F1D901F3CF9D01DA0141
:105640003383228360817181860F971F82179307AE
:1056500069F4EC0128813981260F371F2E5F3F4FF7
:10566000318320838A819B8193838283452B29F414
:10567000F0936504E093640442C01396FC93EE93A8
:105680001297ED01499159919E01240F351FE217A0
:10569000F30771F480819181840F951F0296119612
:1056A0009C938E938281938113969C938E931297F1
:1056B000E0E0F0E0D80112968D919C91139700974D
:1056C00019F0F8018C01F6CF8D919C9198012E5F15
:1056D0003F4F820F931F209162043091630428177B
:1056E000390769F4309729F4109265041092640424
:1056F00002C0138212821093630400936204DF914C
:10570000CF911F910F910895A0E0B0E0EAE8FBE28D
:105710000C949526EC01009721F4CB010E94572AA6
:10572000B8C0FC01E60FF71F9C0122503109E217B7
:10573000F30708F4ACC0D9010D911C91119706171D
:105740001707B0F00530110508F49FC0C801049791
:105750008617970708F499C002501109061B170B0A
:10576000019311936D937C93CF010E94EC2A8DC01D
:105770005B01A01AB10A4C01800E911EA091640435
:10578000B091650440E050E0E12CF12C109709F451
:105790004AC0A815B905D1F56D907C9011976301A9
:1057A00082E0C80ED11CCA14DB0480F1A3014A199F
:1057B0005B096A0182E0C80ED11C1296BC90129758
:1057C0001396AC91B5E0CB16D10440F0B282A3831E
:1057D00051834083D9016D937C930AC00E5F1F4FA4
:1057E000C301800F911FF90191838083EB2DFA2F64
:1057F000E114F10431F0D7011396FC93EE93129764
:1058000044C0F0936504E09364043FC08D919C9183
:1058100011974817590708F4AC017D0112960D90B5
:10582000BC91A02DB3CF8091620490916304881540
:105830009905E1F446175707C8F480911601909135
:105840001701009741F48DB79EB740911A0150910E
:105850001B01841B950BE817F907C8F4F093630448
:10586000E0936204F901718360830FC0CB010E9451
:10587000572A7C01009759F0A801BE010E94602CB4
:10588000CE010E94EC2AC70104C0CE0102C080E014
:1058900090E0CDB7DEB7EEE00C94B12681E090E069
:1058A000F8940C94702CFB01DC0104C08D910190E4
:1058B000801921F441505040C8F7881B990B089576
:1058C000FB01DC0102C001900D9241505040D8F71D
:1058D0000895FB01DC0101900D920020E1F708958D
:1058E00015E0CBEFD5E004C0FE010E94512A2196BD
:0A58F000CC3FD107C9F7F894FFCFB1
:1058FA0063126312631263126312FFFFFFFF00E178
:10590A00000000000000000066048000E8030000B8
:10591A0000002E139D13221444134F13261444140B
:10592A0000000000B806880653062E0626063E0624
:10593A002F06000000009B0D840730081A0D1F0770
:10594A00000000009C0D88073B08DB0DD008000012
:10595A0000000000000069136913691300000000C9
:10596A001E0786070807E706F30646080000000038
:10597A00000000006913000000002B0D330D000029
:10598A0000009D0D8A07000000003D0D450D000036
:10599A0000009F0D8E07000000009E0D8C0700C1BD
:1059AA00808100000073657475702829202D3E20BF
:1059BA0053746172740073657475702829202D3EC2
:1059CA0020456E6400503A2000493A2000443A20AB
:1059DA00005374616E646279005265616479004EA5
:1059EA0065772053746174653A20000D0A004800F7
:1059FA004C005370656564436F6E74726F6C6C65AE
:105A0A00723A3A656E61626C654D6F746F72733A81
:0E5A1A0020006E616E00696E66006F76660099
:00000001FF
