:100000000C9405060C94010A0C94DA090C94B309BB
:100010000C948C090C942D060C942D060C946509F7
:100020000C942D060C942D060C94280A0C949A0A14
:100030000C942D060C942D060C942D060C942D0674
:100040000C942D060C948E100C942D060C942D06F9
:100050000C942D060C942D060C942D060C9469140A
:100060000C942D060C942D060C942D060C942D0644
:100070000C942D060C942D060C942D060C942D0634
:100080000C9468100C942D060C942D060C942D06DF
:100090000C94B30E0C942D060C942D060C942D0686
:1000A0000C942D060C942D060C942D069613991382
:1000B00088138C139013BA13BA13BA139D13A11398
:1000C000A513AB13AF13BA13B513084AD73B3BCEF6
:1000D000016E84BCBFFDC12F3D6C74319ABD568347
:1000E0003DDA3D00C77F11BED9E4BB4C3E916BAAFF
:1000F000AABE000000803F07634236B79BD8A71A0C
:1001000039685618AEBAAB558C1D3CB7CC5763BD99
:100110006DEDFD753EF6177231BF000000803F089F
:10012000000000BE922449123EABAAAA2ABECDCC42
:10013000CC4C3E00000080BEABAAAAAA3E00000044
:1001400000BF000000803F0000000000084178D39D
:10015000BB4387D1133D190E3CC3BD4282AD2B3E3C
:1001600068EC8276BED98FE1A93E4C80EFFFBE01DC
:10017000C4FF7F3F00000000000001B202FFFF014A
:1001800090040923A135016A0206000160080000FD
:100190000000000000000060044000000001620256
:1001A000000000600400400000037B034CCD6C03A2
:1001B000AB0336567600680402CB47A2021804004F
:1001C000058BC1010C0400000000037F060CC92C44
:1001D000979797038903264666006C022000024029
:1001E0000400000000024404000000000248040073
:1001F000000000024C040000000002500400000057
:100200000002540400000000025804000000000234
:100210005C040000000002BC040000000001EC04CB
:1002200000004000037F060CC92C97979704020337
:100230000D355D040904872D353D00A30100000044
:100240000001078601FE074105F120283038077EAE
:1002500001300746019A074704F1283038076C043B
:10026000F12830380216020001FB00003E000B00AE
:1002700036000100020003000000650054FFEF009B
:1002800000FA80000B128200010002000000000052
:1002900000000000000000000000280000FFFF45F3
:1002A00081FFFFFA7200000000000003E800000078
:1002B0000100017FFFFFFE8001001B000000000025
:1002C000000000000000000000003E03304000007D
:1002D0000002CAE3093E8000002000000000000088
:1002E00000400000006000000041FF000000000B23
:1002F0002A0000165500002182FD872650FD80004F
:1003000000001F0000000580000000000000010048
:100310000000020000000300004000000000000494
:100320006F0002653200005EC04000000000000067
:10033000000000000000000000FB8C6F5DFD5D0808
:10034000D9007C733B006C12CC3200139D3200D07C
:10035000D632000800400001F4FFE6807902000078
:10036000000000D0D600002710FB00000040000075
:10037000000000000000000000000000010000007C
:100380000000000100010000000000FA36FFBC3050
:100390008E0005FBF0FFD95BC8FFD09ABE000010AD
:1003A000A9FFF41EB200CEBBF70000000100000060
:1003B00004000200020200000CFFC2800000018065
:1003C0000000CF800040000000000000010000009D
:1003D0000000000600000000140000000000000003
:1003E000000000000000000000000000000000000D
:1003F00000000000000000000000000000000000FD
:1004000000000000000000000000000000033F6842
:10041000B6793528BCC67ED16C8000000040000053
:10042000000000B26A0000000000000000000000B0
:100430000000003FF000000030000000000000005D
:1004400000000000000000000000000000000000AC
:100450000000000000000000000000254D002F708B
:100460006D000005AE000C02D00000000000650029
:1004700054FFEF00000000000000000100004400F5
:100480000000000C000000010000000000006500FA
:100490000000540000FFEF0000000000000000001A
:1004A000000000000000000000400000000000000C
:1004B00000000000000000000040000000000000FC
:1004C000000000000000000000000000010000002B
:1004D000020000000000000000000000000000001A
:1004E000000000000000000000000000000000000C
:1004F000000000000000000000001B0000000000E1
:1005000000000000000000000000000000000000EB
:1005100000000000000000000000000000000000DB
:10052000000000000040000000001B000000000070
:1005300000000000000000000000000000000000BB
:1005400000000000000000000000000000000000AB
:10055000000000000000000000000000000000009B
:10056000000000000000000000D8DCBAA2F1DEB2FA
:10057000B8B4A88191F74A907F916AF3F9DBA8F9A2
:10058000B0BAA080F2CE81F3C2F1C1F2C3F3CCA223
:10059000B280F1C6D880BAA7DFDFDFF2A7C3CBC530
:1005A000B6F087A2942448703C95406834589B78F4
:1005B000A2F183922D557DD8B1B4B8A1D09180F22B
:1005C00070F370F27C80A8F101B09887D943D88687
:1005D000C988BAA1F20EB89780F1A9DFDFDFAADFE0
:1005E000DFDFF2AAC5CDC7A90CC92C97979797F161
:1005F000A989264666B0B4BA80ACDEF2CAF1B28CE4
:1006000002A9B69800890E161EB8A9B4992C547C7C
:10061000B08AA896365676F1B9AFB4B083C0B8A800
:100620009711B18F98B9AFF0240844106418F1A362
:1006300029557DAF83B593AFF0002850F1A3869F75
:1006400061A6DADEDFD9FAA38696DB31A6D9F8DF18
:10065000BAA68FC2C5C7B28CC1B8A2DFDFDFA3DFE5
:10066000DFDFD8D8F1B8A8B286B4980D355DB8AA46
:1006700098B0872D353DB2B6BAAF8C96198F9FA72B
:100680000E161EB49AB8AA872C547CB9A3DEDFDFFD
:10069000A3B180F2C4CDC9F1B8A9B499830D355D79
:1006A00089B9A32D557DB593A30E161EA92C547C94
:1006B000B8B4B0F19783A81184A50998A383F0DAA0
:1006C000240844106418D8F1A529557DA585950204
:1006D0001A2E3A565A4048F9F3A3D9F8F0988324D1
:1006E00008441064189782A8F111F098A2240844D5
:1006F000106418DAF3DED883A59401D9A302F1A21D
:10070000C3C5C7D8F18492A24DDA2AD84869D92A3C
:10071000D86855DA32D85071D932D8705DDA3AD803
:100720005879D93AD87893A34DDA2AD84869D92A82
:10073000D86855DA32D85071D932D8705DDA3AD8E3
:100740005879D93AD878A88A9AF02850789EF388B0
:1007500018F19F1D98A8D908D8C89F129EF315A814
:10076000DA1210D8F1AFC8978734B5B994A421F341
:10077000D922D8F22DF3D92AD8F235F3D932D8813B
:10078000A4606061D961D86C6869D969D8747071E6
:10079000D971D8B1A384193D5DA3831A3E5E93102D
:1007A00030811011B8B0AF8F94F2DA3ED8B49AA865
:1007B0008729DAF8D8879A35DAF8D8879A3DDAF8AF
:1007C000D8B1B9A49885022E56A581000C14A39720
:1007D000B08AF12DD928D84DD948D86DD968D8B16B
:1007E000840DDA0ED8A32983DA2C0ED8A38449838A
:1007F000DA2C4C0ED8B8B0A88A9AF520AADADFD83D
:10080000A840AAD0DADED8A860AADAD0DFD8F1975B
:1008100086A8319B069907AB9728889BF00C20147B
:1008200040B8B0B4A88C9CF0042851791D3014381D
:10083000B282ABD0982C505078789BF11AB0F08AE5
:100840009CA82951798B2951798A2470598B205879
:10085000718A4469388B3940688A6448318B3049E1
:1008600060A588200971584468113964493019F12C
:10087000AC002C547CF08CA804285078F188972682
:10088000A85998AC8C02264666F0899CA829517913
:10089000247059446938644831A98809205970ABDB
:1008A00011384069A8193148608CA83C415C207C13
:1008B00000F187981986A86E767EA999882D557DB6
:1008C0009EB9A38A228A6E8A568A5E9FB1830626C3
:1008D00046660E2E4E6E9DB8AD002C547CF2B18C47
:1008E000B499B9A32D557D8191AC38AD3AB58391BA
:1008F000AC2DD928D84DD948D86DD968D88C9DAEA3
:1009000029D904AED851D904AED879D904D881F305
:100910009DAD008DAE1981ADD901D8F2AEDA26D8E1
:100920008E912983A7D9ADADADADF32AD8D8F1B05A
:10093000AC89913E5E76F3AC2E2EF1B18C5A9CAC14
:100940002C2828289CAC3018A8988128343C97245F
:10095000A728343C9C24F2B089AC912C4C6C8A9B27
:100960002DD9D8D851D9D8D879D9D8D8F19E88A33B
:1009700031DAD8D8912DD928D84DD948D86DD96831
:10098000D8B18393353D8025DAD8D88569DAD8D8AF
:10099000B49381A328343CF3AB8BF8A391B609B48C
:1009A000D9ABDEFAB0879CB9A3DDF1A3A3A3A395CD
:1009B000F1A3A3A39DF1A3A3A3A3F2A3B49080F2F8
:1009C000A3A3A3A3A3A3A3A3A3A3B2A3A3A3A3A3E8
:1009D000A3B087B599F1A3A3A398F1A3A3A3A39769
:1009E000A3A3A3A3F39BA3A3DCB9A7F1262626D830
:1009F000D8FF2900444D5020496E697469616C69C3
:100A00007A6174696F6E206661696C656420286321
:100A10006F64652000444D50207265616479212027
:100A200057616974696E6720666F722066697273B8
:100A30007420696E746572727570742E2E2E004566
:100A40006E61626C696E6720696E74657272757032
:100A50007420646574656374696F6E2028417264E4
:100A600075696E6F2065787465726E616C20696E51
:100A7000746572727570742030292E2E2E00456EAA
:100A800061626C696E6720444D502E2E2E004D50D1
:100A9000553630353020636F6E6E656374696F6EE6
:100AA000206661696C6564004D50553630353020E4
:100AB000636F6E6E656374696F6E207375636365D3
:100AC000737366756C00496E697469616C697A69E3
:100AD0006E6720444D502E2E2E004D505520696ECD
:100AE000697469616C697A65642E2E2E00496E699D
:100AF0007469616C697A696E672049324320646564
:100B000076696365732E2E2E004649464F206F7618
:100B10006572666C6F772100080B0002020201000B
:100B20000904000001020200000524001001052450
:100B300001010104240206052406000107058103C2
:100B400010004009040100020A000000070502022B
:100B5000400000070583024000000403090412015D
:100B60000002EF020140412336800001010203012F
:100B700041726475696E6F204C4C4300417264751C
:100B8000696E6F204C656F6E6172646F00000000CB
:100B900000240027002A002D00300000000000255E
:100BA0000028002B002E0031000404040404030478
:100BB00005020202020403020202020606060606FB
:100BC00006040402020204040408020110408040EA
:100BD0001020408040800802040180402010020163
:100BE000108010204040200000000200090F00008B
:100BF000030401000C0000000000000000000000E1
:100C0000000000000000BD1EB91E11241FBECFEF62
:100C1000DAE0DEBFCDBF11E0A0E0B1E0E2E5FDE447
:100C200002C005900D92A238B107D9F723E0A2E8DF
:100C3000B1E001C01D92A03AB207E1F716E0C4E0AE
:100C4000D6E004C02197FE010E944D24C330D10795
:100C5000C9F70E94B3140C949C260C9400000895CC
:100C6000409144025091450220914202309143024A
:100C700042175307B4F49091E8009570E1F3909116
:100C8000E80092FD19C08093F10080914402909198
:100C9000450201968F739927892B19F48EEF809363
:100CA000E80080914402909145020196909345029C
:100CB0008093440281E0089580E00895CF92DF920E
:100CC000EF92FF920F931F93CF93DF931F92CDB7B5
:100CD000DEB7182F062FE42E862F880F8E5F99839C
:100CE0000E94300683E00E943006F12EC12E9981C9
:100CF000D92E8C2D8F19801798F4F601E7FE02C0CB
:100D0000849101C080810E943006182F80E00E94EB
:100D100030068123FFEFCF1ADF0A8111EACF01C02D
:100D200081E00F90DF91CF911F910F91FF90EF9095
:100D3000DF90CF900895DF92EF92FF920F931F9371
:100D4000CF93DF93D82E8A017B01E40EF51EEB01D1
:100D5000CE15DF0571F0D7FE03C0FE01849101C0FE
:100D600088810E94300621968111F2CF8FEF9FEF8C
:100D700001C0C801DF91CF911F910F91FF90EF90BB
:100D8000DF900895615030F02091F100FC01208344
:100D90000196F8CF289884E6809347020895CF9271
:100DA000DF92EF92FF920F931F93CF93DF936C012B
:100DB0007A018B01C0E0D0E0CE15DF0589F0D801C3
:100DC0006D918D01D601ED91FC910190F081E02DA6
:100DD000C6010995892B11F47E0102C02196ECCF42
:100DE000C701DF91CF911F910F91FF90EF90DF909E
:100DF000CF900895CF93DF931F92CDB7DEB769836D
:100E0000DC01ED91FC910280F381E02D41E050E0A6
:100E1000BE016F5F7F4F09950F90DF91CF910895CD
:100E200083E08093E9008091F200882319F08AE33F
:100E30008093E8000895FC018485958597FD0BC09B
:100E40009FB7F89482E08093E9008091F2009FBF01
:100E500090E0019608959FB7F89482E08093E900AE
:100E60008091F2009FBF90E008958091850190E00D
:100E700020918601821B910908950895E0918601D1
:100E800080918501E81730F4F0E0EE5DFD4F808140
:100E900090E008958FEF9FEF0895909186018091E3
:100EA0008501981750F4E92FF0E0EE5DFD4F2081A9
:100EB00030E09F5F9093860102C02FEF3FEFC901A2
:100EC0000895089580E090E0089585ED8093BC003A
:100ED0008091BC0084FDFCCF10926F020895409178
:100EE000FD01262F30E0240F311D21323105DCF4C5
:100EF00020916F022430C9F4FC0180E090E0861755
:100F000058F43091FD012191DC01A552BE4FA30F91
:100F1000B11D2C930196F3CF8091FD01680F609372
:100F2000FD0180E0089581E0089582E00895CF9268
:100F3000DF92EF92FF920F931F93CF93DF937C0189
:100F4000262F972F8A0180917002882391F0C62F57
:100F5000D72F6E01C40ED51ECC15DD0571F0699139
:100F6000D701ED91FC910190F081E02DC701099529
:100F7000F3CF642F822F0E946F07C801DF91CF91BA
:100F80001F910F91FF90EF90DF90CF900895CF9336
:100F9000DF931F92CDB7DEB76983209170022223C1
:100FA000D1F020919302203240F021E030E0FC01AA
:100FB0003383228380E090E015C080917102E82F96
:100FC000F0E0EE58FD4F998190838F5F809371021E
:100FD0008093930205C061E0CE0101960E946F07E5
:100FE00081E090E00F90DF91CF91089581E08093B0
:100FF000870108950E944A260F931F93CF93DF9392
:101000001F92CDB7DEB782E0898342E450E068E109
:101010007BE080E80E949B060E945713DC01129639
:101020000D911C9113970115110569F0D801ED91EF
:10103000FC910280F381E02DBE016F5F7F4FC801FC
:10104000099597FF07C089810F90DF91CF911F917C
:101050000F910895F80100851185E5CF8F929F9239
:10106000AF92BF92CF92DF92EF92FF920F931F93B6
:10107000CF93DF935C016B017A0180911501882386
:1010800009F45BC080914802882309F456C080911E
:10109000830180FF05C08091E00082608093E000C2
:1010A000E70110E00AEF83E0882E9AE3992E20975B
:1010B000D9F10E94461381110AC0015009F43DC0C4
:1010C00061E070E080E090E00E940A14F0CF282FE9
:1010D00030E0C217D3070CF48C2F4FB7F8948092EE
:1010E000E9009091E80095FF1DC0282F30E0C21B59
:1010F000D30BF601982F915020F081918093F1004D
:10110000FACFC20ED31E112319F09092E80009C045
:101110008091E80085FD06C09092E80011E02097DC
:1011200009F010E04FBFC3CF1111C3CF5D9884E623
:10113000809346021E141F0444F081E090E0F50104
:101140009383828380E090E001C0C701DF91CF915B
:101150001F910F91FF90EF90DF90CF90BF90AF90D5
:101160009F908F9008950E94461390E00895CF932A
:10117000DF931F92CDB7DEB7FC018485958597FD7F
:1011800005C02FEF3FEF358724870BC0CE010196B6
:101190000E941C13019719F4898190E002C08FEF1F
:1011A0009FEF0F90DF91CF9108950F931F93CF93EF
:1011B000DF931F92CDB7DEB78C01FC018485958546
:1011C00097FF0EC0CE0101960E941C13019719F4DF
:1011D000298130E002C02FEF3FEFF80135872487E7
:1011E000F801848595850F90DF91CF911F910F9124
:1011F00008950C94E8240C94E824CF93DF93FC0129
:10120000268137812115310529F161E02130310531
:1012100009F060E0EC01888568278A810E946B13E1
:1012200060E08C810E946B13000000000000000051
:1012300000000000000000000000000000000000AE
:10124000000000000000000061E08C81DF91CF9180
:101250000C946B13DF91CF91089597FF03C0919584
:10126000819591098F3F910519F014F08FEF90E06F
:101270006FEF70E0681B790B072E000C880B990B41
:101280000E942E2120E030E04CE452E40E948420B1
:1012900020E030E040E85FE30E94A11F9B01AC0129
:1012A00060E070E080E090E40E947F2220E030E087
:1012B0004AE754E40E94122220E030E040E85DE377
:1012C0000E9412220E94F62008951F920F920FB6DC
:1012D0000F9211242F933F934F935F936F937F93BC
:1012E0008F939F93AF93BF93EF93FF93E091080188
:1012F000F09109010995FF91EF91BF91AF919F91F5
:101300008F917F916F915F914F913F912F910F90AE
:101310000FBE0F901F9018951F920F920FB60F924D
:1013200011242F933F934F935F936F937F938F93EA
:101330009F93AF93BF93EF93FF93E0910601F091DA
:1013400007010995FF91EF91BF91AF919F918F9107
:101350007F916F915F914F913F912F910F900FBEB1
:101360000F901F9018951F920F920FB60F92112495
:101370002F933F934F935F936F937F938F939F939D
:10138000AF93BF93EF93FF93E0910401F0910501B8
:101390000995FF91EF91BF91AF919F918F917F91AF
:1013A0006F915F914F913F912F910F900FBE0F90D2
:1013B0001F9018951F920F920FB60F9211242F9322
:1013C0003F934F935F936F937F938F939F93AF93CD
:1013D000BF93EF93FF93E0910201F0910301099510
:1013E000FF91EF91BF91AF919F918F917F916F91FD
:1013F0005F914F913F912F910F900FBE0F901F90D3
:1014000018951F920F920FB60F9211242F933F93AE
:101410004F935F936F937F938F939F93AF93BF93FC
:10142000EF93FF93E0910001F09101010995FF9185
:10143000EF91BF91AF919F918F917F916F915F914C
:101440004F913F912F910F900FBE0F901F901895C5
:101450001F920F920FB60F9211248F939F9380913A
:10146000E1009091E100937F9093E10083FF0FC032
:101470001092E90091E09093EB001092EC0092E35F
:101480009093ED001092480298E09093F00082FF54
:1014900020C093E09093E9009091F200992319F015
:1014A0009AE39093E80090914602992339F0909145
:1014B0004602915090934602992389F190914702F8
:1014C000992339F0909147029150909347029923C4
:1014D00041F184FF10C08091E2008E7E8160809394
:1014E000E2008091E1008F7E8093E1008091830192
:1014F0008E7E806111C080FF16C08091E2008E7EDA
:1015000080618093E2008091E1008E7E8093E10013
:10151000809183018E7E81608093830104C05D9AF7
:10152000CDCF289AD6CF9F918F910F900FBE0F905D
:101530001F9018951F920F920FB60F921124CF9201
:10154000DF92EF92FF920F931F932F933F934F934E
:101550005F936F937F938F939F93AF93BF93EF931B
:10156000FF93CF93DF93CDB7DEB76C97DEBFCDBFD0
:101570001092E9008091E80083FFEDC168E0CE01A0
:1015800045960E94C20682EF8093E8008D8987FF0E
:1015900005C09091E80090FFFCCF03C09EEF9093B0
:1015A000E800982F907609F0C6C09E892F89188D83
:1015B00091110CC0803829F4809184018093F1004E
:1015C00002C01092F1001092F10048C1422F50E089
:1015D000512B913051F4811141C14130510509F035
:1015E0003DC1809184018D7F0BC0933061F48111E6
:1015F00035C14130510509F031C1809184018260CB
:10160000809384012BC1953041F48091E80080FFE4
:10161000FCCF20682093E30021C1963009F05FC021
:10162000EB8CFC8C1092E90010924502109244025F
:10163000123091F510924302109242020E94FC0770
:1016400099E0BE016F5F7F4FDB01E92F1D92EA95A4
:10165000E9F799831A8391E09E8390EA98879AEF3D
:1016600099872091440230914502275F3F4F3C8388
:101670002B838D831092E900109245021092440250
:10168000F0924302E092420249E050E080E00E9482
:101690009B060E94FC07E2C0F0924302E0924202E5
:1016A0000E945713DC011296ED90FC901397E11401
:1016B000F10409F4C0C0D701ED91FC910480F581DB
:1016C000E02DBE016B5E7F4FC7010995009719F0B1
:1016D0000CF0C4C0C7C0F701E084F184E8CF9730B4
:1016E00009F4C0C0983021F481E08093F100B6C0C5
:1016F000993009F0B3C0837009F0B4C0EDE1F1E0B6
:1017000081E021E036E39081992361F08093E90044
:101710002093EB0091919093EC003093ED008F5F5C
:10172000873089F78EE78093EA001092EA008F896C
:101730008093480293C08B8D9C8D1092E90010928B
:101740004502109244029093430280934202898D95
:10175000811156C08E899D89913A59F4813209F0E0
:1017600081C047E050E06EE071E080E00E949B069F
:1017700075C0913209F076C0833289F4888D90E08B
:10178000982F88272F89822BA0E0B0E080930A0150
:1017900090930B01A0930C01B0930D015FC08032B8
:1017A00069F48091E80082FFFCCF67E08EE091E071
:1017B0000E94C2068BEF8093E80006C0823209F0D7
:1017C0004DC08F898093150180918201882319F083
:1017D000EEEFFAE002C0E0E0F8E080910E019091B7
:1017E0000F01A0911001B0911101803B9440A1051F
:1017F000B10509F07BC08091150180FF93C076C0D0
:101800000E945713DC0112960D911C91139701153C
:10181000110541F1D801ED91FC910190F081E02D8D
:10182000BE016B5E7F4FC8010995811117C0F80199
:1018300000851185ECCF113009F44EC0133091F4BE
:101840008F89882309F445C0823081F440E860E143
:101850008CE79BE00E945E06882321F08EEF809348
:10186000E80079C081E28093EB0075C0813029F4F3
:1018700040E86BE080E79BE0EDCF833099F70E9472
:101880005713DC011296ED90FC9013978E010F5FB9
:101890001F4F6801E114F10479F0D701ED91FC913B
:1018A0000680F781E02DB801C7010995080F111DC9
:1018B000F701E084F184EECFD8011C92F60101908B
:1018C0000020E9F73197BF016C197D0940E0C6019E
:1018D000C1CF6AE57BE002C06EE57BE06115710572
:1018E00009F2FB01449150E080E840CF0FB6F89434
:1018F000A8958091600088618093600010926000DC
:101900000FBEA895EE3F2AE0F20739F08091FE0A5B
:101910009091FF0A91838083A1CF1092FF0A1092C9
:10192000FE0A9CCFEE3F8AE0F80731F0808191817A
:101930009093FF0A8093FE0A87E797E7918380835D
:101940009BE088E10FB6F894A895809360000FBEE5
:101950009093600083CF6C960FB6F894DEBF0FBEF5
:10196000CDBFDF91CF91FF91EF91BF91AF919F914B
:101970008F917F916F915F914F913F912F911F9127
:101980000F91FF90EF90DF90CF900F900FBE0F90D0
:101990001F901895EF92FF920F931F93CF93DF93B1
:1019A00000D0CDB7DEB7142F91E0909370028093F2
:1019B0009202109271021092930284EE92E02983B7
:1019C0003A830E94C7072981022FE22E3A81F32E23
:1019D0008E2D801B811740F4F70161917F0184EE09
:1019E00092E00E94C707F4CF0E94F71091E08111A6
:1019F00090E0892F0F900F90DF91CF911F910F9161
:101A0000FF90EF900895CF93DF931F92CDB7DEB78D
:101A100049839E012F5F3F4F41E00E94CA0C0F9007
:101A2000DF91CF9108952F923F924F925F926F92E4
:101A30007F928F929F92AF92BF92CF92DF92EF925E
:101A4000FF920F931F93CF93DF93CDB7DEB7279706
:101A50000FB6F894DEBF0FBECDBF8F83962E742FC6
:101A600059018FB7F894C0909303D0909403E090FD
:101A70009503F09096038FBF5F81550F5B83812C98
:101A8000312C2224239450E05D834C832801612C67
:101A9000712C871608F0A4C0209270025F815093C9
:101AA00092021092710210929302692D84EE92E0DC
:101AB0007E830E94C7070E94F710209270025F8108
:101AC0005093920210927102109293027E81809143
:101AD0006F028111FCCF2C813D81281931092132FF
:101AE000310514F020E230E0213208F020E22092AB
:101AF0006F0220926E028FEF80936D0210926C0243
:101B0000820F80936B0220924A0280914A024B819D
:101B1000842B80934A0280914902813071F41092A3
:101B2000490280914A028093BB008091BC0083FDF2
:101B3000F8CF55EC5093BC0003C085EE8093BC00F9
:101B400080916F028130E1F380916C02821710F472
:101B500020916C02ABE4B2E0E2E2F2E08E2F42E2CE
:101B600052E0841B821718F48D918193F7CF109265
:101B700086012093850190918501809186019817B7
:101B800049F10115110591F4A501430D511D37FCD3
:101B90005A955A83498384EE92E07E830E944D07D2
:101BA000E981FA81808333947E81E5CF2FB7F89461
:101BB0008091930390919403A0919503B091960323
:101BC0002FBF8C199D09AE09BF0984159505A6057F
:101BD000B705D0F2872F713208F080E2880E59CF16
:101BE0000115110509F12FB7F89480919303909195
:101BF0009403A0919503B09196032FBF8C199D0972
:101C0000AE09BF0920E030E080179107A207B307B3
:101C100058F0272F30E0832D032C000C990B8217EE
:101C2000930714F433243A94832D27960FB6F8942F
:101C3000DEBF0FBECDBFDF91CF911F910F91FF90FF
:101C4000EF90DF90CF90BF90AF909F908F907F905C
:101C50006F905F904F903F902F900895BF92CF92DA
:101C6000DF92EF92FF920F931F93CF93DF931F9218
:101C7000CDB7DEB7F82EE62EC42EB22ED02E08EE4B
:101C800013E09E012F5F3F4F41E00E94130D882318
:101C900021F1EC2DF0E0EB19F109319621E030E073
:101CA00002C0220F331FBA94E2F7215031090E2EE1
:101CB00001C0220F0A94EAF78D2D01C0880FEA9522
:101CC000EAF7422F4095998149232823422B4983E3
:101CD0006E2D8F2D0E94030D01C080E00F90DF91CB
:101CE000CF911F910F91FF90EF90DF90CF90BF9019
:101CF0000895CF92DF92EF92FF920F931F93CF93AD
:101D0000DF931F92CDB7DEB7F82EE62ED42EC22E6B
:101D100008EE13E09E012F5F3F4F41E00E94130D3C
:101D20009981CC2041F041E050E001C0440FDA94A9
:101D3000EAF7492B09C021E030E0A90101C0440FB6
:101D4000DA94EAF74095492349836E2D8F2D0E943E
:101D5000030D0F90DF91CF911F910F91FF90EF90A6
:101D6000DF90CF9008951F920F920FB60F9211241B
:101D70002F933F934F935F936F937F938F939F9393
:101D8000AF93BF93EF93FF938091B900887F803624
:101D900009F49CC068F5883209F45BC090F4803186
:101DA00009F454C038F4882309F4F6C0883009F4E3
:101DB0004DC0F6C0883109F44CC0803209F45DC0D2
:101DC000EFC0803409F468C048F4803309F455C08A
:101DD000883309F0E5C080936D02D8C0803509F4DE
:101DE0004FC0883509F45DC0883409F0D9C0D6C029
:101DF000883909F4C7C0A8F4883709F467C038F4F3
:101E0000883609F463C0803709F460C0C9C08838D7
:101E100009F4B8C0803909F45FC0803809F0C0C047
:101E20005BC0803B09F486C038F4803A09F466C090
:101E3000883A09F47FC0B4C0803C09F4A7C0883C4C
:101E400009F4A4C0883B09F48AC0AAC080914A0260
:101E500010C090916C0280916B02981770F5E09120
:101E60006C0281E08E0F80936C02F0E0E55BFD4F29
:101E700080818093BB0085EC86C080936D028EC00C
:101E8000E0916C0281E08E0F80936C028091BB0028
:101E9000F0E0E55BFD4F808390916C0280916B02D6
:101EA0006EC0E0916C0281E08E0F80936C02809195
:101EB000BB00F0E0E55BFD4F808380916E028111F5
:101EC0006DC081E08093490284EA61C083E0809321
:101ED0006F0210922102CFCF80912102803208F050
:101EE00051C0E091210281E08E0F80932102809108
:101EF000BB00F0E0EF5FFD4F8083BDCF85EC8093AA
:101F0000BC0010926F0280912102803230F4E09187
:101F10002102F0E0EF5FFD4F10826091210270E03E
:101F2000E091FF01F091000281E092E009951092AA
:101F3000210236C084E080936F021092FE0110925D
:101F4000FD01E091FB01F091FC0109958091FD01FB
:101F5000811105C081E08093FD011092DB01E091C9
:101F6000FE0181E08E0F8093FE01F0E0E552FE4F0E
:101F700080818093BB009091FE018091FD019817B4
:101F800008F479CF85E88093BC000AC085EC809383
:101F9000BC0010926F0204C010926D020E9465078F
:101FA000FF91EF91BF91AF919F918F917F916F9131
:101FB0005F914F913F912F910F900FBE0F901F9007
:101FC0001895CB01181619062CF0009731F420E073
:101FD00030E005C021E030E002C022E030E0309384
:101FE000F7022093F6020E942D09709399006093E6
:101FF00098002091940030919500809198009091E4
:1020000099008217930720F4109295001092940083
:102010000895CB01181619062CF0009731F420E032
:1020200030E005C021E030E002C022E030E0309333
:1020300000032093FF020E942D0970938900609392
:1020400088002091840030918500809188009091D3
:1020500089008217930720F4109285001092840063
:102060000895CF93DF93EC018DE491E09983888309
:1020700081E791E00E94E91061E088E00E946B1323
:1020800060E070E0CE010E94091060E070E0CE01D7
:10209000DF91CF910C94E10FCF93DF93EC010E947D
:1020A0003110CE01DF91CF910C94E8242DE531E081
:1020B000FC013183208344960C943110CF93DF933D
:1020C000EC010E945610CE01DF91CF910C94E824D0
:1020D0001F920F920FB60F9211242F933F934F939D
:1020E0005F936F937F938F939F93AF93BF93EF9380
:1020F000FF9380EF92E00E94FD08FF91EF91BF9166
:10210000AF919F918F917F916F915F914F913F918F
:102110002F910F900FBE0F901F9018951F920F9246
:102120000FB60F9211242F933F934F935F936F93AA
:102130007F938F939F93AF93BF93EF93FF9389EF19
:1021400092E00E94FD08FF91EF91BF91AF919F91A6
:102150008F917F916F915F914F913F912F910F9050
:102160000FBE0F901F90189508950895CF93DF9399
:10217000EC01092E000CAA0BBB0B80934203909339
:102180004303A0934403B0934503BE0186E193E06B
:102190000E940910BE0186E193E0DF91CF910C947B
:1021A000E10FBC01009791F0FC0101900020E9F7DC
:1021B0003197AF01481B590BE0919402F0919502C1
:1021C0000280F381E02D84E992E0099480E090E0C0
:1021D0000895CF93DF930E94D110EC018FE791E037
:1021E0000E94D1108C0F9D1FDF91CF9108952091F7
:1021F000930290919202213208F04AC080916F02BE
:102200008111FCCF32E030936F0231E030936E02E7
:102210003FEF30936D0210926C0220936B02A2E7A5
:10222000B2E04BE452E0FA013E2F341B321718F4AF
:102230003D913193F9CF10924A0220914A02990FB1
:10224000922B90934A0290914902913061F410923E
:10225000490290914A029093BB009091BC0093FD7B
:10226000F8CF95EC01C095EE9093BC0090916F0271
:102270009230E1F390916D029F3F79F080916D0271
:10228000803241F080916D02803331F084E005C0EE
:1022900081E003C082E001C083E0109271021092DD
:1022A00093021092700208950F931F93CF93DF93C0
:1022B000C2E6D3E008EE13E023E633E041E06AE350
:1022C00088810E94130D8981DF91CF911F910F9119
:1022D000089521E042E06AE6809162030C94790E51
:1022E000482F6EE6809162030C94030D2F923F926B
:1022F0004F925F926F927F928F929F92AF92BF9216
:10230000CF92DF92EF92FF920F931F93CF93DF93C1
:102310003C015B01342ED22F202E4F716DE680914F
:1023200062030E94030D8D2F0E94701180E190E0E6
:102330000E9453246C01002339F080E190E00E9458
:102340005324C82F492E02C0C0E0412CE12CF12CAF
:10235000EA14FB0408F06EC0C7014096A816B9063F
:1023600018F45A2C5E1802C080E1582E852D90E09A
:1023700020E031E02D1B31092817390714F45D2EB8
:102380005194F301EE0DFF1D222059F09C2FAC2F2C
:10239000B42D8A2F891B851530F484918D93319645
:1023A000F8CFCE2F4F2E2C2F342D452D6FE6809158
:1023B00062030E94CA0C852C912CC114D10429F10E
:1023C000432D4F716DE6809162030E94030D8D2FA6
:1023D0000E94701108EE13E09601452D6FE6809182
:1023E00062030E94130DA401B6018C2F942D0E944C
:1023F0004F26892B51F0C6010E94E824222021F1AA
:102400008C2F942D0E94E8241FC0E80CF91CD50DD8
:10241000EA14FB0408F09CCFD11101C03394432D82
:102420004F716DE6809162030E94030D8D2F0E9413
:1024300070118ECFC6010E94E824222039F08C2F23
:10244000942D0E94E82402C080E001C081E0DF9169
:10245000CF911F910F91FF90EF90DF90CF90BF90A1
:10246000AF909F908F907F906F905F904F903F9034
:102470002F9008950F931F93662351F0462F9C01D0
:1024800008EE13E064E7809162030E94130D02C01E
:10249000FC0110821F910F9108950F931F93CF930A
:1024A000DF93C2E6D3E008EE13E023E633E042E038
:1024B00062E788810E94130D898190E0982F882718
:1024C0002A81822BDF91CF911F910F910895EF9276
:1024D000FF920F931F93CF93DF931F92CDB7DEB779
:1024E0007A0189019E012F5F3F4F41E00E94130D49
:1024F000882339F029812E7730E035952795F7012B
:1025000020830F90DF91CF911F910F91FF90EF905B
:1025100008958F929F92AF92BF920F931F93CF9384
:10252000DF93CDB7DEB7A1970FB6F894DEBF0FBE2D
:10253000CDBF19A2423008F44AE08E010F5D1F4F53
:10254000842E912CA12CB12CA50194010E942B2446
:10255000E62FB901CA0101501109EA3014F4E05D17
:1025600001C0E95CD801EC93232B242B252B61F7C8
:10257000C8010E94D110A1960FB6F894DEBF0FBE1D
:10258000CDBFDF91CF911F910F91BF90AF909F90E2
:102590008F9008950F931F93CF93DF938C01C0E02A
:1025A000D0E0F801EC0FFD1F6491662371F0E0911B
:1025B0009402F09195020190F081E02D84E992E07F
:1025C0000995892B11F02196ECCFCE01DF91CF91A7
:1025D0001F910F910895CF93DF930E94CA12EC01CF
:1025E0008FE791E00E94D1108C0F9D1FDF91CF915A
:1025F0000895CF93DF93EA0191E090937002809366
:102600009202109271021092930284EE92E00E9464
:10261000C707698184EE92E00E94C707688184EE53
:1026200092E00E94C7070E94F71091E0811190E0AC
:10263000892FDF91CF910895FC018091480281118B
:1026400003C08FEF9FEF08959FB7F89482E08093C7
:10265000E9002091F20030E01216130614F421E094
:1026600030E02115310559F0289884E6809347021F
:102670008091F10080838091F200882319F09FBF40
:10268000C90108958BE68093E800F9CF2FB7F8943D
:1026900083E08093E9009091E800892F807295FF94
:1026A00004C09091F20080E4891B2FBF08958091AF
:1026B000790381110DC082E08093750384E08093DB
:1026C0007603109278031092770381E08093790368
:1026D00085E793E00895362F90E0FC01E951F44F2F
:1026E0004491FC01E853F44F2491FC01E755F44F69
:1026F0008491882309F451C04423E1F150E0FA01A8
:102700003197EF30F105B0F5EA5AFF4F0C944D24A4
:10271000909180009F7707C0909180009F7D03C0BB
:1027200090918000977F9093800024C094B59F770C
:1027300002C094B59F7D94BD1DC0909190009F777D
:1027400007C0909190009F7D03C090919000977F6B
:10275000909390000FC09091C0009F7703C090911C
:10276000C0009F7D9093C00005C09091C200977FEC
:102770009093C200E82FF0E0EE0FFF1FE556F44FF4
:10278000A591B4918FB7F894EC91311103C02095C5
:102790002E2301C02E2B2C938FBF0895CF93DF9350
:1027A00090E0FC01E853F44F2491FC01E755F44F0D
:1027B0008491882361F190E0880F991FFC01E35711
:1027C000F44FC591D491FC01E556F44FA591B49115
:1027D000611109C09FB7F89488812095822388836E
:1027E000EC912E230BC0623061F49FB7F8943881CE
:1027F000822F809583238883EC912E2B2C939FBF6F
:1028000006C08FB7F894E8812E2B28838FBFDF9105
:10281000CF9108958F929F92AF92BF92CF92DF9205
:10282000EF92FF926B017C010E9444144B015C010A
:10283000C114D104E104F104F1F00E944414DC015C
:10284000CB0188199909AA09BB09883E9340A105C3
:10285000B10570F321E0C21AD108E108F10888EE51
:10286000880E83E0981EA11CB11CC114D104E104A0
:10287000F10419F7DDCFFF90EF90DF90CF90BF907C
:10288000AF909F908F9008953FB7F89480919803F0
:1028900090919903A0919A03B0919B0326B5A89BB0
:1028A00005C02F3F19F00196A11DB11D3FBFBA2FE2
:1028B000A92F982F8827820F911DA11DB11DBC0142
:1028C000CD0142E0660F771F881F991F4A95D1F707
:1028D00008951F920F920FB60F9211242F933F93DA
:1028E0008F939F93AF93BF938091930390919403A1
:1028F000A0919503B09196033091970323E0230FA5
:102900002D3720F40196A11DB11D05C026E8230F27
:102910000296A11DB11D209397038093930390937A
:102920009403A0939503B09396038091980390919C
:102930009903A0919A03B0919B030196A11DB11D2B
:102940008093980390939903A0939A03B0939B0369
:10295000BF91AF919F918F913F912F910F900FBE9B
:102960000F901F901895CF93DF93CDB7DEB7CE5A57
:10297000D1090FB6F894DEBF0FBECDBF789484B5F1
:10298000826084BD84B5816084BD85B5826085BD6B
:1029900085B5816085BD80916E00816080936E00F9
:1029A00010928100809181008260809381008091EB
:1029B000810081608093810080918000816080939C
:1029C00080008091910082608093910080919100BD
:1029D000816080939100809190008160809390004D
:1029E0008091C10084608093C1008091C1008260A9
:1029F0008093C1008091C10081608093C10080916B
:102A0000C30081608093C3008091C0008260809386
:102A1000C0008091C20081608093C20080917A00E2
:102A2000846080937A0080917A00826080937A003B
:102A300080917A00816080937A0080917A0080682A
:102A400080937A00109248021092840110928301C0
:102A50008091D70081608093D70080EA8093D8006E
:102A600089B5806189BD89B5826089BD09B400FEE0
:102A7000FDCF61E070E080E090E00E940A14809158
:102A8000D8008F7C80618093D8008091E000807FA7
:102A90008093E0008091E1008E7E8093E1008DE0E4
:102AA0008093E200559A209AEEEFFFE7859194918A
:102AB0008B3F9C4D19F481E0809382011092860136
:102AC00010928501109271021092930210926F027F
:102AD00081E080936E021092490261E082E00E94E0
:102AE0006B1361E083E00E946B138091B9008E7FCD
:102AF0008093B9008091B9008D7F8093B90088E4FC
:102B00008093B80085E48093BC008CE08093B8008B
:102B10008FEF9FEF9093A1028093A00264EF71E08A
:102B200080E090E00E940A1489E691E00E94E9109A
:102B300061E088E00E94CE1361E089E00E94CE133C
:102B400061E08AE00E94CE1361E08BE00E94CE1328
:102B500061E08CE00E94CE1360E087E00E94CE131B
:102B60008DEE9AE00E94EB1201E023E042E06BE67A
:102B7000809162030E942E0E00E022E044E06BE1AF
:102B8000809162030E942E0E22E044E06CE180916D
:102B900062030E942E0E20E046E06BE68091620305
:102BA0000E94790E8AED9AE00E94EB1228EE33E043
:102BB00043E653E065E7809162030E9467128091CB
:102BC0006303843319F08EE89AE002C088EA9AE041
:102BD0000E94EB1286EC9AE00E94EB1221E047E0A3
:102BE0006BE6809162030E94790E6EE170E080E0F6
:102BF00090E00E940A1420E046E06BE680916203B8
:102C00000E94790E40E76DE6809162030E94030DF9
:102C100086E00E94701140E06DE6809162030E94A0
:102C2000030D28EE33E043E653E060E08091620359
:102C30000E9467128090630328EE33E043E653E07E
:102C400061E0809162030E9467129090630328EE16
:102C500033E043E653E062E0809162030E94671232
:102C6000A09063034FE765E2809162030E94030D29
:102C700020E045E06AE6809162030E94790E48E612
:102C800065E2809162030E94030D21E041E06AE663
:102C9000809162030E94790E64E170E080E090E030
:102CA0000E940A1401E020E040E069E877E089E64C
:102CB00092E00E947611882309F4CDC288E090E06A
:102CC0000E945324B82E192FE12CF12CF701E7555F
:102CD000FE4F4491F701E655FE4F2491670133E022
:102CE000C30ED11CF701E555FE4FE491EE23D1F15F
:102CF000EE2EF12CE330D8F0B7018B2D912FC25579
:102D0000DF4F2883CE5AD040C355DF4F4883CD5A7A
:102D1000D0400E948025B82E192FC355DF4F48811F
:102D2000CD5AD040C255DF4F2881CE5AD040AB2D6E
:102D3000B12F80E090E08E159F0548F4F601E80F72
:102D4000F91FE755FE4FE491ED930196F4CF00E0B3
:102D5000B7018B2D912F0E947611EC0CFD1C811177
:102D600017C010C044E0E40EF11CF601E755FE4F19
:102D7000E491E13039F442E368E3809162030E9418
:102D8000030D06C08B2D912F0E94E82412E064C22F
:102D900050ECE516F10408F499CF8B2D912F0E9489
:102DA000E82403E023E042E06BE6809162030E94A6
:102DB0002E0E42E168E3809162030E94030D44E01D
:102DC00069E1809162030E94030D01E023E045E088
:102DD0006AE1809162030E942E0E03E023E042E04C
:102DE0006AE1809162030E942E0E22E044E06BE1D2
:102DF000809162030E942E0E43E060E7809162039F
:102E00000E94030D40E061E7809162030E94030D80
:102E100020E040E060E0809162030E94790E082D7E
:102E200026E046E060E0809162030E942E0E092DAC
:102E300026E046E061E0809162030E942E0E0A2D9A
:102E400026E046E062E0809162030E942E0EE12CB3
:102E5000F12CF701E658FE4FE491A1E8B0E0AC0F89
:102E6000BD1FAE0DB11DEC9381E08E0D9FEFE91AF1
:102E7000F90AA3E0AE1568F7CD57DF4F6881C35854
:102E8000D04070E09B012E5F3F4F90E0281739073C
:102E900004F700E0CE57DF4F2881C258D040CF570B
:102EA000DF4F4881C158D04081E890E08C0F9D1FD2
:102EB00003960E94761180E0F701E658FE4FE491F8
:102EC000A1E8B0E0AC0FBD1FA80FB11DEC938F5F60
:102ED000BFEFEB1AFB0A843078F3CD57DF4F6881E0
:102EE000C358D04070E0AB014E5F5F4F282F30E0F9
:102EF000421753070CF700E0CE57DF4F2881C25826
:102F0000D040CF57DF4F4881C158D04081E890E092
:102F10008C0F9D1F03960E9476110E9469110E94DA
:102F20004D12682FCE0101960E943A1242E06FE1E5
:102F3000809162030E94030D4CE961E2809162037B
:102F40000E94030D40E560E2809162030E94030D40
:102F500040E062E2809162030E94030D0E946911C9
:102F600021E046E06AE6809162030E94790E21E04A
:102F700047E06AE6809162030E94790E21E043E017
:102F80006AE6809162030E94790E80E0F701E658BC
:102F9000FE4FE491A1E8B0E0AC0FBD1FA80FB11D3A
:102FA000EC938F5F2FEFE21AF20A843078F3CD575B
:102FB000DF4F6881C358D04070E0AB014E5F5F4F78
:102FC000282F30E0421753070CF700E0CE57DF4FB1
:102FD0002881C258D040CF57DF4F4881C158D040D8
:102FE00081E890E08C0F9D1F03960E94761180E08F
:102FF000F701E658FE4FE491A1E8B0E0AC0FBD1F29
:10300000A80FB11DEC938F5F3FEFE31AF30A8430F2
:1030100078F3CD57DF4F6881C358D04070E0AB01E3
:103020004E5F5F4F282F30E0421753070CF700E048
:10303000CE57DF4F2881C258D040CF57DF4F48814D
:10304000C158D04081E890E08C0F9D1F03960E94EC
:10305000761180E0F701E658FE4FE491A1E8B0E078
:10306000AC0FBD1FA80FB11DEC938F5F4FEFE41A9B
:10307000F40A843078F3CD57DF4F6881C358D040CD
:1030800070E0AB014E5F5F4F282F30E042175307CF
:103090000CF700E0CE57DF4F2881C258D040CF5701
:1030A000DF4F4881C158D04081E890E08C0F9D1FD0
:1030B00003960E9476110E944D1283309105D8F339
:1030C000682FCE0101960E943A1280E0F701E6587F
:1030D000FE4FE491A1E8B0E0AC0FBD1FA80FB11DF9
:1030E000EC938F5F5FEFE51AF50A843078F3CD57E4
:1030F000DF4F3880C358D040832C912CA4014E5F01
:103100005F4F282F30E04217530704F7CE57DF4FA9
:10311000B880C258D040CF57DF4F2880C158D04028
:10312000422D4F716DE6809162030E94030D8B2D3D
:103130000E947011C12CD12C612C7724739461E80A
:10314000462E512C4C0E5D1E83E0480E511CC814B7
:10315000D90498F5C60140968816990618F4A32C50
:10316000AC1802C040E1A42E8A2D90E093012B19E7
:1031700031092817390714F4AB2CA19492012C0DB6
:103180003D1D08EE13E04A2D6FE6809162030E9418
:10319000130DCA0CD11CBA0CC814D904C0F6B11056
:1031A00001C02394422D4F716DE6809162030E940D
:1031B000030D8B2D0E947011CACF0E944D128330D7
:1031C0009105D8F3682FCE0101960E943A12F701BB
:1031D000E658FE4F80E09491A1E8B0E0AC0FBD1F2F
:1031E000A80FB11D9C938F5F843010F43196F3CFFC
:1031F000CD57DF4F6881C358D04070E0AB014E5FC0
:103200005F4F282F30E04217530784F700E0CE5776
:10321000DF4F2881C258D040CF57DF4F4881C15877
:10322000D04081E890E08C0F9D1F03960E9476119C
:1032300020E047E06AE6809162030E94790E8AE20C
:1032400090E090936503809364030E9469110E944B
:10325000541110E001C011E01093880180916203C5
:103260002CED30E0CD56DF4F39832883C359D04051
:10327000AE014D565F4F63E10E94F91280916203E7
:103280002CE430E0CF56DF4F39832883C159D0403A
:10329000AE014F565F4F65E10E94F91280916203C3
:1032A0002BEA3FEFCF57DF4F39832883C158D040F7
:1032B000AE014F575F4F67E10E94F91280916203A0
:1032C0002CEF36E03A832983AE014F5F5F4F6AE00F
:1032D0000E94F91211112FC08EE79AE00E94EB12A2
:1032E00021E047E06AE6809162030E94790E8FE355
:1032F0009AE00E94EB1286EF97E090930901809389
:10330000080180916A00806380936A00EE9A0E94AF
:1033100054118093D50185E19AE00E94EB1281E07F
:103320008093DA0180916403909165039093D701B3
:103330008093D60110C084EF99E00E94CA12609178
:10334000880170E080E090E04AE00E94891282EFFC
:1033500099E00E94EB1261E08091FB020E94CE1383
:1033600061E08091FD020E94CE1310920003109242
:10337000FF0261E08091F2020E94CE1361E0809131
:10338000F4020E94CE131092F7021092F60281E727
:1033900091E00E94E91061E088E00E946B1360E018
:1033A00070E086E193E00E94091060E070E086E141
:1033B00093E00E94E10FF894109280001092810037
:1033C000109285001092840028EE33E0309389003B
:1033D0002093880080918100886080938100809193
:1033E000810084608093810080916F00826080936F
:1033F0006F00109290001092910010929500109220
:1034000094003093990020939800809191008860F7
:1034100080939100809191008460809391008091CD
:10342000710082608093710078948091180390916C
:103430001903A0911A03B0911B0380932A03909360
:103440002B03A0932C03B0932D0380911C03909128
:103450001D03A0911E03B0911F0380932E03909330
:103460002F03A0933003B0933103809120039091F8
:103470002103A0912203B091230380933203909300
:103480003303A0933403B093350304E010E084E6E3
:1034900090E00E94B61062E370E080E090E00E944D
:1034A0000A148CE99FEF0E94B6106EE170E080E094
:1034B00090E00E940A140150110949F780E090E061
:1034C0000E94B6100E94441460933E0370933F0321
:1034D000809340039093410381E791E00E94E910BB
:1034E00060E088E00E946B1300E010E08091DA0158
:1034F000882339F12091D8013091D9018091D601EA
:103500009091D70140918701411103C028173907D5
:10351000C8F3109287010E945411F82E8093D501B0
:103520000E944D129093D9018093D801F4FC03C0FE
:103530008115944061F40E94691189E09BE00E942A
:10354000EB120115110591F20E940000CFCFF1FEA0
:10355000F8CFE090D801F090D901C090D601D0907A
:10356000D701EC14FD0438F40E944D129093D90158
:103570008093D801EECF6C2D85E991E00E943A123C
:10358000EC18FD08F092D901E092D8016090990101
:10359000712C762C662480919A01682AC0909D0136
:1035A000D12CDC2CCC2480919E01C82AE090A10172
:1035B000F12CFE2CEE248091A201E82A6091950165
:1035C00070E0762F662780919601682B072E000CFD
:1035D000880B990B0E942E2120E030E040E858E350
:1035E0000E9412224B015C016093520370935303BB
:1035F0008093540390935503B301770C880B990B78
:103600000E942E2120E030E040E858E30E94122280
:103610002B013C016093560370935703809358032A
:1036200090935903B601DD0C880B990B0E942E2153
:1036300020E030E040E858E30E941222CB56DF4FF2
:10364000688379838A839B83C559D04060935A03EA
:1036500070935B0380935C0390935D03B701FF0C51
:10366000880B990B0E942E2120E030E040E858E3BF
:103670000E941222C756DF4F688379838A839B8317
:10368000C959D04060935E0370935F0380936003D9
:10369000909361039B01AC01C301B2010E9412220D
:1036A0006B017C01CB56DF4F288139814A815B81D8
:1036B000C559D040C501B4010E9412229B01AC0142
:1036C000C701B6010E94A01F9B01AC010E94A11F6F
:1036D000C356DF4F688379838A839B83CD59D0405B
:1036E0006093460370934703809348039093490384
:1036F000A3019201C501B4010E9412226B017C0159
:10370000C756DF4F288139814A815B81C959D04032
:10371000CB56DF4F688179818A819B81C559D04022
:103720000E9412229B01AC01C701B6010E94A11F99
:103730009B01AC010E94A11FCF55DF4F68837983A5
:103740008A839B83C15AD04060934A0370934B0392
:1037500080934C0390934D03A5019401C501B401DE
:103760000E9412226B017C01A3019201C301B201EC
:103770000E9412229B01AC01C701B6010E94A01F4A
:103780006B017C01CB56DF4F288139814A815B81F7
:10379000C559D040CA01B9010E9412229B01AC0157
:1037A000C701B6010E94A01F6B017C01C756DF4F05
:1037B000288139814A815B81C959D040CA01B90148
:1037C0000E9412229B01AC01C701B6010E94A11FF9
:1037D0006B017C0160934E0370934F038093500301
:1037E00090935103A5019401C501B4010E94A11F4A
:1037F000CB55DF4F688379838A839B83C55AD0403A
:10380000A3019201C301B2010E94A11FC755DF4F5E
:10381000688379838A839B83C95AD040A501940128
:10382000CB55DF4F688179818A819B81C55AD04011
:103830000E9412224B015C01A3019201C755DF4F88
:10384000688179818A819B81C95AD0400E94122265
:103850009B01AC01C501B4010E94A11F20E030E032
:1038600040E85FE30E94A01F4B015C01CB56DF4F95
:10387000288139814A815B81C559D040C755DF4FC6
:10388000688179818A819B81C95AD0400E94122225
:103890002B013C01C756DF4F288139814A815B816A
:1038A000C959D040CB55DF4F688179818A819B818E
:1038B000C55AD0400E9412229B01AC01C301B20143
:1038C0000E94A01FA50194010E94202060938901FD
:1038D00070938A0180938B0190938C01A7019601CC
:1038E000C701B6010E9412224B015C01CF55DF4F88
:1038F000288139814A815B81C15AD040CA01B9010E
:103900000E941222A50194010E94A11F0E94D522AB
:103910009B01AC01C356DF4F688179818A819B810D
:10392000CD59D0400E9484200E9450206B017C0120
:1039300060938D0170938E0180938F01909390011D
:10394000C356DF4F288139814A815B81CD59D040F0
:10395000CA01B9010E941222A50194010E94A11F6F
:103960000E94D5229B01AC01CF55DF4F6881798140
:103970008A819B81C15AD0400E9484200E9450209D
:1039800060939101709392018093930190939401BD
:1039900020E030E044E353E4C701B6010E94122264
:1039A0002BED3FE049E450E40E9484206B017C0150
:1039B0009B01AC010E941923882319F083E791E051
:1039C0001AC046015701E894B7F82FEF3FEF4FE7D1
:1039D0005FE7C501B4010E94192381110FC02FEFC9
:1039E0003FEF4FE75FE7C501B4010E947F20181643
:1039F0002CF487E791E00E94D11082C02FEF3FEFB7
:103A00004FE75FE4C701B6010E94052218161CF4B7
:103A10008BE791E0F0CF2FEF3FEF4FE75FECC7016F
:103A2000B6010E947F2087FDF3CF20E030E0A9019E
:103A3000C701B6010E947F2087FF0FC0E09194026A
:103A4000F09195020190F081E02D6DE284E992E021
:103A50000995C701B601905802C0C701B6012AE016
:103A600037ED43EA5BE30E94A11F2B013C010E945A
:103A7000FD204B015C010E942C219B01AC01C30184
:103A8000B2010E94A01F2B013C014AE0C501B40114
:103A90000E948912E0919402F09195020190F081C8
:103AA000E02D6EE284E992E0099520E030E040E20A
:103AB00051E4C301B2010E9412222B013C010E9479
:103AC000FD204B01A12CB12C4AE0C501B4010E949C
:103AD0008912C501B4010E942C219B01AC01C301D4
:103AE000B2010E94A01F20E030E040E251E40E94B9
:103AF00012220E94FD2080E090E04AE00E9489129C
:103B00008FE791E00E94D1100E944414CB56DF4F02
:103B1000688379838A839B83C559D04080913E0313
:103B200090913F03A0914003B0914103CB56DF4FEA
:103B3000288139814A815B81C559D040281B390BC6
:103B40004A0B5B0BCA01B9010E942C214B015C019D
:103B500060911203709113038091140390911503E7
:103B60000E942C219B01AC01C501B4010E940522D9
:103B700087FDE7CC20E034E244E759E4C501B40115
:103B80000E9484202B013C01609126037091270341
:103B90008091240390912503680F791F072E000C54
:103BA000880B990B0E942E21A70196010E94A01F4D
:103BB0006B017C01A30192010E9412222091360325
:103BC0003091370340913803509139030E94A11F6F
:103BD0004B015C0160933603709337038093380385
:103BE0009093390320912A0330912B0340912C03A9
:103BF00050912D03C701B6010E941222C756DF4F14
:103C0000688379838A839B83C959D04020913A0382
:103C100030913B0340913C0350913D03C701B601F5
:103C20000E94A01F20912E0330912F03409130035A
:103C3000509131030E941222A30192010E9484201C
:103C4000C356DF4F688379838A839B83CD59D040E5
:103C50002091320330913303409134035091350366
:103C6000C501B4010E9412224B015C01C0923A03CB
:103C7000D0923B03E0923C03F0923D03C356DF4FEA
:103C8000288139814A815B81CD59D040C756DF4FA9
:103C9000688179818A819B81C959D0400E94A11F86
:103CA000A50194010E94A11F4B015C01C0900E036D
:103CB000D0900F03E0901003F0901103260137011C
:103CC00077FA709477F87094A30192010E947F2094
:103CD00087FD0BC0A7019601B401C5010E94052212
:103CE00018162CF06401750102C073016201609125
:103CF00042037091430380914403909145030E94D5
:103D00002E219B01AC01C701B6010E94A11F6B01CE
:103D10007C0120E030E04FE753EC0E947F2087FDDC
:103D200010C020E030E04FE753E4C701B6010E9425
:103D3000052218164CF0C701B6010E94F620CB01EF
:103D400005C081E09FEF02C08FEF90E00E94B610A7
:103D5000CB56DF4F88819981AA81BB81C559D0405C
:103D600080933E0390933F03A0934003B09341039D
:103D7000E8CB82E093E00C945610E4E9F2E0138281
:103D8000128288EE93E0A0E0B0E084839583A6835E
:103D9000B78329E231E0318320832FEF3FEF35876E
:103DA0002487E4EEF2E01382128284839583A68353
:103DB000B7838BE391E09183808388E680936203ED
:103DC000E2E5F3E080E090E0A0E8BFE38083918348
:103DD000A283B383148215821682178210861186FD
:103DE000128613861486158616861786EDE8F3E08C
:103DF000118210821382128215821482E7E8F3E0A6
:103E0000118210821382128215821482E1E8F3E09B
:103E1000118210821382128215821482E6E4F3E08A
:103E200010821182128213821482158216821782E6
:103E30001086118612861386E2E0F3E08DE591E0AC
:103E4000918380831382128280E090E0AFE7B3E435
:103E500084839583A683B783108611861286138682
:103E600084879587A687B78780E197E2A0E0B0E0D6
:103E7000808B918BA28BB38B8DE491E0958B848B9F
:103E80008DEC9CECACE4BFE3868B978BA08FB18F5D
:103E9000828F938FA48FB58F8DEC9CECACECBEE33E
:103EA000868F978FA0A3B1A38EEF9FEF93A382A3DA
:103EB00015A214A285E591E097A386A310A611A6EA
:103EC00012A613A614A615A616A617A610AA11AA1E
:103ED00012AA13AA10AE11AE12AE13AE14AA15AAEE
:103EE00016AA17AA14AE15AE16AE17AE109242035C
:103EF000109243031092440310924503E9EFF2E05D
:103F000085E691E0918380832AE030E03383228349
:103F100029E030E035832483178216821086E0EF93
:103F2000F2E0918380838CE090E0938382838BE046
:103F300090E0958384831782168281E080870895BC
:103F40005058BB27AA270E94B81F0C94CB210E946F
:103F5000BD2138F00E94C42120F039F49F3F19F4AC
:103F600026F40C9493210EF4E095E7FB0C948D213C
:103F7000E92F0E94DC2158F3BA1762077307840700
:103F8000950720F079F4A6F50C94FE210EF4E09547
:103F90000B2EBA2FA02D0B01B90190010C01CA0103
:103FA000A0011124FF27591B99F0593F50F4503EAE
:103FB00068F11A16F040A22F232F342F4427585FA0
:103FC000F3CF469537952795A795F0405395C9F7B8
:103FD0007EF41F16BA0B620B730B840BBAF0915070
:103FE000A1F0FF0FBB1F661F771F881FC2F70EC00F
:103FF000BA0F621F731F841F48F4879577956795E2
:10400000B795F7959E3F08F0B0CF9395880F08F0CD
:104010009927EE0F9795879508950E94BD2160F02E
:1040200080E891E009F49EEF0E94C42128F040E866
:1040300051E071F45EEF0CC00C9493210C94FE21BE
:10404000E92FE0780E94DC2140F3092E052AB1F324
:10405000261737074807590738F00E2E07F8E025CE
:1040600069F0E025E0640AC0EF6307F8009407FAFE
:10407000DB01B9019D01DC01CA01AD01EF930E9492
:104080009B200E94CB210E9450205F91552339F044
:104090002BED3FE049E450FD49EC0C94A11F08953D
:1040A000DF93DD27B92FBF7740E85FE316161706C9
:1040B00048075B0718F4D92F0E940A229F938F9319
:1040C0007F936F930E941523EAECF0E00E94962103
:1040D0000E94CB212F913F914F915F910E94252209
:1040E000DD2351F09058A2EA2AED3FE049EC5FE36E
:1040F000D0785D270E94B81FDF910C94CB210E94DD
:10410000692108F481E008950E9498200C94CB2145
:104110000E94C42158F00E94BD2140F029F45F3F65
:1041200029F00C948D2151110C94FF210C949321B2
:104130000E94DC2168F39923B1F3552391F3951B79
:10414000550BBB27AA2762177307840738F09F5FB8
:104150005F4F220F331F441FAA1FA9F335D00E2E25
:104160003AF0E0E832D091505040E695001CCAF792
:104170002BD0FE2F29D0660F771F881FBB1F261755
:1041800037074807AB07B0E809F0BB0B802DBF012C
:10419000FF2793585F4F3AF09E3F510578F00C94FB
:1041A0008D210C94FF215F3FE4F3983ED4F3869574
:1041B00077956795B795F7959F5FC9F7880F911D1C
:1041C0009695879597F90895E1E0660F771F881F08
:1041D000BB1F621773078407BA0720F0621B730BBB
:1041E000840BBA0BEE1F88F7E09508950E94FD201E
:1041F0006894B1110C94FF2108950E94E42188F085
:104200009F5798F0B92F9927B751B0F0E1F0660F9A
:10421000771F881F991F1AF0BA95C9F714C0B130DB
:1042200091F00E94FE21B1E008950C94FE21672FC9
:10423000782F8827B85F39F0B93FCCF3869577950A
:104240006795B395D9F73EF49095809570956195F3
:104250007F4F8F4F9F4F0895E89409C097FB3EF41E
:1042600090958095709561957F4F8F4F9F4F9923C3
:10427000A9F0F92F96E9BB279395F6958795779541
:104280006795B795F111F8CFFAF4BB0F11F460FF01
:104290001BC06F5F7F4F8F4F9F4F16C0882311F059
:1042A00096E911C0772321F09EE8872F762F05C06D
:1042B000662371F096E8862F70E060E02AF09A9508
:1042C000660F771F881FDAF7880F9695879597F9FD
:1042D0000895990F0008550FAA0BE0E8FEEF161697
:1042E0001706E807F907C0F012161306E407F507EA
:1042F00098F0621B730B840B950B39F40A2661F05E
:10430000232B242B252B21F408950A2609F4A14000
:10431000A6958FEF811D811D089597F99F6780E80D
:1043200070E060E008959FEF80EC0895DF93CF93F5
:104330001F930F93FF92EF92DF927B018C016894A1
:1043400006C0DA2EEF010E942522FE01E894A59115
:104350002591359145915591A6F3EF010E94B81F23
:10436000FE019701A801DA9469F7DF90EF90FF90C2
:104370000F911F91CF91DF91089500240A94161692
:10438000170618060906089500240A941216130643
:10439000140605060895092E0394000C11F48823D1
:1043A00052F0BB0F40F4BF2B11F460FF04C06F5FED
:1043B0007F4F8F4F9F4F089557FD9058440F551FC3
:1043C00059F05F3F71F04795880F97FB991F61F097
:1043D0009F3F79F087950895121613061406551F0E
:1043E000F2CF4695F1DF08C0161617061806991F7A
:1043F000F1CF86957105610508940895E894BB276F
:1044000066277727CB0197F908950E94692108F460
:104410008FEF08959B01AC0160E070E080E89FE3BE
:104420000C9484200E9425220C94CB210E94BD2153
:1044300038F00E94C42120F0952311F00C948D21B6
:104440000C94932111240C94FF210E94DC2170F321
:10445000959FC1F3950F50E0551F629FF001729F29
:10446000BB27F00DB11D639FAA27F00DB11DAA1F38
:10447000649F6627B00DA11D661F829F2227B00D85
:10448000A11D621F739FB00DA11D621F839FA00D10
:10449000611D221F749F3327A00D611D231F849F60
:1044A000600D211D822F762F6A2F11249F575040B7
:1044B0009AF0F1F088234AF0EE0FFF1FBB1F661F32
:1044C000771F881F91505040A9F79E3F510580F0FB
:1044D0000C948D210C94FF215F3FE4F3983ED4F3BC
:1044E000869577956795B795F795E7959F5FC1F79F
:1044F000FE2B880F911D9695879597F90895FA01DF
:10450000EE0FFF1F309621053105A1F161157105F0
:1045100061F48038BFE39B0749F1689490388105C6
:1045200061F08038BFEF9B0741F099234AF5FF3FC8
:10453000E1053105210519F1E8940894E795D901C1
:10454000AA2329F4AB2FBE2FF85FD0F310C0FF5F72
:1045500070F4A695E0F7F73950F019F0FF3A38F407
:104560009F779F930DD00F9007FC9058089546F0C9
:104570000C94932160E070E080E89FE308954FE79A
:104580009F775F934F933F932F930E94AF232F9179
:104590003F914F915F910E9412220C94262319F4AF
:1045A00016F40C9493210C9458230E94E421B8F340
:1045B0009923C9F3B6F39F57550B87FF0E946623D3
:1045C0000024A0E640EA900180585695979528F47B
:1045D000805C660F771F881F20F026173707480773
:1045E00030F4621B730B840B202931294A2BA695CA
:1045F00017940794202531254A2758F7660F771F0F
:10460000881F20F026173707480730F4620B730B1A
:10461000840B200D311D411DA09581F7B901842F18
:104620009158880F9695879508959B01AC010C943D
:1046300012220E946921880B990B089529F416F023
:104640000C948D210C94FE210C9493210E94E42162
:10465000A8F39638A0F707F80F92E8942BE33AEA0C
:1046600048EB5FE70E9428220F920F920F924DB7FE
:104670005EB70F920E94F723E7EFF0E00E949621C9
:104680004F915F91EF91FF91E595EE1FFF1F49F06C
:10469000FE57E0684427EE0F441FFA95E1F7419575
:1046A000550B0E9471230F9007FE0C940A22089567
:1046B0009F3F31F0915020F4879577956795B79596
:1046C000880F911D9695879597F9089591505040C0
:1046D000660F771F881FD2F708950C948D210C94D4
:1046E00058230E94E421D8F39923C9F3940F511D54
:1046F000A3F39150504094F059F0882332F0660FA4
:10470000771F881F91505040C1F79E3F51052CF7ED
:10471000880F911D9695879597F908955F3FACF0A6
:10472000983E9CF0BB27869577956795B79508F4DA
:10473000B1609395C1F7BB0F58F711F460FFE8CF54
:104740006F5F7F4F8F4F9F4FE3CF0C94FF2116F089
:104750000C9458230C94932168940C948D210E94FE
:10476000E421A8F39923C1F3AEF3DF93CF931F9312
:104770000F93FF92C92FDD2788232AF02197660F18
:10478000771F881FDAF720E030E040E85FEB9FE317
:10479000883920F0803E38F021968F770E94A11F43
:1047A000EFE1F1E004C00E94A11FECE4F1E00E94FF
:1047B00096218B01BE01EC01FB2E6F577109759597
:1047C000771F880B990B0E942E2128E132E741E3E5
:1047D0005FE30E942522AF2D9801AE01FF900F915B
:1047E0001F91CF91DF910E94B81F0C94CB21FA0149
:1047F000DC01AA0FBB1F9B01AC01BF5728F4222785
:1048000033274427507820C0B75190F4AB2F0024B1
:10481000469537952795011CA395D2F3002071F09A
:10482000220F331F441FB395DAF30ED00C94A01F50
:1048300061307105A0E88A07B94630F49B01AC01EC
:104840006627772788279078309621F02083318358
:10485000428353830895A1E21A2EAA1BBB1BFD01BC
:104860000DC0AA1FBB1FEE1FFF1FA217B307E4074F
:10487000F50720F0A21BB30BE40BF50B661F771FA7
:10488000881F991F1A9469F7609570958095909587
:104890009B01AC01BD01CF010895EE0FFF1F0590F4
:1048A000F491E02D0994CF93DF938230910510F4B9
:1048B00082E090E0E0919E03F0919F0320E030E0E1
:1048C000C0E0D0E0309711F140815181481759077D
:1048D000C0F04817590761F482819381209719F03D
:1048E0009B838A832BC090939F0380939E0326C053
:1048F0002115310519F04217530718F49A01BE012A
:10490000DF01EF010280F381E02DDCCF21153105BD
:1049100009F1281B390B2430310590F412968D9142
:104920009C9113976115710521F0FB01938382839C
:1049300004C090939F0380939E03FD01329644C070
:10494000FD01E20FF31F81939193225031092D93C2
:104950003C933AC020919C0330919D03232B41F45A
:10496000209118013091190130939D0320939C03ED
:1049700020911601309117012115310541F42DB711
:104980003EB740911A0150911B01241B350BE09159
:104990009C03F0919D03E217F307A0F42E1B3F0B3D
:1049A0002817390778F0AC014E5F5F4F24173507A1
:1049B00048F04E0F5F1F50939D0340939C038193DB
:1049C000919302C0E0E0F0E0CF01DF91CF91089534
:1049D0000F931F93CF93DF93009709F48CC0FC01D2
:1049E00032971382128200919E0310919F0301154A
:1049F000110581F420813181820F931F20919C0346
:104A000030919D032817390779F5F0939D03E093C2
:104A10009C0371C0D80140E050E0AE17BF0750F4CE
:104A200012962D913C911397AD012115310509F195
:104A3000D901F3CF9D01DA01338322836081718133
:104A4000860F971F8217930769F4EC01288139813B
:104A5000260F371F2E5F3F4F318320838A819B8132
:104A600093838283452B29F4F0939F03E0939E0365
:104A700042C01396FC93EE931297ED014991599120
:104A80009E01240F351FE217F30771F48081918195
:104A9000840F951F029611969C938E938281938129
:104AA00013969C938E931297E0E0F0E0D801129653
:104AB0008D919C911397009719F0F8018C01F6CF16
:104AC0008D919C9198012E5F3F4F820F931F2091F3
:104AD0009C0330919D032817390769F4309729F416
:104AE00010929F0310929E0302C0138212821093B1
:104AF0009D0300939C03DF91CF911F910F91089527
:104B0000A0E0B0E0E6E8F5E20C946926EC0100973D
:104B100021F4CB010E945324B8C0FC01E60FF71F1B
:104B20009C0122503109E217F30708F4ACC0D90107
:104B30000D911C91119706171707B0F0053011055C
:104B400008F49FC0C80104978617970708F499C016
:104B500002501109061B170B019311936D937C935F
:104B6000CF010E94E8248DC05B01A01AB10A4C015C
:104B7000800E911EA0919E03B0919F0340E050E0F3
:104B8000E12CF12C109709F44AC0A815B905D1F50C
:104B90006D907C901197630182E0C80ED11CCA14FD
:104BA000DB0480F1A3014A195B096A0182E0C80EA7
:104BB000D11C1296BC9012971396AC91B5E0CB160F
:104BC000D10440F0B282A38351834083D9016D9315
:104BD0007C930AC00E5F1F4FC301800F911FF90124
:104BE00091838083EB2DFA2FE114F10431F0D7018A
:104BF0001396FC93EE93129744C0F0939F03E093B7
:104C00009E033FC08D919C9111974817590708F456
:104C1000AC017D0112960D90BC91A02DB3CF809177
:104C20009C0390919D0388159905E1F44617570759
:104C3000C8F48091160190911701009741F48DB747
:104C40009EB740911A0150911B01841B950BE817E8
:104C5000F907C8F4F0939D03E0939C03F901718375
:104C600060830FC0CB010E9453247C01009759F050
:104C7000A801BE010E945C26CE010E94E824C70163
:104C800004C0CE0102C080E090E0CDB7DEB7EEE018
:104C90000C94852681E090E0F8940C949C26FB010E
:104CA000DC0104C08D910190801921F441505040E5
:104CB000C8F7881B990B0895FB01DC0102C0019025
:104CC0000D9241505040D8F708952F923F924F9245
:104CD0005F926F927F928F929F92AF92BF92CF928C
:104CE000DF92EF92FF920F931F93CF93DF93CDB795
:104CF000DEB7CA1BDB0B0FB6F894DEBF0FBECDBF0D
:104D000009942A88398848885F846E847D848C84DD
:104D10009B84AA84B984C884DF80EE80FD800C81E6
:104D20001B81AA81B981CE0FD11D0FB6F894DEBFC9
:104D30000FBECDBFED01089516E0C4E0D6E004C07B
:104D4000FE010E944D242196C530D107C9F7F89481
:024D5000FFCF93
:104D52002F062F062F062F062F06FFFFFFFF00E16B
:104D62000000000000000000A003800000C180815C
:104D7200000000E80300000000FA062E08B3081045
:104D8200071B07B708D50800000000C7079707628E
:104D9200073D0735074D073E070000000031104C64
:104DA2001000000000B410F9080000000056105E68
:104DB2001000000000B510FB087365747570282997
:104DC2000048006E616E00696E66006F7666000DC7
:024DD2000A00D5
:00000001FF
