:100000000C94FC050C94FA090C94D3090C94AC09DB
:100010000C9485090C9424060C9424060C945E0917
:100020000C9424060C9424060C94210A0C94930A34
:100030000C9424060C9424060C9424060C94240698
:100040000C9424060C9487100C9424060C9424061B
:100050000C9424060C9424060C9424060C94C714C7
:100060000C9424060C9424060C9424060C94240668
:100070000C9424060C9424060C9424060C94240658
:100080000C9461100C9424060C9424060C94240601
:100090000C94AC0E0C9424060C9424060C942406A8
:1000A0000C9424060C9424060C942406C913CC1337
:1000B000BB13BF13C313ED13ED13ED13D013D41300
:1000C000D813DE13E213ED13E813084AD73B3BCEF7
:1000D000016E84BCBFFDC12F3D6C74319ABD568347
:1000E0003DDA3D00C77F11BED9E4BB4C3E916BAAFF
:1000F000AABE000000803F07634236B79BD8A71A0C
:1001000039685618AEBAAB558C1D3CB7CC5763BD99
:100110006DEDFD753EF6177231BF000000803F089F
:10012000000000BE922449123EABAAAA2ABECDCC42
:10013000CC4C3E00000080BEABAAAAAA3E00000044
:1001400000BF000000803F0000000000084178D39D
:10015000BB4387D1133D190E3CC3BD4282AD2B3E3C
:1001600068EC8276BED98FE1A93E4C80EFFFBE01DC
:10017000C4FF7F3F000000000000080B00020202E5
:100180000100090400000102020000052400100122
:1001900005240101010424020605240600010705C7
:1001A000810310004009040100020A000000070555
:1001B0000202400000070583024000000403090416
:1001C00012010002EF0201404123368000010102CA
:1001D000030141726475696E6F204C4C430041729B
:1001E0006475696E6F204C656F6E6172646F00019B
:1001F000B202FFFF0190040923A135016A02060043
:1002000001600800000000000000000060044000E1
:100210000000016202000000600400400000037B57
:10022000034CCD6C03AB0336567600680402CB4713
:10023000A202180400058BC1010C04000000000399
:100240007F060CC92C979797038903264666006C96
:1002500002200002400400000000024404000000EC
:100260000002480400000000024C040000000002EC
:100270005004000000000254040000000002580472
:1002800000000000025C040000000002BC0400004A
:10029000000001EC0400004000037F060CC92C970D
:1002A00097970402030D355D040904872D353D0041
:1002B000A3010000000001078601FE074105F120AF
:1002C000283038077E01300746019A074704F12895
:1002D0003038076C04F12830380216020001FB00A8
:1002E000003E000B00360001000200030000006524
:1002F0000054FFEF0000FA80000B128200010002A0
:1003000000000000000000000000000000000028C5
:100310000000FFFF4581FFFFFA72000000000000AF
:1003200003E80000000100017FFFFFFE8001001BC9
:100330000000000000000000000000000000003E7F
:1003400003304000000002CAE3093E8000002000A4
:10035000000000000000400000006000000041FFBD
:10036000000000000B2A0000165500002182FD87C6
:100370002650FD800000001F0000000580000000E6
:100380000000000100000002000000030000400027
:1003900000000000046F0002653200005EC04000F3
:1003A0000000000000000000000000000000FB8CC6
:1003B0006F5DFD5D08D9007C733B006C12CC320090
:1003C000139D3200D0D632000800400001F4FFE651
:1003D0008079020000000000D0D600002710FB004A
:1003E00000004000000000000000000000000000CD
:1003F00000010000000000000100010000000000FA
:10040000FA36FFBC308E0005FBF0FFD95BC8FFD089
:100410009ABE000010A9FFF41EB200CEBBF7000088
:10042000000100000004000200020200000CFFC2F4
:1004300080000001800000CF80004000000000002C
:100440000001000000000000060000000014000091
:10045000000000000000000000000000000000009C
:10046000000000000000000000000000000000008C
:10047000000000000000000000000000000000007C
:100480000000033F68B6793528BCC67ED16C800079
:100490000000400000000000B26A00000000000000
:1004A00000000000000000003FF0000000300000ED
:1004B000000000000000000000000000000000003C
:1004C000000000000000000000000000000000002C
:1004D000254D002F706D000005AE000C02D000000D
:1004E000000000650054FFEF000000000000000065
:1004F00001000044000000000C00000001000000AA
:1005000000000065000000540000FFEF0000000044
:10051000000000000000000000000000000040009B
:10052000000000000000000000000000000040008B
:1005300000000000000000000000000000000000BB
:1005400000010000000200000000000000000000A8
:10055000000000000000000000000000000000009B
:100560000000000000000000000000000000001B70
:10057000000000000000000000000000000000007B
:10058000000000000000000000000000000000006B
:100590000000000000000000000040000000001B00
:1005A000000000000000000000000000000000004B
:1005B000000000000000000000000000000000003B
:1005C000000000000000000000000000000000002B
:1005D0000000000000000000000000000000D8DC67
:1005E000BAA2F1DEB2B8B4A88191F74A907F916ABD
:1005F000F3F9DBA8F9B0BAA080F2CE81F3C2F1C161
:10060000F2C3F3CCA2B280F1C6D880BAA7DFDFDF95
:10061000F2A7C3CBC5B6F087A2942448703C95409E
:100620006834589B78A2F183922D557DD8B1B4B827
:10063000A1D09180F270F370F27C80A8F101B098A3
:1006400087D943D886C988BAA1F20EB89780F1A994
:10065000DFDFDFAADFDFDFF2AAC5CDC7A90CC92C17
:1006600097979797F1A989264666B0B4BA80ACDE11
:10067000F2CAF1B28C02A9B69800890E161EB8A96A
:10068000B4992C547CB08AA896365676F1B9AFB49A
:10069000B083C0B8A89711B18F98B9AFF0240844BF
:1006A000106418F1A329557DAF83B593AFF00028EE
:1006B00050F1A3869F61A6DADEDFD9FAA38696DB26
:1006C00031A6D9F8DFBAA68FC2C5C7B28CC1B8A20D
:1006D000DFDFDFA3DFDFDFD8D8F1B8A8B286B498B8
:1006E0000D355DB8AA98B0872D353DB2B6BAAF8C3E
:1006F00096198F9FA70E161EB49AB8AA872C547C01
:10070000B9A3DEDFDFA3B180F2C4CDC9F1B8A9B4CB
:1007100099830D355D89B9A32D557DB593A30E162B
:100720001EA92C547CB8B4B0F19783A81184A509F4
:1007300098A383F0DA240844106418D8F1A5295549
:100740007DA58595021A2E3A565A4048F9F3A3D949
:10075000F8F098832408441064189782A8F111F0E7
:1007600098A2240844106418DAF3DED883A5940113
:10077000D9A302F1A2C3C5C7D8F18492A24DDA2A47
:10078000D84869D92AD86855DA32D85071D932D8C0
:10079000705DDA3AD85879D93AD87893A34DDA2AE5
:1007A000D84869D92AD86855DA32D85071D932D8A0
:1007B000705DDA3AD85879D93AD878A88A9AF02868
:1007C00050789EF38818F19F1D98A8D908D8C89F23
:1007D000129EF315A8DA1210D8F1AFC8978734B576
:1007E000B994A421F3D922D8F22DF3D92AD8F2351D
:1007F000F3D932D881A4606061D961D86C6869D9B5
:1008000069D8747071D971D8B1A384193D5DA3837F
:100810001A3E5E931030811011B8B0AF8F94F2DAA7
:100820003ED8B49AA88729DAF8D8879A35DAF8D862
:10083000879A3DDAF8D8B1B9A49885022E56A581D9
:10084000000C14A397B08AF12DD928D84DD948D8D7
:100850006DD968D8B1840DDA0ED8A32983DA2C0EAD
:10086000D8A3844983DA2C4C0ED8B8B0A88A9AF55C
:1008700020AADADFD8A840AAD0DADED8A860AADA9F
:10088000D0DFD8F19786A8319B069907AB972888C7
:100890009BF00C201440B8B0B4A88C9CF0042851F4
:1008A000791D301438B282ABD0982C505078789B98
:1008B000F11AB0F08A9CA82951798B2951798A24A0
:1008C00070598B2058718A4469388B3940688A6422
:1008D00048318B304960A588200971584468113926
:1008E00064493019F1AC002C547CF08CA8042850D9
:1008F00078F1889726A85998AC8C02264666F0892C
:100900009CA8295179247059446938644831A988D0
:1009100009205970AB11384069A8193148608CA87A
:100920003C415C207C00F187981986A86E767EA9F0
:1009300099882D557D9EB9A38A228A6E8A568A5E31
:100940009FB183062646660E2E4E6E9DB8AD002CD6
:10095000547CF2B18CB499B9A32D557D8191AC38FA
:10096000AD3AB58391AC2DD928D84DD948D86DD999
:1009700068D88C9DAE29D904AED851D904AED879A7
:10098000D904D881F39DAD008DAE1981ADD901D8C0
:10099000F2AEDA26D88E912983A7D9ADADADADF3ED
:1009A0002AD8D8F1B0AC89913E5E76F3AC2E2EF108
:1009B000B18C5A9CAC2C2828289CAC3018A8988163
:1009C00028343C9724A728343C9C24F2B089AC916D
:1009D0002C4C6C8A9B2DD9D8D851D9D8D879D9D854
:1009E000D8F19E88A331DAD8D8912DD928D84DD9FD
:1009F00048D86DD968D8B18393353D8025DAD8D8E9
:100A00008569DAD8D8B49381A328343CF3AB8BF84A
:100A1000A391B609B4D9ABDEFAB0879CB9A3DDF1D6
:100A2000A3A3A3A395F1A3A3A39DF1A3A3A3A3F2BF
:100A3000A3B49080F2A3A3A3A3A3A3A3A3A3A3B24D
:100A4000A3A3A3A3A3A3B087B599F1A3A3A398F1EC
:100A5000A3A3A3A397A3A3A3A3F39BA3A3DCB9A7D7
:100A6000F1262626D8D8FF2900444D5020496E692A
:100A70007469616C697A6174696F6E206661696C12
:100A800065642028636F64652000444D50207265C2
:100A9000616479212057616974696E6720666F729D
:100AA00020666972737420696E74657272757074F1
:100AB0002E2E2E00456E61626C696E6720696E7421
:100AC00065727275707420646574656374696F6EA5
:100AD0002E2E2E00456E61626C696E6720444D506B
:100AE0002E2E2E004D50553630353020636F6E6EF1
:100AF000656374696F6E206661696C6564004D5052
:100B0000553630353020636F6E6E656374696F6E75
:100B1000207375636365737366756C00496E6974E1
:100B200069616C697A696E6720444D502E2E2E00E3
:100B30004D505520696E697469616C697A65642EDF
:100B40002E2E00496E697469616C697A696E67203E
:100B500049324320646576696365732E2E2E004604
:100B600049464F206F766572666C6F7721000000F2
:100B70000000240027002A002D00300000000000A3
:100B8000250028002B002E00310004040404040377
:100B9000040502020202040302020202060606061D
:100BA0000606040402020204040408020110408044
:100BB0004010204080408008020401804020100244
:100BC00001108010204040200000000200090F00AA
:100BD00000030401000C0000000000000000000001
:100BE00000000000000000070605040100080A0BD1
:100BF0000C0D0900F11EED1E11241FBECFEFDAE02F
:100C0000DEBFCDBF11E0A0E0B1E0EAEDFDE402C03F
:100C100005900D92A23AB107D9F723E0A2EAB1E01C
:100C200001C01D92A23BB207E1F715E0CBEFD5E082
:100C300004C02197FE010E949124CA3FD107C9F741
:100C40000E9411150C94E0260C9400000895409128
:100C50000B0250910C022091090230910A024217B6
:100C60005307B4F49091E8009570E1F39091E80097
:100C700092FD19C08093F10080910B0290910C02BB
:100C800001968F739927892B19F48EEF8093E800D2
:100C900080910B0290910C02019690930C0280932C
:100CA0000B0281E0089580E00895CF92DF92EF92E9
:100CB000FF920F931F93CF93DF931F92CDB7DEB7B1
:100CC000182F062FE42E862F880F8E5F99830E949F
:100CD000270683E00E942706F12EC12E9981D92E86
:100CE0008C2D8F19801798F4F601E7FE02C08491CD
:100CF00001C080810E942706182F80E00E942706ED
:100D00008123FFEFCF1ADF0A8111EACF01C081E012
:100D10000F90DF91CF911F910F91FF90EF90DF9097
:100D2000CF900895DF92EF92FF920F931F93CF938E
:100D3000DF93D82E8A017B01E40EF51EEB01CE1560
:100D4000DF0571F0D7FE03C0FE01849101C08881E8
:100D50000E94270621968111F2CF8FEF9FEF01C0ED
:100D6000C801DF91CF911F910F91FF90EF90DF901D
:100D70000895615030F02091F100FC01208301962C
:100D8000F8CF289884E6809314020895CF92DF92DA
:100D9000EF92FF920F931F93CF93DF936C017A0131
:100DA0008B01C0E0D0E0CE15DF0589F0D8016D9150
:100DB0008D01D601ED91FC910190F081E02DC601ED
:100DC0000995892B11F47E0102C02196ECCFC70151
:100DD000DF91CF911F910F91FF90EF90DF90CF9017
:100DE0000895CF93DF931F92CDB7DEB76983DC01FF
:100DF000ED91FC910280F381E02D41E050E0BE01D5
:100E00006F5F7F4F09950F90DF91CF91089583E039
:100E10008093E9008091F200882319F08AE380939F
:100E2000E8000895FC018485958597FD0BC09FB768
:100E3000F89482E08093E9008091F2009FBF90E0F7
:100E4000019608959FB7F89482E08093E90080911D
:100E5000F2009FBF90E008958091110290E02091F0
:100E60001202821B910908950895E0911202809167
:100E70001102E81730F4F0E0E751FE4F808190E076
:100E800008958FEF9FEF08959091120280911102C3
:100E9000981750F4E92FF0E0E751FE4F208130E041
:100EA0009F5F9093120202C02FEF3FEFC901089598
:100EB000089580E090E0089585ED8093BC008091D6
:100EC000BC0084FDFCCF10923C0208954091C40107
:100ED000262F30E0240F311D21323105DCF4209122
:100EE0003C022430C9F4FC0180E090E0861758F4FD
:100EF0003091C4012191DC01AE55BE4FA30FB11D4D
:100F00002C930196F3CF8091C401680F6093C401C4
:100F100080E0089581E0089582E00895CF92DF9205
:100F2000EF92FF920F931F93CF93DF937C01262FB5
:100F3000972F8A0180913D02882391F0C62FD72FE9
:100F40006E01C40ED51ECC15DD0571F06991D70177
:100F5000ED91FC910190F081E02DC7010995F3CF4F
:100F6000642F822F0E946607C801DF91CF911F91E5
:100F70000F91FF90EF90DF90CF900895CF93DF9384
:100F80001F92CDB7DEB7698320913D022223D1F0B5
:100F900020916002203240F021E030E0FC013383F8
:100FA000228380E090E015C080913E02E82FF0E0BF
:100FB000E15CFD4F998190838F5F80933E02809327
:100FC000600205C061E0CE0101960E94660781E0E3
:100FD00090E00F90DF91CF91089581E0809313020C
:100FE00008950E948E260F931F93CF93DF931F9235
:100FF000CDB7DEB782E0898342E450E06AE771E072
:1010000080E80E9492060E948A13DC0112960D91DC
:101010001C9113970115110569F0D801ED91FC9110
:101020000280F381E02DBE016F5F7F4FC8010995FB
:1010300097FF07C089810F90DF91CF911F910F918A
:101040000895F80100851185E5CF8F929F92AF92A8
:10105000BF92CF92DF92EF92FF920F931F93CF93A5
:10106000DF935C016B017A0180910B01882309F405
:101070005BC080911502882309F456C080910F024D
:1010800080FF05C08091E00082608093E000E7016E
:1010900010E00AEF83E0882E9AE3992E2097D9F189
:1010A0000E94791381110AC0015009F43DC061E02A
:1010B00070E080E090E00E948D14F0CF282F30E0A7
:1010C000C217D3070CF48C2F4FB7F8948092E90025
:1010D0009091E80095FF1DC0282F30E0C21BD30B74
:1010E000F601982F915020F081918093F100FACF72
:1010F000C20ED31E112319F09092E80009C080910E
:10110000E80085FD06C09092E80011E0209709F004
:1011100010E04FBFC3CF1111C3CF5D9884E6809319
:101120000D021E141F0444F081E090E0F50193834A
:10113000828380E090E001C0C701DF91CF911F91D1
:101140000F91FF90EF90DF90CF90BF90AF909F9066
:101150008F9008950E94791390E00895CF93DF93C4
:101160001F92CDB7DEB7FC018485958597FD05C03C
:101170002FEF3FEF358724870BC0CE0101960E94E9
:101180004F13019719F4898190E002C08FEF9FEF10
:101190000F90DF91CF9108950F931F93CF93DF931B
:1011A0001F92CDB7DEB78C01FC018485958597FF32
:1011B0000EC0CE0101960E944F13019719F42981A8
:1011C00030E002C02FEF3FEFF80135872487F801A8
:1011D000848595850F90DF91CF911F910F91089590
:1011E0000C942C250C942C250C942C25CF93DF9358
:1011F000FC01268137812115310529F161E021307B
:10120000310509F060E0EC01888568278A810E9439
:101210009E1360E08C810E949E130000000000007D
:1012200000000000000000000000000000000000BE
:101230000000000000000000000061E08C81DF91F0
:10124000CF910C949E13DF91CF91089597FF03C027
:101250009195819591098F3F910519F014F08FEFC9
:1012600090E06FEF70E0681B790B072E000C880B85
:10127000990B0E94772120E030E04CE452E40E9478
:10128000CD2020E030E040E85FE30E94EA1F9B01B0
:10129000AC0160E070E080E090E40E94C82220E0B1
:1012A00030E04AE754E40E945B2220E030E040E86E
:1012B0005DE30E945B220E943F2108951F920F92DE
:1012C0000FB60F9211242F933F934F935F936F9319
:1012D0007F938F939F93AF93BF93EF93FF93E0918F
:1012E0001401F09115010995FF91EF91BF91AF9114
:1012F0009F918F917F916F915F914F913F912F912E
:101300000F900FBE0F901F9018951F920F920FB65F
:101310000F9211242F933F934F935F936F937F937B
:101320008F939F93AF93BF93EF93FF93E09112013D
:10133000F09113010995FF91EF91BF91AF919F91AA
:101340008F917F916F915F914F913F912F910F906E
:101350000FBE0F901F9018951F920F920FB60F920D
:1013600011242F933F934F935F936F937F938F93AA
:101370009F93AF93BF93EF93FF93E0911001F09190
:1013800011010995FF91EF91BF91AF919F918F91BD
:101390007F916F915F914F913F912F910F900FBE71
:1013A0000F901F9018951F920F920FB60F92112455
:1013B0002F933F934F935F936F937F938F939F935D
:1013C000AF93BF93EF93FF93E0910E01F0910F0164
:1013D0000995FF91EF91BF91AF919F918F917F916F
:1013E0006F915F914F913F912F910F900FBE0F9092
:1013F0001F9018951F920F920FB60F9211242F93E2
:101400003F934F935F936F937F938F939F93AF938C
:10141000BF93EF93FF93E0910C01F0910D010995BB
:10142000FF91EF91BF91AF919F918F917F916F91BC
:101430005F914F913F912F910F900FBE0F901F9092
:1014400018951F920F920FB60F9211248F939F93AE
:101450008091E1009091E100937F9093E10083FF00
:101460000FC01092E90091E09093EB001092EC0015
:1014700092E39093ED001092150298E09093F000A3
:1014800082FF20C093E09093E9009091F2009923AD
:1014900019F09AE39093E80090910D02992339F0A6
:1014A00090910D02915090930D02992389F19091A2
:1014B0001402992339F090911402915090931402E0
:1014C000992341F184FF10C08091E2008E7E8160FB
:1014D0008093E2008091E1008F7E8093E100809113
:1014E0000F028E7E806111C080FF16C08091E200E5
:1014F0008E7E80618093E2008091E1008E7E8093F9
:10150000E10080910F028E7E816080930F0204C003
:101510005D9ACDCF289AD6CF9F918F910F900FBE15
:101520000F901F9018951F920F920FB60F921124D3
:10153000CF92DF92EF92FF920F931F932F933F93DF
:101540004F935F936F937F938F939F93AF93BF93CB
:10155000EF93FF93CF93DF93CDB7DEB76C97DEBFEA
:10156000CDBF1092E9008091E80083FFEDC168E0F3
:10157000CE0145960E94B90682EF8093E8008D89DE
:1015800087FF05C09091E80090FFFCCF03C09EEF5D
:101590009093E800982F907609F0C6C09E892F8915
:1015A000188D91110CC0803829F48091100280931D
:1015B000F10002C01092F1001092F10048C1422FD8
:1015C00050E0512B913051F4811141C1413051050E
:1015D00009F03DC1809110028D7F0BC0933061F402
:1015E000811135C14130510509F031C1809110029E
:1015F0008260809310022BC1953041F48091E80005
:1016000080FFFCCF20682093E30021C1963009F0D1
:101610005FC0EB8CFC8C1092E90010920C021092CF
:101620000B02123091F510920A02109209020E94E8
:10163000F30799E0BE016F5F7F4FDB01E92F1D9239
:10164000EA95E9F799831A8391E09E8390EA988757
:101650009AEF998720910B0230910C02275F3F4F40
:101660003C832B838D831092E90010920C02109220
:101670000B02F0920A02E092090249E050E080E099
:101680000E9492060E94F307E2C0F0920A02E092E2
:1016900009020E948A13DC011296ED90FC901397C8
:1016A000E114F10409F4C0C0D701ED91FC9104806C
:1016B000F581E02DBE016B5E7F4FC7010995009754
:1016C00019F00CF0C4C0C7C0F701E084F184E8CF82
:1016D000973009F4C0C0983021F481E08093F10084
:1016E000B6C0993009F0B3C0837009F0B4C0EDE121
:1016F000F1E081E021E036E39081992361F080936D
:10170000E9002093EB0091919093EC003093ED0071
:101710008F5F873089F78EE78093EA001092EA00A6
:101720008F898093150293C08B8D9C8D1092E90058
:1017300010920C0210920B0290930A0280930902FD
:10174000898D811156C08E899D89913A59F48132D3
:1017500009F081C047E050E064E071E080E00E9461
:10176000920675C0913209F076C0833289F4888D73
:1017700090E0982F88272F89822BA0E0B0E08093FB
:10178000000190930101A0930201B09303015FC097
:10179000803269F48091E80082FFFCCF67E084E04A
:1017A00091E00E94B9068BEF8093E80006C0823278
:1017B00009F04DC08F8980930B0180910E02882320
:1017C00019F0EEEFFAE002C0E0E0F8E080910401E9
:1017D00090910501A0910601B0910701803B9440D2
:1017E000A105B10509F07BC080910B0180FF93C07A
:1017F00076C00E948A13DC0112960D911C911397FA
:101800000115110541F1D801ED91FC910190F08194
:10181000E02DBE016B5E7F4FC8010995811117C095
:10182000F80100851185ECCF113009F44EC013305A
:1018300091F48F89882309F445C0823081F440E80F
:1018400060E18EED91E00E945506882321F08EEF35
:101850008093E80079C081E28093EB0075C081300D
:1018600029F440E86BE082ED91E0EDCF833099F709
:101870000E948A13DC011296ED90FC9013978E0162
:101880000F5F1F4F6801E114F10479F0D701ED916A
:10189000FC910680F781E02DB801C7010995080F7A
:1018A000111DF701E084F184EECFD8011C92F601FE
:1018B00001900020E9F73197BF016C197D0940E0E4
:1018C000C601C1CF6CEB71E002C060EC71E0611544
:1018D000710509F2FB01449150E080E840CF0FB65A
:1018E000F894A895809160008861809360001092C0
:1018F00060000FBEA895EE3F2AE0F20739F0809114
:10190000FE0A9091FF0A91838083A1CF1092FF0A73
:101910001092FE0A9CCFEE3F8AE0F80731F08081FA
:1019200091819093FF0A8093FE0A87E797E791835E
:1019300080839BE088E10FB6F894A89580936000BF
:101940000FBE9093600083CF6C960FB6F894DEBF05
:101950000FBECDBFDF91CF91FF91EF91BF91AF91BE
:101960009F918F917F916F915F914F913F912F91B7
:101970001F910F91FF90EF90DF90CF900F900FBECF
:101980000F901F901895EF92FF920F931F93CF9394
:10199000DF9300D0CDB7DEB7142F91E090933D02D6
:1019A00080935F0210923E021092600281EB92E0FF
:1019B00029833A830E94BE072981022FE22E3A81B1
:1019C000F32E8E2D801B811740F4F70161917F016A
:1019D00081EB92E00E94BE07F4CF0E94F11091E0EB
:1019E000811190E0892F0F900F90DF91CF911F917F
:1019F0000F91FF90EF900895CF93DF931F92CDB793
:101A0000DEB749839E012F5F3F4F41E00E94C30C28
:101A10000F90DF91CF9108952F923F924F925F9256
:101A20006F927F928F929F92AF92BF92CF92DF92EE
:101A3000EF92FF920F931F93CF93DF93CDB7DEB753
:101A400027970FB6F894DEBF0FBECDBF8F83962EBB
:101A5000742F59018FB7F894C090A503D090A603B6
:101A6000E090A703F090A8038FBF5F81550F5B83C1
:101A7000812C312C2224239450E05D834C83280157
:101A8000612C712C871608F0A4C020923D025F8162
:101A900050935F0210923E0210926002692D81EB1A
:101AA00092E07E830E94BE070E94F11020923D02C8
:101AB0005F8150935F0210923E02109260027E811D
:101AC00080913C028111FCCF2C813D812819310984
:101AD0002132310514F020E230E0213208F020E21A
:101AE00020923C0220923B028FEF80933A021092A8
:101AF0003902820F809338022092170280911702D8
:101B00004B81842B8093170280911602813071F4EF
:101B100010921602809117028093BB008091BC0046
:101B200083FDF8CF55EC5093BC0003C085EE809345
:101B3000BC0080913C028130E1F380913902821730
:101B400010F420913902A8E1B2E0E9EEF1E08E2F25
:101B500049EE51E0841B821718F48D918193F7CFE1
:101B600010921202209311029091110280911202A0
:101B7000981749F10115110591F4A501430D511D67
:101B800037FC5A955A83498381EB92E07E830E9409
:101B90004407E981FA81808333947E81E5CF2FB7B2
:101BA000F8948091A5039091A603A091A703B0910A
:101BB000A8032FBF8C199D09AE09BF09841595058F
:101BC000A605B705D0F2872F713208F080E2880EA3
:101BD00059CF0115110509F12FB7F8948091A5038C
:101BE0009091A603A091A703B091A8032FBF8C19D1
:101BF0009D09AE09BF0920E030E080179107A207D8
:101C0000B30758F0272F30E0832D032C000C990BDD
:101C10008217930714F433243A94832D27960FB632
:101C2000F894DEBF0FBECDBFDF91CF911F910F9112
:101C3000FF90EF90DF90CF90BF90AF909F908F90EC
:101C40007F906F905F904F903F902F900895BF923C
:101C5000CF92DF92EF92FF920F931F93CF93DF9378
:101C60001F92CDB7DEB7F82EE62EC42EB22ED02EA0
:101C700008EE13E09E012F5F3F4F41E00E940C0DE4
:101C8000882321F1EC2DF0E0EB19F109319621E0E8
:101C900030E002C0220F331FBA94E2F7215031091D
:101CA0000E2E01C0220F0A94EAF78D2D01C0880F75
:101CB000EA95EAF7422F4095998149232823422B40
:101CC00049836E2D8F2D0E94FC0C01C080E00F9087
:101CD000DF91CF911F910F91FF90EF90DF90CF9008
:101CE000BF900895CF92DF92EF92FF920F931F93D0
:101CF000CF93DF931F92CDB7DEB7F82EE62ED42E0A
:101D0000C22E08EE13E09E012F5F3F4F41E00E947C
:101D10000C0D9981CC2041F041E050E001C0440F0E
:101D2000DA94EAF7492B09C021E030E0A90101C0AB
:101D3000440FDA94EAF74095492349836E2D8F2D9D
:101D40000E94FC0C0F90DF91CF911F910F91FF909B
:101D5000EF90DF90CF9008951F920F920FB60F92E1
:101D600011242F933F934F935F936F937F938F93A0
:101D70009F93AF93BF93EF93FF938091B900887FB8
:101D8000803609F49CC068F5883209F45BC090F491
:101D9000803109F454C038F4882309F4F6C088303F
:101DA00009F44DC0F6C0883109F44CC0803209F402
:101DB0005DC0EFC0803409F468C048F4803309F492
:101DC00055C0883309F0E5C080933A02D8C0803509
:101DD00009F44FC0883509F45DC0883409F0D9C0D2
:101DE000D6C0883909F4C7C0A8F4883709F467C099
:101DF00038F4883609F463C0803709F460C0C9C07C
:101E0000883809F4B8C0803909F45FC0803809F017
:101E1000C0C05BC0803B09F486C038F4803A09F446
:101E200066C0883A09F47FC0B4C0803C09F4A7C0FA
:101E3000883C09F4A4C0883B09F48AC0AAC08091F8
:101E4000170210C09091390280913802981770F5EE
:101E5000E091390281E08E0F80933902F0E0E85E74
:101E6000FD4F80818093BB0085EC86C080933A0251
:101E70008EC0E091390281E08E0F8093390280910B
:101E8000BB00F0E0E85EFD4F8083909139028091C5
:101E900038026EC0E091390281E08E0F80933902E2
:101EA0008091BB00F0E0E85EFD4F808380913B02B3
:101EB00081116DC081E08093160284EA61C083E0E5
:101EC00080933C021092E801CFCF8091E8018032EC
:101ED00008F051C0E091E80181E08E0F8093E801A5
:101EE0008091BB00F0E0E853FE4F8083BDCF85ECCE
:101EF0008093BC0010923C028091E801803230F463
:101F0000E091E801F0E0E853FE4F10826091E801B3
:101F100070E0E091C601F091C70188EC91E009956D
:101F20001092E80136C084E080933C021092C50113
:101F30001092C401E091C201F091C3010995809112
:101F4000C401811105C081E08093C4011092A201F7
:101F5000E091C50181E08E0F8093C501F0E0EE5560
:101F6000FE4F80818093BB009091C5018091C40198
:101F7000981708F479CF85E88093BC000AC085ECF7
:101F80008093BC0010923C0204C010923A020E945E
:101F90005C07FF91EF91BF91AF919F918F917F91DE
:101FA0006F915F914F913F912F910F900FBE0F90C6
:101FB0001F901895CB01181619062CF0009731F4D4
:101FC00020E030E005C021E030E002C022E030E057
:101FD0003093F3022093F2020E9426097093990035
:101FE0006093980020919400309195008091980022
:101FF000909199008217930720F410929500109207
:1020000094000895CB01181619062CF0009731F4AE
:1020100020E030E005C021E030E002C022E030E006
:102020003093FC022093FB020E94260970938900E2
:102030006093880020918400309185008091880011
:10204000909189008217930720F4109285001092D6
:1020500084000895CF93DF93EC018DE491E09983A0
:10206000888381E791E00E94E31061E088E00E94AC
:102070009E1360E070E0CE010E94021060E070E00C
:10208000CE01DF91CF910C94DA0FCF93DF93EC0167
:102090000E942A10CE01DF91CF910C942C252DE5C2
:1020A00031E0FC013183208344960C942A10CF93B5
:1020B000DF93EC010E944F10CE01DF91CF910C9481
:1020C0002C251F920F920FB60F9211242F933F933E
:1020D0004F935F936F937F938F939F93AF93BF9330
:1020E000EF93FF938CEE92E00E94F608FF91EF9140
:1020F000BF91AF919F918F917F916F915F914F9120
:102100003F912F910F900FBE0F901F9018951F9227
:102110000F920FB60F9211242F933F934F935F931B
:102120006F937F938F939F93AF93BF93EF93FF939F
:1021300085EF92E00E94F608FF91EF91BF91AF9179
:102140009F918F917F916F915F914F913F912F91CF
:102150000F900FBE0F901F90189508950895089541
:10216000CF93DF93EC01092E000CAA0BBB0B8093DD
:102170003E0390933F03A0934003B0934103BE01FD
:1021800082E193E00E940210BE0182E193E0DF91C0
:10219000CF910C94DA0FBC01009791F0FC010190F3
:1021A0000020E9F73197AF01481B590BE09161021C
:1021B000F09162020280F381E02D81E692E00994C1
:1021C00080E090E00895CF93DF930E94CB10EC0164
:1021D0008FE991E00E94CB108C0F9D1FDF91CF9172
:1021E00008952091600290915F02213208F04AC068
:1021F00080913C028111FCCF32E030933C0231E00F
:1022000030933B023FEF30933A0210923902209311
:102210003802AFE3B2E048E152E0FA013E2F341B4E
:10222000321718F43D913193F9CF10921702209193
:102230001702990F922B90931702909116029130EA
:1022400061F410921602909117029093BB00909146
:10225000BC0093FDF8CF95EC01C095EE9093BC00C7
:1022600090913C029230E1F390913A029F3F79F0D5
:1022700080913A02803241F080913A02803331F00D
:1022800084E005C081E003C082E001C083E01092D9
:102290003E021092600210923D0208950F931F9328
:1022A000CF93DF93C9EDD2E008EE13E02AED32E0E0
:1022B00041E06AE388810E940C0D8981DF91CF9112
:1022C0001F910F91089521E042E06AE68091D902C2
:1022D0000C94720E482F6EE68091D9020C94FC0C7F
:1022E0002F923F924F925F926F927F928F929F9226
:1022F000AF92BF92CF92DF92EF92FF920F931F9314
:10230000CF93DF933C015B01342ED22F202E4F71EF
:102310006DE68091D9020E94FC0C8D2F0E946A11FB
:1023200080E190E00E9497246C01002339F080E165
:1023300090E00E949724C82F492E02C0C0E0412C93
:10234000E12CF12CEA14FB0408F06EC0C7014096A2
:10235000A816B90618F45A2C5E1802C080E1582E4F
:10236000852D90E020E031E02D1B31092817390739
:1023700014F45D2E5194F301EE0DFF1D222059F04F
:102380009C2FAC2FB42D8A2F891B851530F4849196
:102390008D933196F8CFCE2F4F2E2C2F342D452DE7
:1023A0006FE68091D9020E94C30C852C912CC11438
:1023B000D10429F1432D4F716DE68091D9020E941D
:1023C000FC0C8D2F0E946A1108EE13E09601452D3A
:1023D0006FE68091D9020E940C0DA401B6018C2FEA
:1023E000942D0E949326892B51F0C6010E942C2522
:1023F000222021F18C2F942D0E942C251FC0E80C47
:10240000F91CD50DEA14FB0408F09CCFD11101C0D2
:102410003394432D4F716DE68091D9020E94FC0CDC
:102420008D2F0E946A118ECFC6010E942C2522207A
:1024300039F08C2F942D0E942C2502C080E001C021
:1024400081E0DF91CF911F910F91FF90EF90DF908E
:10245000CF90BF90AF909F908F907F906F905F9044
:102460004F903F902F9008950F931F93662351F044
:10247000462F9C0108EE13E064E78091D9020E9488
:102480000C0D02C0FC0110821F910F9108950F9353
:102490001F93CF93DF93C9EDD2E008EE13E02AED4E
:1024A00032E042E062E788810E940C0D898190E071
:1024B000982F88272A81822BDF91CF911F910F912E
:1024C0000895EF92FF920F931F93CF93DF931F9284
:1024D000CDB7DEB77A0189019E012F5F3F4F41E002
:1024E0000E940C0D882339F029812E7730E0359534
:1024F0002795F70120830F90DF91CF911F910F91C6
:10250000FF90EF9008950F931F93CF93DF938C016B
:10251000C0E0D0E0F801EC0FFD1F6491662371F07C
:10252000E0916102F09162020190F081E02D81E67C
:1025300092E00995892B11F02196ECCFCE01DF9125
:10254000CF911F910F910895CF93DF930E94831233
:10255000EC018FE991E00E94CB108C0F9D1FDF9161
:10256000CF9108958F929F92AF92BF920F931F9336
:10257000CF93DF93CDB7DEB7A1970FB6F894DEBF48
:102580000FBECDBF19A2423008F44AE08E010F5DA4
:102590001F4F842E912CA12CB12CA50194010E94D7
:1025A0006F24E62FB901CA0101501109EA3014F471
:1025B000E05D01C0E95CD801EC93232B242B252B93
:1025C00061F7C8010E94CB10A1960FB6F894DEBF48
:1025D0000FBECDBFDF91CF911F910F91BF90AF90F4
:1025E0009F908F900895CF93DF93EA0191E09093AD
:1025F0003D0280935F0210923E021092600281EBD6
:1026000092E00E94BE07698181EB92E00E94BE07C2
:10261000688181EB92E00E94BE070E94F11091E078
:10262000811190E0892FDF91CF910895CF92DF92B1
:10263000EF92FF92CF93DF936C01990FEE08FF08A2
:10264000F7FE1AC0E0916102F09162020190F08100
:10265000E02D6DE281E692E00995EC01662777278F
:10266000CB016C197D098E099F094AE00E94B212C4
:102670007C01EC0EFD1E06C04AE0C701B6010E94B7
:10268000B2127C018FE991E00E94CB108E0D9F1D4C
:10269000DF91CF91FF90EF90DF90CF900895FC01F4
:1026A00080911502811103C08FEF9FEF08959FB7AE
:1026B000F89482E08093E9002091F20030E0121655
:1026C000130614F421E030E02115310559F0289863
:1026D00084E6809314028091F10080838091F2005F
:1026E000882319F09FBFC90108958BE68093E80005
:1026F000F9CF2FB7F89483E08093E9009091E80038
:10270000892F807295FF04C09091F20080E4891BAC
:102710002FBF089580919D0381110DC082E08093A9
:10272000990384E080939A0310929C0310929B0378
:1027300081E080939D0389E993E00895362F90E02E
:10274000FC01E853F44F4491FC01E755F44F249108
:10275000FC01E657F44F8491882309F451C04423C7
:10276000E1F150E0FA013197EF30F105B0F5EA5AA6
:10277000FF4F0C949124909180009F7707C0909117
:1027800080009F7D03C090918000977F9093800090
:1027900024C094B59F7702C094B59F7D94BD1DC0A1
:1027A000909190009F7707C0909190009F7D03C00B
:1027B00090919000977F909390000FC09091C000EF
:1027C0009F7703C09091C0009F7D9093C00005C08B
:1027D0009091C200977F9093C200E82FF0E0EE0F37
:1027E000FF1FE458F44FA591B4918FB7F894EC9182
:1027F000311103C020952E2301C02E2B2C938FBFA7
:102800000895CF93DF9390E0FC01E755F44F2491B6
:10281000FC01E657F44F8491882361F190E0880F22
:10282000991FFC01E259F44FC591D491FC01E45881
:10283000F44FA591B491611109C09FB7F8948881B4
:10284000209582238883EC912E230BC0623061F4A3
:102850009FB7F8943881822F809583238883EC91E9
:102860002E2B2C939FBF06C08FB7F894E8812E2B98
:1028700028838FBFDF91CF910895823108F0825174
:10288000E82FF0E0E951F44FE49180917B00E3FB05
:10289000222720F930E095E0220F331F9A95E1F7C7
:1028A0008F7D282B20937B00E770E064E0937C0011
:1028B00080917A00806480937A0080917A0086FD0E
:1028C000FCCF809178002091790090E0922B0895C0
:1028D0003FB7F8948091AA039091AB03A091AC0309
:1028E000B091AD0326B5A89B05C02F3F19F0019606
:1028F000A11DB11D3FBFBA2FA92F982F8827820F86
:10290000911DA11DB11DBC01CD0142E0660F771FD5
:10291000881F991F4A95D1F708958F929F92AF9281
:10292000BF92CF92DF92EF92FF926B017C010E94E7
:1029300068144B015C01C114D104E104F104F1F00D
:102940000E946814DC01CB0188199909AA09BB0906
:10295000883E9340A105B10570F321E0C21AD10869
:10296000E108F10888EE880E83E0981EA11CB11CD6
:10297000C114D104E104F10419F7DDCFFF90EF9009
:10298000DF90CF90BF90AF909F908F9008951F924F
:102990000F920FB60F9211242F933F938F939F9313
:1029A000AF93BF938091A5039091A603A091A70335
:1029B000B091A8033091A90323E0230F2D3720F411
:1029C0000196A11DB11D05C026E8230F0296A11D89
:1029D000B11D2093A9038093A5039093A603A09310
:1029E000A703B093A8038091AA039091AB03A09191
:1029F000AC03B091AD030196A11DB11D8093AA0354
:102A00009093AB03A093AC03B093AD03BF91AF9190
:102A10009F918F913F912F910F900FBE0F901F901C
:102A20001895CF93DF93CDB7DEB7CE5AD1090FB645
:102A3000F894DEBF0FBECDBF789484B5826084BDAC
:102A400084B5816084BD85B5826085BD85B58160B2
:102A500085BD80916E00816080936E001092810030
:102A600080918100826080938100809181008160EB
:102A700080938100809180008160809380008091AC
:102A80009100826080939100809191008160809399
:102A90009100809190008160809390008091C100AE
:102AA00084608093C1008091C10082608093C100E6
:102AB0008091C10081608093C1008091C3008160DA
:102AC0008093C3008091C00082608093C000809199
:102AD000C20081608093C20080917A0084608093FC
:102AE0007A0080917A00826080937A0080917A00E7
:102AF000816080937A0080917A00806880937A0068
:102B0000109215021092100210920F028091D700BD
:102B100081608093D70080EA8093D80089B5806176
:102B200089BD89B5826089BD09B400FEFDCF61E031
:102B300070E080E090E00E948D148091D8008F7C3E
:102B400080618093D8008091E000807F8093E000D6
:102B50008091E1008E7E8093E1008DE08093E20021
:102B6000559A209AEEEFFFE7859194918B3F9C4D0B
:102B700019F481E080930E0261E088E00E94011464
:102B800061E089E00E94011461E08AE00E94011482
:102B900061E08BE00E94011461E08CE00E9401146E
:102BA00060E087E00E9401148FEF9FEF90936E0228
:102BB00080936D0283E791E00E94E310109212026D
:102BC0001092110210923E021092600210923C028A
:102BD00081E080933B021092160261E082E00E9445
:102BE0009E1361E083E00E949E138091B9008E7F66
:102BF0008093B9008091B9008D7F8093B90088E4FB
:102C00008093B80085E48093BC008CE08093B8008A
:102C100083E49BE00E94A41201E023E042E06BE623
:102C20008091D9020E94270E00E022E044E06BE18F
:102C30008091D9020E94270E22E044E06CE180914D
:102C4000D9020E94270E20E046E06BE68091D9026F
:102C50000E94720E80E39BE00E94A41228EE33E0F3
:102C60004AED52E065E78091D9020E94611280919D
:102C7000DA02843319F084EE9AE002C08EEF9AE013
:102C80000E94A4128CE19BE00E94A41221E047E084
:102C90006BE68091D9020E94720E6EE170E080E0D6
:102CA00090E00E948D1420E046E06BE68091D9020E
:102CB0000E94720E40E76DE68091D9020E94FC0CE2
:102CC00086E00E946A1140E06DE68091D9020E9480
:102CD000FC0C28EE33E04AED52E060E08091D9022E
:102CE0000E9461128090DA0228EE33E04AED52E051
:102CF00061E08091D9020E9461129090DA0228EE80
:102D000033E04AED52E062E08091D9020E94611204
:102D1000A090DA024FE765E28091D9020E94FC0C94
:102D200020E045E06AE68091D9020E94720E48E6F2
:102D300065E28091D9020E94FC0C21E041E06AE644
:102D40008091D9020E94720E64E170E080E090E010
:102D50000E948D1401E020E040E069E877E08EED0C
:102D600092E00E947011882309F4CDC288E090E0BF
:102D70000E949724B82E192FE12CF12CF701E25E66
:102D8000FD4F4491F701E15EFD4F2491670133E06F
:102D9000C30ED11CF701E05EFD4FE491EE23D1F1AB
:102DA000EE2EF12CE330D8F0B7018B2D912FC255C8
:102DB000DF4F2883CE5AD040C355DF4F4883CD5ACA
:102DC000D0400E94C425B82E192FC355DF4F48812B
:102DD000CD5AD040C255DF4F2881CE5AD040AB2DBE
:102DE000B12F80E090E08E159F0548F4F601E80FC2
:102DF000F91FE25EFD4FE491ED930196F4CF00E000
:102E0000B7018B2D912F0E947011EC0CFD1C8111CC
:102E100017C010C044E0E40EF11CF601E25EFD4F65
:102E2000E491E13039F442E368E38091D9020E94F1
:102E3000FC0C06C08B2D912F0E942C2582E064C2D1
:102E400050ECE516F10408F499CF8B2D912F0E94D8
:102E50002C2503E023E042E06BE68091D9020E943A
:102E6000270E42E168E38091D9020E94FC0C44E005
:102E700069E18091D9020E94FC0C01E023E045E069
:102E80006AE18091D9020E94270E03E023E042E02C
:102E90006AE18091D9020E94270E22E044E06BE1B2
:102EA0008091D9020E94270E43E060E78091D90209
:102EB0000E94FC0C40E061E78091D9020E94FC0C6A
:102EC00020E040E060E08091D9020E94720E082D5F
:102ED00026E046E060E08091D9020E94270E092D8D
:102EE00026E046E061E08091D9020E94270E0A2D7B
:102EF00026E046E062E08091D9020E94270EE12C94
:102F0000F12CF701E151FE4FE491A1E8B0E0AC0FE4
:102F1000BD1FAE0DB11DEC9381E08E0D9FEFE91A40
:102F2000F90AA3E0AE1568F7CD57DF4F6881C358A3
:102F3000D04070E09B012E5F3F4F90E0281739078B
:102F400004F700E0CE57DF4F2881C258D040CF575A
:102F5000DF4F4881C158D04081E890E08C0F9D1F21
:102F600003960E94701180E0F701E151FE4FE49159
:102F7000A1E8B0E0AC0FBD1FA80FB11DEC938F5FAF
:102F8000BFEFEB1AFB0A843078F3CD57DF4F68812F
:102F9000C358D04070E0AB014E5F5F4F282F30E048
:102FA000421753070CF700E0CE57DF4F2881C25875
:102FB000D040CF57DF4F4881C158D04081E890E0E2
:102FC0008C0F9D1F03960E9470110E9463110E9436
:102FD0004712682FCE0101960E94341242E06FE141
:102FE0008091D9020E94FC0C4CE961E28091D902E7
:102FF0000E94FC0C40E560E28091D9020E94FC0C2A
:1030000040E062E28091D9020E94FC0C0E946311B0
:1030100021E046E06AE68091D9020E94720E21E02A
:1030200047E06AE68091D9020E94720E21E043E0F7
:103030006AE68091D9020E94720E80E0F701E151A8
:10304000FE4FE491A1E8B0E0AC0FBD1FA80FB11D89
:10305000EC938F5F2FEFE21AF20A843078F3CD57AA
:10306000DF4F6881C358D04070E0AB014E5F5F4FC7
:10307000282F30E0421753070CF700E0CE57DF4F00
:103080002881C258D040CF57DF4F4881C158D04027
:1030900081E890E08C0F9D1F03960E94701180E0E4
:1030A000F701E151FE4FE491A1E8B0E0AC0FBD1F84
:1030B000A80FB11DEC938F5F3FEFE31AF30A843042
:1030C00078F3CD57DF4F6881C358D04070E0AB0133
:1030D0004E5F5F4F282F30E0421753070CF700E098
:1030E000CE57DF4F2881C258D040CF57DF4F48819D
:1030F000C158D04081E890E08C0F9D1F03960E943C
:10310000701180E0F701E151FE4FE491A1E8B0E0D9
:10311000AC0FBD1FA80FB11DEC938F5F4FEFE41AEA
:10312000F40A843078F3CD57DF4F6881C358D0401C
:1031300070E0AB014E5F5F4F282F30E0421753071E
:103140000CF700E0CE57DF4F2881C258D040CF5750
:10315000DF4F4881C158D04081E890E08C0F9D1F1F
:1031600003960E9470110E94471283309105D8F394
:10317000682FCE0101960E94341280E0F701E151E0
:10318000FE4FE491A1E8B0E0AC0FBD1FA80FB11D48
:10319000EC938F5F5FEFE51AF50A843078F3CD5733
:1031A000DF4F3880C358D040832C912CA4014E5F50
:1031B0005F4F282F30E04217530704F7CE57DF4FF9
:1031C000B880C258D040CF57DF4F2880C158D04078
:1031D000422D4F716DE68091D9020E94FC0C8B2D1F
:1031E0000E946A11C12CD12C612C7724739471E850
:1031F000472E512C4C0E5D1E83E0480E511CC81406
:10320000D90498F5C60140968816990618F4A32C9F
:10321000AC1802C050E1A52E8A2D90E093012B1925
:1032200031092817390714F4AB2CA19492012C0D05
:103230003D1D08EE13E04A2D6FE68091D9020E94F1
:103240000C0DCA0CD11CBA0CC814D904C0F6B110AC
:1032500001C02394422D4F716DE68091D9020E94E6
:10326000FC0C8B2D0E946A11CACF0E94471283303A
:103270009105D8F3682FCE0101960E943412F70110
:10328000E151FE4F80E09491A1E8B0E0AC0FBD1F8A
:10329000A80FB11D9C938F5F843010F43196F3CF4B
:1032A000CD57DF4F6881C358D04070E0AB014E5F0F
:1032B0005F4F282F30E04217530784F700E0CE57C6
:1032C000DF4F2881C258D040CF57DF4F4881C158C7
:1032D000D04081E890E08C0F9D1F03960E947011F2
:1032E00020E047E06AE68091D9020E94720E8AE2ED
:1032F00090E09093DC028093DB020E9463110E94B5
:103300004E1180E001C081E0809348038091D90292
:103310002CED30E0CD56DF4F39832883C359D040A0
:10332000AE014D565F4F63E10E94F3128091D902C6
:103330002CE430E0CF56DF4F39832883C159D04089
:10334000AE014F565F4F65E10E94F3128091D902A2
:103350002BEA3FEFCF57DF4F39832883C158D04046
:10336000AE014F575F4F67E10E94F3128091D9027F
:103370002CEF36E03A832983AE014F5F5F4F6AE05E
:103380000E94F31210914803111145C084ED9AE098
:103390000E94A41221E047E06AE68091D9020E94CF
:1033A000720E84EB9AE00E94A412809144039091E3
:1033B0004503009709F4B2C28130910509F4B0C207
:1033C0008230910509F4AEC28330910509F4ADC293
:1033D000079769F4A9C2133008F0C2C2113009F48A
:1033E000B8C280916900836080936900E89A0E9466
:1033F0004E11809347038AE89AE00E94A41281E06C
:10340000809346038091DB029091DC0290934A0303
:103410008093490310C089E69AE00E94831260916C
:10342000480370E080E090E04AE00E94B21287E634
:103430009AE00E94A41261E08091F7020E940114B8
:1034400061E08091F9020E9401141092FC02109236
:10345000FB0261E08091EE020E94011461E0809124
:10346000F0020E9401141092F3021092F20281E71E
:1034700091E00E94E31061E088E00E949E1360E00A
:1034800070E082E193E00E94021060E070E082E16F
:1034900093E00E94DA0FF89410928000109281005D
:1034A000109285001092840028EE33E0309389005A
:1034B00020938800809181008860809381008091B2
:1034C000810084608093810080916F00826080938E
:1034D0006F0010929000109291001092950010923F
:1034E0009400309399002093980080919100886017
:1034F00080939100809191008460809391008091ED
:10350000710082608093710078948091140390918F
:103510001503A0911603B09117038093260390938F
:103520002703A0932803B093290380911803909157
:103530001903A0911A03B0911B0380932A0390935F
:103540002B03A0932C03B0932D0380911C03909127
:103550001D03A0911E03B0911F0380932E0390932F
:103560002F03A0933003B093310304E010E084E60E
:1035700090E00E94B01062E370E080E090E00E9472
:103580008D148CE99FEF0E94B0106EE170E080E036
:1035900090E00E948D140150110949F780E090E0FD
:1035A0000E94B0100E94681460933A0370933B032A
:1035B00080933C0390933D0381E791E00E94E310E8
:1035C00060E088E00E949E1384E891E00E94E3108E
:1035D00000E010E080914603882351F120914B03D5
:1035E00030914C038091490390914A03409113021A
:1035F000411103C028173907C8F3109213020E9423
:103600004E11809347030E9447129C0190934C03F4
:1036100080934B039091470394FD04C021153440DF
:1036200009F0B1C10E9463118FE59BE00E94A412D2
:103630008090910390909203A0909303B090940394
:103640000E946814CB56DF4F688379838A839B83FB
:10365000C559D04080913A0390913B03A0913C031F
:10366000B0913D03CB56DF4F288139814A815B8180
:10367000C559D040281B390B4A0B5B0BCA01B90155
:103680000E9475216B017C0160910E0370910F0304
:1036900080911003909111030E9475219B01AC0150
:1036A000C701B6010E944E2287FD10C120E034E21E
:1036B00044E759E4C701B6010E94CD202B013C012B
:1036C0006091220370912303809120039091210344
:1036D000680F791F072E000C880B990B0E94772129
:1036E0006B017C0120E030E044E353E4C501B40108
:1036F0000E945B222BED3FE049E450E40E94CD2084
:103700009B01AC01C701B6010E94E91F6B017C015E
:10371000A30192010E945B22209132033091330376
:1037200040913403509135030E94EA1F4B015C0124
:103730006093320370933303809334039093350383
:1037400020912603309127034091280350912903AB
:10375000C701B6010E945B22C756DF4F6883798399
:103760008A839B83C959D040209136033091370317
:103770004091380350913903C701B6010E94E91FF7
:1037800020912A0330912B0340912C0350912D035B
:103790000E945B22A30192010E94CD20C356DF4FFD
:1037A000688379838A839B83CD59D04020912E03EF
:1037B00030912F034091300350913103C501B40182
:1037C0000E945B224B015C01C0923603D09237030A
:1037D000E0923803F0923903C356DF4F28813981D4
:1037E0004A815B81CD59D040C756DF4F68817981CE
:1037F0008A819B81C959D0400E94EA1FA50194018A
:103800000E94EA1F4B015C01C0900A03D0900B0399
:10381000E0900C03F0900D032601370177FA7094C5
:1038200077F87094A30192010E94C82087FD0BC015
:10383000A7019601B401C5010E944E2218162CF072
:103840006401750102C07301620160913E037091D1
:103850003F0380914003909141030E9477219B0197
:10386000AC01C701B6010E94EA1F6B017C0120E098
:1038700030E04FE753EC0E94C82087FD10C020E0E5
:1038800030E04FE753E4C701B6010E944E221816FC
:103890004CF0C701B6010E943F21CB0105C081E079
:1038A0009FEF02C08FEF90E00E94B010CB56DF4F29
:1038B00088819981AA81BB81C559D04080933A0300
:1038C00090933B03A0933C03B0933D0382E00E949E
:1038D0003D145C0181E00E943D146C0180E00E9477
:1038E0003D147C0183E991E00E94CB10C5010E9448
:1038F000161387E991E00E94CB10C6010E941613AF
:103900008BE991E00E94CB10C7010E9416130115AC
:10391000110509F45FCE0E9400005CCE12E005C0E4
:1039200013E003C011E001C014E0E12FF0E0EE0F5E
:10393000FF1FE45FFE4F8DEE97E09183808312308E
:1039400009F049CD80916900806380936900EA9A0B
:103950004ECD809169008C6080936900E99A47CDD3
:10396000133039F480916900806C80936900EB9A80
:103970003ECD143009F035CD80916A00806380938C
:103980006A00EE9A34CD91FF53CE60914903709155
:103990004A0380914B0390914C038617970738F4A4
:1039A0000E94471290934C0380934B03EECF8DE41B
:1039B00093E00E94341280914B0390914C0320912C
:1039C000490330914A03821B930B90934C038093DD
:1039D0004B038DE493E0892B29F4E091D902F09117
:1039E000DA0202C0EDE4F3E06480712C762C6624E8
:1039F0008581682AC084D12CDC2CCC248185C82AFE
:103A0000E484F12CFE2CEE248585E82A608170E0A8
:103A1000762F66278181682B072E000C880B990B67
:103A20000E94772120E030E040E858E30E945B22CA
:103A30004B015C016093C9027093CA028093CB0270
:103A40009093CC02B301770C880B990B0E947721DD
:103A500020E030E040E858E30E945B222B013C016B
:103A60006093CD027093CE028093CF029093D002E8
:103A7000B601DD0C880B990B0E94772120E030E025
:103A800040E858E30E945B22CB56DF4F688379837E
:103A90008A839B83C559D0406093D1027093D20230
:103AA0008093D3029093D402B701FF0C880B990B3B
:103AB0000E94772120E030E040E858E30E945B223A
:103AC000C756DF4F688379838A839B83C959D04067
:103AD0006093D5027093D6028093D7029093D80258
:103AE0009B01AC01C301B2010E945B226B017C010E
:103AF000CB56DF4F288139814A815B81C559D0403F
:103B0000C501B4010E945B229B01AC01C701B60153
:103B10000E94E91F9B01AC010E94EA1FC356DF4FC0
:103B2000688379838A839B83CD59D0406093BD029B
:103B30007093BE028093BF029093C002A3019201D2
:103B4000C501B4010E945B226B017C01C756DF4FA7
:103B5000288139814A815B81C959D040CB56DF4FDA
:103B6000688179818A819B81C559D0400E945B22FE
:103B70009B01AC01C701B6010E94EA1F9B01AC0189
:103B80000E94EA1FCF55DF4F688379838A839B8326
:103B9000C15AD0406093C1027093C2028093C302A5
:103BA0009093C402A5019401C501B4010E945B2257
:103BB0006B017C01A3019201C301B2010E945B224F
:103BC0009B01AC01C701B6010E94E91F6B017C019A
:103BD000CB56DF4F288139814A815B81C559D0405E
:103BE000CA01B9010E945B229B01AC01C701B60169
:103BF0000E94E91F6B017C01C756DF4F2881398184
:103C00004A815B81C959D040CA01B9010E945B2237
:103C10009B01AC01C701B6010E94EA1F6B017C0148
:103C20006093C5027093C6028093C7029093C80246
:103C3000A5019401C501B4010E94EA1FCB55DF4FD5
:103C4000688379838A839B83C55AD040A3019201FC
:103C5000C301B2010E94EA1FC755DF4F6883798311
:103C60008A839B83C95AD040A5019401CB55DF4F6D
:103C7000688179818A819B81C55AD0400E945B22EC
:103C80004B015C01A3019201C755DF4F6881798127
:103C90008A819B81C95AD0400E945B229B01AC0162
:103CA000C501B4010E94EA1F20E030E040E85FE374
:103CB0000E94E91F4B015C01CB56DF4F28813981FF
:103CC0004A815B81C559D040C755DF4F68817981F2
:103CD0008A819B81C95AD0400E945B222B013C0102
:103CE000C756DF4F288139814A815B81C959D0404D
:103CF000CB55DF4F688179818A819B81C55AD0403D
:103D00000E945B229B01AC01C301B2010E94E91F2A
:103D1000A50194010E94692060938D0370938E0326
:103D200080938F0390939003A7019601C701B6017A
:103D30000E945B226B017C01CF55DF4F28813981C6
:103D40004A815B81C15AD040CA01B9010E945B22FD
:103D5000A70196010E94EA1F0E941E239B01AC014D
:103D6000C356DF4F688179818A819B81CD59D040CC
:103D70000E94CD200E94992060939103709392033A
:103D80008093930390939403C356DF4F2881398126
:103D90004A815B81CD59D040CA01B9010E945B22A2
:103DA000A70196010E94EA1F0E941E239B01AC01FD
:103DB000CF55DF4F688179818A819B81C15AD0407C
:103DC0000E94CD200E9499206093950370939603E2
:103DD00080939703909398032BCC8EEF92E00C94F2
:103DE0004F10E1E6F2E01382128288EE93E0A0E049
:103DF000B0E084839583A683B78329E231E03183E1
:103E000020832FEF3FEF35872487E1EBF2E0138229
:103E1000128284839583A683B7838BE391E0918399
:103E20008083E2E4F3E08DE691E09183808387E094
:103E300090E0938382831482158216821086178203
:103E40001286118610928D0310928E0310928F03AA
:103E50001092900310929103109292031092930388
:103E60001092940310929503109296031092970368
:103E700010929803EEEFF2E08DE591E0918380835C
:103E80001382128280E090E0AFE7B3E484839583ED
:103E9000A683B7831086118612861386848795873A
:103EA000A687B78780E197E2A0E0B0E0808B918B96
:103EB000A28BB38B8DE491E0958B848B83E393E3AA
:103EC000A3E3BFE3868B978BA08FB18F8AE999E933
:103ED000A9E9BFE3828F938FA48FB58F8AE999E90F
:103EE000A9E9BEE3868F978FA0A3B1A38EEF9FEFC2
:103EF00093A382A315A214A285E591E097A386A3BC
:103F000010A611A612A613A614A615A616A617A6E5
:103F100010AA11AA12AA13AA10AE11AE12AE13AEB5
:103F200014AA15AA16AA17AA14AE15AE16AE17AE85
:103F300010923E0310923F031092400310924103EF
:103F4000E5EFF2E085E691E0918380832AE030E0BE
:103F50003383228329E030E035832483178216825D
:103F60001086ECEEF2E0918380838CE090E0938306
:103F700082838BE090E0958384831782168281E0B0
:103F8000808788E68093D902E9ECF2E080E090E057
:103F9000A0E8BFE380839183A283B3831482158258
:103FA000168217821086118612861386148615864D
:103FB00016861786EDEBF2E01082118212821382D0
:103FC0001482158216821782108611861286138635
:103FD00008955058BB27AA270E9401200C94142250
:103FE0000E94062238F00E940D2220F039F49F3FF3
:103FF00019F426F40C94DC210EF4E095E7FB0C9404
:10400000D621E92F0E94252258F3BA1762077307B9
:104010008407950720F079F4A6F50C9447220EF456
:10402000E0950B2EBA2FA02D0B01B90190010C01C8
:10403000CA01A0011124FF27591B99F0593F50F4E0
:10404000503E68F11A16F040A22F232F342F442738
:10405000585FF3CF469537952795A795F040539530
:10406000C9F77EF41F16BA0B620B730B840BBAF000
:104070009150A1F0FF0FBB1F661F771F881FC2F76B
:104080000EC0BA0F621F731F841F48F4879577957F
:104090006795B795F7959E3F08F0B0CF9395880F39
:1040A00008F09927EE0F9795879508950E940622AC
:1040B00060F080E891E009F49EEF0E940D2228F064
:1040C00040E851E071F45EEF0CC00C94DC210C94DC
:1040D0004722E92FE0780E94252240F3092E052A85
:1040E000B1F3261737074807590738F00E2E07F89F
:1040F000E02569F0E025E0640AC0EF6307F800946A
:1041000007FADB01B9019D01DC01CA01AD01EF93A2
:104110000E94E4200E9414220E9499205F9155235E
:1041200039F02BED3FE049E450FD49EC0C94EA1FD7
:104130000895DF93DD27B92FBF7740E85FE31616B8
:10414000170648075B0718F4D92F0E9453229F9344
:104150008F937F936F930E945E23EAECF0E00E94BE
:10416000DF210E9414222F913F914F915F910E9475
:104170006E22DD2351F09058A2EA2AED3FE049EC8F
:104180005FE3D0785D270E940120DF910C94142218
:104190000E94B22108F481E008950E94E1200C946D
:1041A00014220E940D2258F00E94062240F029F4A9
:1041B0005F3F29F00C94D62151110C9448220C94A5
:1041C000DC210E94252268F39923B1F3552391F352
:1041D000951B550BBB27AA2762177307840738F076
:1041E0009F5F5F4F220F331F441FAA1FA9F335D0D3
:1041F0000E2E3AF0E0E832D091505040E695001C87
:10420000CAF72BD0FE2F29D0660F771F881FBB1F40
:10421000261737074807AB07B0E809F0BB0B802D1E
:10422000BF01FF2793585F4F3AF09E3F510578F04A
:104230000C94D6210C9448225F3FE4F3983ED4F3CB
:10424000869577956795B795F7959F5FC9F7880F1E
:10425000911D9695879597F90895E1E0660F771F70
:10426000881FBB1F621773078407BA0720F0621B01
:10427000730B840BBA0BEE1F88F7E09508950E942C
:1042800046216894B1110C94482208950E942D2271
:1042900088F09F5798F0B92F9927B751B0F0E1F007
:1042A000660F771F881F991F1AF0BA95C9F714C0B7
:1042B000B13091F00E944722B1E008950C9447225A
:1042C000672F782F8827B85F39F0B93FCCF38695F0
:1042D00077956795B395D9F73EF49095809570954D
:1042E00061957F4F8F4F9F4F0895E89409C097FBCA
:1042F0003EF490958095709561957F4F8F4F9F4FBD
:104300009923A9F0F92F96E9BB279395F695879500
:1043100077956795B795F111F8CFFAF4BB0F11F4C3
:1043200060FF1BC06F5F7F4F8F4F9F4F16C088236A
:1043300011F096E911C0772321F09EE8872F762FA0
:1043400005C0662371F096E8862F70E060E02AF0E1
:104350009A95660F771F881FDAF7880F96958795CD
:1043600097F90895990F0008550FAA0BE0E8FEEFA2
:1043700016161706E807F907C0F012161306E40729
:10438000F50798F0621B730B840B950B39F40A2622
:1043900061F0232B242B252B21F408950A2609F400
:1043A000A140A6958FEF811D811D089597F99F6704
:1043B00080E870E060E008959FEF80EC0895DF935F
:1043C000CF931F930F93FF92EF92DF927B018C01AB
:1043D000689406C0DA2EEF010E946E22FE01E89476
:1043E000A5912591359145915591A6F3EF010E9434
:1043F0000120FE019701A801DA9469F7DF90EF90A0
:10440000FF900F911F91CF91DF91089500240A949E
:104410001616170618060906089500240A9412169F
:104420001306140605060895092E0394000C11F4D2
:10443000882352F0BB0F40F4BF2B11F460FF04C07F
:104440006F5F7F4F8F4F9F4F089557FD9058440FD8
:10445000551F59F05F3F71F04795880F97FB991FE3
:1044600061F09F3F79F087950895121613061406A0
:10447000551FF2CF4695F1DF08C01616170618062D
:10448000991FF1CF86957105610508940895E89408
:10449000BB2766277727CB0197F908950E94B221A1
:1044A00008F48FEF08959B01AC0160E070E080E8B4
:1044B0009FE30C94CD200E946E220C9414220E9443
:1044C000062238F00E940D2220F0952311F00C9462
:1044D000D6210C94DC2111240C9448220E94252220
:1044E00070F3959FC1F3950F50E0551F629FF00147
:1044F000729FBB27F00DB11D639FAA27F00DB11D60
:10450000AA1F649F6627B00DA11D661F829F2227E8
:10451000B00DA11D621F739FB00DA11D621F839F6F
:10452000A00D611D221F749F3327A00D611D231F45
:10453000849F600D211D822F762F6A2F11249F5793
:1045400050409AF0F1F088234AF0EE0FFF1FBB1F96
:10455000661F771F881F91505040A9F79E3F510555
:1045600080F00C94D6210C9448225F3FE4F3983EEF
:10457000D4F3869577956795B795F795E7959F5FFF
:10458000C1F7FE2B880F911D9695879597F9089591
:10459000FA01EE0FFF1F309621053105A1F16115DB
:1045A000710561F48038BFE39B0749F16894903846
:1045B000810561F08038BFEF9B0741F099234AF5F0
:1045C000FF3FE1053105210519F1E8940894E795CD
:1045D000D901AA2329F4AB2FBE2FF85FD0F310C066
:1045E000FF5F70F4A695E0F7F73950F019F0FF3A45
:1045F00038F49F779F930DD00F9007FC9058089543
:1046000046F00C94DC2160E070E080E89FE30895C0
:104610004FE79F775F934F933F932F930E94F3232E
:104620002F913F914F915F910E945B220C946A23DE
:1046300019F416F40C94DC210C949C230E942D2276
:10464000B8F39923C9F3B6F39F57550B87FF0E9420
:10465000AA230024A0E640EA900180585695979539
:1046600028F4805C660F771F881F20F02617370715
:10467000480730F4621B730B840B202931294A2B25
:10468000A69517940794202531254A2758F7660FD9
:10469000771F881F20F026173707480730F4620B72
:1046A000730B840B200D311D411DA09581F7B901BD
:1046B000842F9158880F9695879508959B01AC019A
:1046C0000C945B2229F416F00C94D6210C9447220A
:1046D0000C94DC210E942D22A8F39638A0F707F84D
:1046E0000F92E8942BE33AEA48EB5FE70E947122CD
:1046F0000F920F920F924DB75EB70F920E943B241C
:10470000E7EFF0E00E94DF214F915F91EF91FF9181
:10471000E595EE1FFF1F49F0FE57E0684427EE0FB6
:10472000441FFA95E1F74195550B0E94B5230F9070
:1047300007FE0C94532208959F3F31F0915020F4CE
:10474000879577956795B795880F911D969587956D
:1047500097F9089591505040660F771F881FD2F740
:1047600008950C94D6210C949C230E942D22D8F3FA
:104770009923C9F3940F511DA3F39150504094F025
:1047800059F0882332F0660F771F881F91505040F0
:10479000C1F79E3F51052CF7880F911D969587957F
:1047A00097F908955F3FACF0983E9CF0BB27869543
:1047B00077956795B79508F4B1609395C1F7BB0FEE
:1047C00058F711F460FFE8CF6F5F7F4F8F4F9F4F17
:1047D000E3CF0C94482216F00C949C230C94DC211B
:1047E00068940C94D6210E942D22A8F39923C1F33A
:1047F000AEF3DF93CF931F930F93FF92C92FDD2763
:1048000088232AF02197660F771F881FDAF720E0A8
:1048100030E040E85FEB9FE3883920F0803E38F0DD
:1048200021968F770E94EA1FEFE1F1E004C00E9419
:10483000EA1FECE4F1E00E94DF218B01BE01EC01F4
:10484000FB2E6F5771097595771F880B990B0E9486
:10485000772128E132E741E35FE30E946E22AF2D2A
:104860009801AE01FF900F911F91CF91DF910E94AF
:1048700001200C941422FA01DC01AA0FBB1F9B013A
:10488000AC01BF5728F4222733274427507820C093
:10489000B75190F4AB2F0024469537952795011C0E
:1048A000A395D2F3002071F0220F331F441FB3955C
:1048B000DAF30ED00C94E91F61307105A0E88A0785
:1048C000B94630F49B01AC0166277727882790789A
:1048D000309621F020833183428353830895A1E2EF
:1048E0001A2EAA1BBB1BFD010DC0AA1FBB1FEE1F6A
:1048F000FF1FA217B307E407F50720F0A21BB30BB5
:10490000E40BF50B661F771F881F991F1A9469F730
:1049100060957095809590959B01AC01BD01CF018C
:104920000895EE0FFF1F0590F491E02D0994CF93A9
:10493000DF938230910510F482E090E0E091B003C3
:10494000F091B10320E030E0C0E0D0E0309711F109
:104950004081518148175907C0F04817590761F441
:1049600082819381209719F09B838A832BC0909337
:10497000B1038093B00326C02115310519F0421709
:10498000530718F49A01BE01DF01EF010280F381A1
:10499000E02DDCCF2115310509F1281B390B24301E
:1049A000310590F412968D919C91139761157105C4
:1049B00021F0FB019383828304C09093B103809321
:1049C000B003FD01329644C0FD01E20FF31F819355
:1049D0009193225031092D933C933AC02091AE031C
:1049E0003091AF03232B41F420911801309119012C
:1049F0003093AF032093AE0320911601309117013D
:104A00002115310541F42DB73EB740911A0150915F
:104A10001B01241B350BE091AE03F091AF03E217AD
:104A2000F307A0F42E1B3F0B2817390778F0AC01D1
:104A30004E5F5F4F2417350748F04E0F5F1F5093AE
:104A4000AF034093AE038193919302C0E0E0F0E0A6
:104A5000CF01DF91CF9108950F931F93CF93DF93F1
:104A6000009709F48CC0FC013297138212820091E6
:104A7000B0031091B1030115110581F4208131813A
:104A8000820F931F2091AE033091AF03281739078F
:104A900079F5F093AF03E093AE0371C0D80140E025
:104AA00050E0AE17BF0750F412962D913C9113972A
:104AB000AD012115310509F1D901F3CF9D01DA01CD
:104AC0003383228360817181860F971F821793073A
:104AD00069F4EC0128813981260F371F2E5F3F4F83
:104AE000318320838A819B8193838283452B29F4A0
:104AF000F093B103E093B00342C01396FC93EE939E
:104B00001297ED01499159919E01240F351FE2172B
:104B1000F30771F480819181840F951F029611969D
:104B20009C938E938281938113969C938E9312977C
:104B3000E0E0F0E0D80112968D919C9113970097D8
:104B400019F0F8018C01F6CF8D919C9198012E5FA0
:104B50003F4F820F931F2091AE033091AF03281770
:104B6000390769F4309729F41092B1031092B00319
:104B700002C0138212821093AF030093AE03DF9141
:104B8000CF911F910F910895A0E0B0E0EAECF5E21B
:104B90000C94AD26EC01009721F4CB010E949724E0
:104BA000B8C0FC01E60FF71F9C0122503109E21743
:104BB000F30708F4ACC0D9010D911C9111970617A9
:104BC0001707B0F00530110508F49FC0C80104971D
:104BD0008617970708F499C002501109061B170B96
:104BE000019311936D937C93CF010E942C258DC06E
:104BF0005B01A01AB10A4C01800E911EA091B00376
:104C0000B091B10340E050E0E12CF12C109709F491
:104C10004AC0A815B905D1F56D907C901197630134
:104C200082E0C80ED11CCA14DB0480F1A3014A192A
:104C30005B096A0182E0C80ED11C1296BC901297E3
:104C40001396AC91B5E0CB16D10440F0B282A383A9
:104C500051834083D9016D937C930AC00E5F1F4F2F
:104C6000C301800F911FF90191838083EB2DFA2FEF
:104C7000E114F10431F0D7011396FC93EE931297EF
:104C800044C0F093B103E093B0033FC08D919C9179
:104C900011974817590708F4AC017D0112960D9041
:104CA000BC91A02DB3CF8091AE039091AF03881536
:104CB0009905E1F446175707C8F4809116019091C1
:104CC0001701009741F48DB79EB740911A0150919A
:104CD0001B01841B950BE817F907C8F4F093AF0389
:104CE000E093AE03F901718360830FC0CB010E9492
:104CF00097247C01009759F0A801BE010E94A026CC
:104D0000CE010E942C25C70104C0CE0102C080E064
:104D100090E0CDB7DEB7EEE00C94C92681E090E0DC
:104D2000F8940C94E026FB01DC0104C08D91019005
:104D3000801921F441505040C8F7881B990B089501
:104D4000FB01DC0102C001900D9241505040D8F7A8
:104D500008952F923F924F925F926F927F928F921F
:104D60009F92AF92BF92CF92DF92EF92FF920F93FA
:104D70001F93CF93DF93CDB7DEB7CA1BDB0B0FB604
:104D8000F894DEBF0FBECDBF09942A8839884888C1
:104D90005F846E847D848C849B84AA84B984C88457
:104DA000DF80EE80FD800C811B81AA81B981CE0F4E
:104DB000D11D0FB6F894DEBF0FBECDBFED01089533
:104DC00015E0CBEFD5E004C0FE010E9491242196AE
:0A4DD000CC3FD107C9F7F894FFCFDC
:104DDA00FFFFFFFF00E10000000000002606260694
:104DEA002606260626060000B203800000C180813E
:104DFA00000000E80300000000F1062508AA0807E1
:104E0A00071207AE08CC0800000000BE078E07593B
:104E1A000734072C0744073507000000002A10450D
:104E2A001000000000AD10F208000000004F1057FB
:104E3A001000000000AF10F00800000000AE10F4EF
:104E4A0008480073657475702829202D3E20537414
:104E5A006172740073657475702829202D3E20458F
:104E6A006E6400503A2000493A2000443A20000D6E
:024E7A000A002C
:00000001FF
