:100000000C94FC050C94B7090C9490090C946909A4
:100010000C9442090C9424060C9424060C941B099D
:100020000C9424060C9424060C94DE090C94500ABB
:100030000C9424060C9424060C9424060C94240698
:100040000C9424060C9444100C9424060C9424065E
:100050000C9424060C9424060C9424060C944B1443
:100060000C9424060C9424060C9424060C94240668
:100070000C9424060C9424060C9424060C94240658
:100080000C941E100C9424060C9424060C94240644
:100090000C94690E0C9424060C9424060C942406EB
:1000A0000C9424060C9424060C9424064D1350132F
:1000B0003F134313471371137113711354135813E0
:1000C0005C136213661371136C13084AD73B3BCE63
:1000D000016E84BCBFFDC12F3D6C74319ABD568347
:1000E0003DDA3D00C77F11BED9E4BB4C3E916BAAFF
:1000F000AABE000000803F07634236B79BD8A71A0C
:1001000039685618AEBAAB558C1D3CB7CC5763BD99
:100110006DEDFD753EF6177231BF000000803F089F
:10012000000000BE922449123EABAAAA2ABECDCC42
:10013000CC4C3E00000080BEABAAAAAA3E00000044
:1001400000BF000000803F0000000000084178D39D
:10015000BB4387D1133D190E3CC3BD4282AD2B3E3C
:1001600068EC8276BED98FE1A93E4C80EFFFBE01DC
:10017000C4FF7F3F00000000000001B202FFFF014A
:1001800090040923A135016A0206000160080000FD
:100190000000000000000060044000000001620256
:1001A000000000600400400000037B034CCD6C03A2
:1001B000AB0336567600680402CB47A2021804004F
:1001C000058BC1010C0400000000037F060CC92C44
:1001D000979797038903264666006C022000024029
:1001E0000400000000024404000000000248040073
:1001F000000000024C040000000002500400000057
:100200000002540400000000025804000000000234
:100210005C040000000002BC040000000001EC04CB
:1002200000004000037F060CC92C97979704020337
:100230000D355D040904872D353D00A30100000044
:100240000001078601FE074105F120283038077EAE
:1002500001300746019A074704F1283038076C043B
:10026000F12830380216020001FB00003E000B00AE
:1002700036000100020003000000650054FFEF009B
:1002800000FA80000B128200010002000000000052
:1002900000000000000000000000280000FFFF45F3
:1002A00081FFFFFA7200000000000003E800000078
:1002B0000100017FFFFFFE8001001B000000000025
:1002C000000000000000000000003E03304000007D
:1002D0000002CAE3093E8000002000000000000088
:1002E00000400000006000000041FF000000000B23
:1002F0002A0000165500002182FD872650FD80004F
:1003000000001F0000000580000000000000010048
:100310000000020000000300004000000000000494
:100320006F0002653200005EC04000000000000067
:10033000000000000000000000FB8C6F5DFD5D0808
:10034000D9007C733B006C12CC3200139D3200D07C
:10035000D632000800400001F4FFE6807902000078
:10036000000000D0D600002710FB00000040000075
:10037000000000000000000000000000010000007C
:100380000000000100010000000000FA36FFBC3050
:100390008E0005FBF0FFD95BC8FFD09ABE000010AD
:1003A000A9FFF41EB200CEBBF70000000100000060
:1003B00004000200020200000CFFC2800000018065
:1003C0000000CF800040000000000000010000009D
:1003D0000000000600000000140000000000000003
:1003E000000000000000000000000000000000000D
:1003F00000000000000000000000000000000000FD
:1004000000000000000000000000000000033F6842
:10041000B6793528BCC67ED16C8000000040000053
:10042000000000B26A0000000000000000000000B0
:100430000000003FF000000030000000000000005D
:1004400000000000000000000000000000000000AC
:100450000000000000000000000000254D002F708B
:100460006D000005AE000C02D00000000000650029
:1004700054FFEF00000000000000000100004400F5
:100480000000000C000000010000000000006500FA
:100490000000540000FFEF0000000000000000001A
:1004A000000000000000000000400000000000000C
:1004B00000000000000000000040000000000000FC
:1004C000000000000000000000000000010000002B
:1004D000020000000000000000000000000000001A
:1004E000000000000000000000000000000000000C
:1004F000000000000000000000001B0000000000E1
:1005000000000000000000000000000000000000EB
:1005100000000000000000000000000000000000DB
:10052000000000000040000000001B000000000070
:1005300000000000000000000000000000000000BB
:1005400000000000000000000000000000000000AB
:10055000000000000000000000000000000000009B
:10056000000000000000000000D8DCBAA2F1DEB2FA
:10057000B8B4A88191F74A907F916AF3F9DBA8F9A2
:10058000B0BAA080F2CE81F3C2F1C1F2C3F3CCA223
:10059000B280F1C6D880BAA7DFDFDFF2A7C3CBC530
:1005A000B6F087A2942448703C95406834589B78F4
:1005B000A2F183922D557DD8B1B4B8A1D09180F22B
:1005C00070F370F27C80A8F101B09887D943D88687
:1005D000C988BAA1F20EB89780F1A9DFDFDFAADFE0
:1005E000DFDFF2AAC5CDC7A90CC92C97979797F161
:1005F000A989264666B0B4BA80ACDEF2CAF1B28CE4
:1006000002A9B69800890E161EB8A9B4992C547C7C
:10061000B08AA896365676F1B9AFB4B083C0B8A800
:100620009711B18F98B9AFF0240844106418F1A362
:1006300029557DAF83B593AFF0002850F1A3869F75
:1006400061A6DADEDFD9FAA38696DB31A6D9F8DF18
:10065000BAA68FC2C5C7B28CC1B8A2DFDFDFA3DFE5
:10066000DFDFD8D8F1B8A8B286B4980D355DB8AA46
:1006700098B0872D353DB2B6BAAF8C96198F9FA72B
:100680000E161EB49AB8AA872C547CB9A3DEDFDFFD
:10069000A3B180F2C4CDC9F1B8A9B499830D355D79
:1006A00089B9A32D557DB593A30E161EA92C547C94
:1006B000B8B4B0F19783A81184A50998A383F0DAA0
:1006C000240844106418D8F1A529557DA585950204
:1006D0001A2E3A565A4048F9F3A3D9F8F0988324D1
:1006E00008441064189782A8F111F098A2240844D5
:1006F000106418DAF3DED883A59401D9A302F1A21D
:10070000C3C5C7D8F18492A24DDA2AD84869D92A3C
:10071000D86855DA32D85071D932D8705DDA3AD803
:100720005879D93AD87893A34DDA2AD84869D92A82
:10073000D86855DA32D85071D932D8705DDA3AD8E3
:100740005879D93AD878A88A9AF02850789EF388B0
:1007500018F19F1D98A8D908D8C89F129EF315A814
:10076000DA1210D8F1AFC8978734B5B994A421F341
:10077000D922D8F22DF3D92AD8F235F3D932D8813B
:10078000A4606061D961D86C6869D969D8747071E6
:10079000D971D8B1A384193D5DA3831A3E5E93102D
:1007A00030811011B8B0AF8F94F2DA3ED8B49AA865
:1007B0008729DAF8D8879A35DAF8D8879A3DDAF8AF
:1007C000D8B1B9A49885022E56A581000C14A39720
:1007D000B08AF12DD928D84DD948D86DD968D8B16B
:1007E000840DDA0ED8A32983DA2C0ED8A38449838A
:1007F000DA2C4C0ED8B8B0A88A9AF520AADADFD83D
:10080000A840AAD0DADED8A860AADAD0DFD8F1975B
:1008100086A8319B069907AB9728889BF00C20147B
:1008200040B8B0B4A88C9CF0042851791D3014381D
:10083000B282ABD0982C505078789BF11AB0F08AE5
:100840009CA82951798B2951798A2470598B205879
:10085000718A4469388B3940688A6448318B3049E1
:1008600060A588200971584468113964493019F12C
:10087000AC002C547CF08CA804285078F188972682
:10088000A85998AC8C02264666F0899CA829517913
:10089000247059446938644831A98809205970ABDB
:1008A00011384069A8193148608CA83C415C207C13
:1008B00000F187981986A86E767EA999882D557DB6
:1008C0009EB9A38A228A6E8A568A5E9FB1830626C3
:1008D00046660E2E4E6E9DB8AD002C547CF2B18C47
:1008E000B499B9A32D557D8191AC38AD3AB58391BA
:1008F000AC2DD928D84DD948D86DD968D88C9DAEA3
:1009000029D904AED851D904AED879D904D881F305
:100910009DAD008DAE1981ADD901D8F2AEDA26D8E1
:100920008E912983A7D9ADADADADF32AD8D8F1B05A
:10093000AC89913E5E76F3AC2E2EF1B18C5A9CAC14
:100940002C2828289CAC3018A8988128343C97245F
:10095000A728343C9C24F2B089AC912C4C6C8A9B27
:100960002DD9D8D851D9D8D879D9D8D8F19E88A33B
:1009700031DAD8D8912DD928D84DD948D86DD96831
:10098000D8B18393353D8025DAD8D88569DAD8D8AF
:10099000B49381A328343CF3AB8BF8A391B609B48C
:1009A000D9ABDEFAB0879CB9A3DDF1A3A3A3A395CD
:1009B000F1A3A3A39DF1A3A3A3A3F2A3B49080F2F8
:1009C000A3A3A3A3A3A3A3A3A3A3B2A3A3A3A3A3E8
:1009D000A3B087B599F1A3A3A398F1A3A3A3A39769
:1009E000A3A3A3A3F39BA3A3DCB9A7F1262626D830
:1009F000D8FF2900444D5020496E697469616C69C3
:100A00007A6174696F6E206661696C656420286321
:100A10006F64652000444D50207265616479212027
:100A200057616974696E6720666F722066697273B8
:100A30007420696E746572727570742E2E2E004566
:100A40006E61626C696E6720696E74657272757032
:100A50007420646574656374696F6E2E2E2E004574
:100A60006E61626C696E6720444D502E2E2E004DD3
:100A700050553630353020636F6E6E656374696F24
:100A80006E206661696C6564004D505536303530B6
:100A900020636F6E6E656374696F6E207375636338
:100AA00065737366756C00496E697469616C697A07
:100AB000696E6720444D502E2E2E004D50552069F2
:100AC0006E697469616C697A65642E2E2E00496EB8
:100AD000697469616C697A696E6720493243206480
:100AE0006576696365732E2E2E004649464F206F4A
:100AF000766572666C6F772100080B0002020201B6
:100B00000009040000010202000005240010010594
:100B100024010101042402060524060001070581C1
:100B20000310004009040100020A0000000705024A
:100B3000024000000705830240000004030904127C
:100B4000010002EF0201404123368000010102034F
:100B50000141726475696E6F204C4C4300417264B0
:100B600075696E6F204C656F6E6172646F00000076
:100B70000000240027002A002D00300000000000A3
:100B8000250028002B002E00310004040404040377
:100B9000040502020202040302020202060606061D
:100BA0000606040402020204040408020110408044
:100BB0004010204080408008020401804020100244
:100BC00001108010204040200000000200090F00AA
:100BD00000030401000C0000000000000000000001
:100BE00000000000000000070605040100080A0BD1
:100BF0000C0D09002622222211241FBECFEFDAE0BD
:100C0000DEBFCDBF11E0A0E0B1E0E6E3F4E502C055
:100C100005900D92A63AB107D9F723E0A6EAB1E014
:100C200001C01D92A23CB207E1F715E0CBEFD5E081
:100C300004C02197FE010E94BF27CA3FD107C9F710
:100C40000E9495140C940E2A0C9400000895409173
:100C500021025091220220911F023091200242175E
:100C60005307B4F49091E8009570E1F39091E80097
:100C700092FD19C08093F10080912102909122028F
:100C800001968F739927892B19F48EEF8093E800D2
:100C900080912102909122020196909322028093EA
:100CA000210281E0089580E00895DF92EF92FF92A3
:100CB0000F931F93CF93DF93D82E8A017B01E40E0D
:100CC000F51EEB01CE15DF0571F0D7FE03C0FE0166
:100CD000849101C088810E94270621968111F2CF5C
:100CE0008FEF9FEF01C0C801DF91CF911F910F914E
:100CF000FF90EF90DF900895615030F02091F10067
:100D0000FC0120830196F8CF289884E68093240282
:100D10000895CF92DF92EF92FF920F931F93CF939C
:100D2000DF936C017A018B01C0E0D0E0CE15DF05C6
:100D300089F0D8016D918D01D601ED91FC91019062
:100D4000F081E02DC6010995892B11F47E0102C0C6
:100D50002196ECCFC701DF91CF911F910F91FF90AA
:100D6000EF90DF90CF900895CF93DF931F92CDB790
:100D7000DEB76983DC01ED91FC910280F381E02D07
:100D800041E050E0BE016F5F7F4F09950F90DF910A
:100D9000CF91089583E08093E9008091F200882349
:100DA00019F08AE38093E8000895FC018485958515
:100DB00097FD0BC09FB7F89482E08093E900809183
:100DC000F2009FBF90E0019608959FB7F89482E0EB
:100DD0008093E9008091F2009FBF90E00895809198
:100DE000A90190E02091AA01821B9109089508951C
:100DF000E091AA018091A901E81730F4F0E0E150F8
:100E0000FE4F808190E008958FEF9FEF08959091BD
:100E1000AA018091A901981750F4E92FF0E0E15060
:100E2000FE4F208130E09F5F9093AA0102C02FEF18
:100E30003FEFC9010895089580E090E0089585EDA1
:100E40008093BC008091BC0084FDFCCF10924C02CA
:100E500008954091DA01262F30E0240F311D213210
:100E60003105DCF420914C022430C9F4FC0180E00F
:100E700090E0861758F43091DA012191DC01A854F2
:100E8000BE4FA30FB11D2C930196F3CF8091DA01D1
:100E9000680F6093DA0180E0089581E0089582E0B0
:100EA0000895CF92DF92EF92FF920F931F93CF930B
:100EB000DF937C01262F972F8A0180914D02882392
:100EC00091F0C62FD72F6E01C40ED51ECC15DD05AF
:100ED00071F06991D701ED91FC910190F081E02DC5
:100EE000C7010995F3CF642F822F0E942907C801FB
:100EF000DF91CF911F910F91FF90EF90DF90CF90F6
:100F00000895CF93DF931F92CDB7DEB76983209109
:100F10004D022223D1F020917002203240F021E0D6
:100F200030E0FC013383228380E090E015C08091A3
:100F30004E02E82FF0E0E15BFD4F998190838F5FD7
:100F400080934E028093700205C061E0CE0101964D
:100F50000E94290781E090E00F90DF91CF910895E2
:100F600081E08093AB0108950E94BC290F931F93E9
:100F7000CF93DF931F92CDB7DEB782E0898342E43F
:100F800050E069EF7AE080E80E9455060E940E1357
:100F9000DC0112960D911C9113970115110569F052
:100FA000D801ED91FC910280F381E02DBE016F5FCD
:100FB0007F4FC801099597FF07C089810F90DF9186
:100FC000CF911F910F910895F80100851185E5CF0C
:100FD0008F929F92AF92BF92CF92DF92EF92FF9249
:100FE0000F931F93CF93DF935C016B017A01809184
:100FF0001501882309F45BC080912502882309F438
:1010000056C08091A70180FF05C08091E0008260FA
:101010008093E000E70110E00AEF83E0882E9AE376
:10102000992E2097D9F10E94FD1281110AC001501A
:1010300009F43DC061E070E080E090E00E9411148E
:10104000F0CF282F30E0C217D3070CF48C2F4FB706
:10105000F8948092E9009091E80095FF1DC0282F38
:1010600030E0C21BD30BF601982F915020F08191F4
:101070008093F100FACFC20ED31E112319F0909283
:10108000E80009C08091E80085FD06C09092E80064
:1010900011E0209709F010E04FBFC3CF1111C3CF6B
:1010A0005D9884E6809323021E141F0444F081E0BF
:1010B00090E0F5019383828380E090E001C0C70156
:1010C000DF91CF911F910F91FF90EF90DF90CF9024
:1010D000BF90AF909F908F9008950E94FD1290E076
:1010E0000895CF93DF931F92CDB7DEB7FC018485BF
:1010F000958597FD05C02FEF3FEF358724870BC0FF
:10110000CE0101960E94D312019719F4898190E0D3
:1011100002C08FEF9FEF0F90DF91CF9108950F9353
:101120001F93CF93DF931F92CDB7DEB78C01FC01E5
:101130008485958597FF0EC0CE0101960E94D3123B
:10114000019719F4298130E002C02FEF3FEFF80139
:1011500035872487F801848595850F90DF91CF919D
:101160001F910F9108950C945A280C945A280C94AE
:101170005A28CF93DF93FC01268137812115310551
:1011800029F161E02130310509F060E0EC0188854A
:1011900068278A810E94221360E08C810E942213BA
:1011A000000000000000000000000000000000003F
:1011B000000000000000000000000000000000002F
:1011C00061E08C81DF91CF910C942213DF91CF915C
:1011D000089597FF03C09195819591098F3F9105DF
:1011E00019F014F08FEF90E06FEF70E0681B790B4F
:1011F000072E000C880B990B0E94A02420E030E001
:101200004CE452E40E94F6239B01AC0160E070E0E4
:1012100080E090E40E94F12520E030E048EC52E4C8
:101220000E94842520E030E040E85DE30E948425B0
:101230000E94682408951F920F920FB60F921124F6
:101240002F933F934F935F936F937F938F939F93CE
:10125000AF93BF93EF93FF93E0910801F0910901E1
:101260000995FF91EF91BF91AF919F918F917F91E0
:101270006F915F914F913F912F910F900FBE0F9003
:101280001F9018951F920F920FB60F9211242F9353
:101290003F934F935F936F937F938F939F93AF93FE
:1012A000BF93EF93FF93E0910601F0910701099539
:1012B000FF91EF91BF91AF919F918F917F916F912E
:1012C0005F914F913F912F910F900FBE0F901F9004
:1012D00018951F920F920FB60F9211242F933F93E0
:1012E0004F935F936F937F938F939F93AF93BF932E
:1012F000EF93FF93E0910401F09105010995FF91AF
:10130000EF91BF91AF919F918F917F916F915F917D
:101310004F913F912F910F900FBE0F901F901895F6
:101320001F920F920FB60F9211242F933F934F935A
:101330005F936F937F938F939F93AF93BF93EF933D
:10134000FF93E0910201F09103010995FF91EF9164
:10135000BF91AF919F918F917F916F915F914F91CD
:101360003F912F910F900FBE0F901F9018951F92D5
:101370000F920FB60F9211242F933F934F935F93C9
:101380006F937F938F939F93AF93BF93EF93FF934D
:10139000E0910001F09101010995FF91EF91BF915A
:1013A000AF919F918F917F916F915F914F913F91FD
:1013B0002F910F900FBE0F901F9018951F920F92B4
:1013C0000FB60F9211248F939F938091E10090911B
:1013D000E100937F9093E10083FF0FC01092E9003A
:1013E00091E09093EB001092EC0092E39093ED006B
:1013F0001092250298E09093F00082FF20C093E0C5
:101400009093E9009091F200992319F09AE3909358
:10141000E80090912302992339F090912302915092
:1014200090932302992389F190912402992339F012
:1014300090912402915090932402992341F184FFCA
:1014400010C08091E2008E7E81608093E2008091E6
:10145000E1008F7E8093E1008091A7018E7E806104
:1014600011C080FF16C08091E2008E7E8061809363
:10147000E2008091E1008E7E8093E1008091A701DF
:101480008E7E81608093A70104C05D9ACDCF289A9B
:10149000D6CF9F918F910F900FBE0F901F901895F0
:1014A0001F920F920FB60F921124CF92DF92EF92FC
:1014B000FF920F931F932F933F934F935F936F93DD
:1014C0007F938F939F93AF93BF93EF93FF93CF93AC
:1014D000DF93CDB7DEB76C97DEBFCDBF1092E900CA
:1014E0008091E80083FFEDC168E0CE0145960E943F
:1014F0007C0682EF8093E8008D8987FF05C090917C
:10150000E80090FFFCCF03C09EEF9093E800982F77
:10151000907609F0C6C09E892F89188D91110CC054
:10152000803829F48091A8018093F10002C01092C4
:10153000F1001092F10048C1422F50E0512B913040
:1015400051F4811141C14130510509F03DC18091F3
:10155000A8018D7F0BC0933061F4811135C14130FA
:10156000510509F031C18091A80182608093A801E2
:101570002BC1953041F48091E80080FFFCCF2068BA
:101580002093E30021C1963009F05FC0EB8CFC8C06
:101590001092E9001092220210922102123091F56D
:1015A0001092200210921F020E94B60799E0BE011D
:1015B0006F5F7F4FDB01E92F1D92EA95E9F7998371
:1015C0001A8391E09E8390EA98879AEF99872091F9
:1015D000210230912202275F3F4F3C832B838D8372
:1015E0001092E9001092220210922102F092200241
:1015F000E0921F0249E050E080E00E9455060E9400
:10160000B607E2C0F0922002E0921F020E940E1381
:10161000DC011296ED90FC901397E114F10409F4AB
:10162000C0C0D701ED91FC910480F581E02DBE0191
:101630006B5E7F4FC7010995009719F00CF0C4C08D
:10164000C7C0F701E084F184E8CF973009F4C0C047
:10165000983021F481E08093F100B6C0993009F010
:10166000B3C0837009F0B4C0EDE1F1E081E021E0A6
:1016700036E39081992361F08093E9002093EB0099
:1016800091919093EC003093ED008F5F873089F754
:101690008EE78093EA001092EA008F8980932502FA
:1016A00093C08B8D9C8D1092E900109222021092B3
:1016B00021029093200280931F02898D811156C0D0
:1016C0008E899D89913A59F4813209F081C047E0B1
:1016D00050E06EE071E080E00E94550675C09132E6
:1016E00009F076C0833289F4888D90E0982F88279E
:1016F0002F89822BA0E0B0E080930A0190930B0128
:10170000A0930C01B0930D015FC0803269F4809109
:10171000E80082FFFCCF67E08EE091E00E947C064B
:101720008BEF8093E80006C0823209F04DC08F89AC
:10173000809315018091A601882319F0EEEFFAE05D
:1017400002C0E0E0F8E080910E0190910F01A091BD
:101750001001B0911101803B9440A105B10509F041
:101760007BC08091150180FF93C076C00E940E134C
:10177000DC0112960D911C9113970115110541F191
:10178000D801ED91FC910190F081E02DBE016B5EDE
:101790007F4FC8010995811117C0F8010085118597
:1017A000ECCF113009F44EC0133091F48F898823A7
:1017B00009F445C0823081F440E860E18DE59BE0AA
:1017C0000E94E521882321F08EEF8093E80079C004
:1017D00081E28093EB0075C0813029F440E86BE032
:1017E00081E59BE0EDCF833099F70E940E13DC0179
:1017F0001296ED90FC9013978E010F5F1F4F6801BA
:10180000E114F10479F0D701ED91FC910680F781A4
:10181000E02DB801C7010995080F111DF701E084FB
:10182000F184EECFD8011C92F60101900020E9F777
:101830003197BF016C197D0940E0C601C1CF6BE350
:101840007BE002C06FE37BE06115710509F2FB01EB
:10185000449150E080E840CF0FB6F894A89580916D
:101860006000886180936000109260000FBEA895B0
:10187000EE3F2AE0F20739F08091FE0A9091FF0ACC
:1018800091838083A1CF1092FF0A1092FE0A9CCF11
:10189000EE3F8AE0F80731F0808191819093FF0A52
:1018A0008093FE0A87E797E7918380839BE088E136
:1018B0000FB6F894A895809360000FBE90936000D7
:1018C00083CF6C960FB6F894DEBF0FBECDBFDF910D
:1018D000CF91FF91EF91BF91AF919F918F917F91A8
:1018E0006F915F914F913F912F911F910F91FF90B9
:1018F000EF90DF90CF900F900FBE0F901F90189534
:10190000EF92FF920F931F93CF93DF9300D0CDB749
:10191000DEB7142F91E090934D0280936F021092E6
:101920004E021092700281EC92E029833A830E9469
:1019300081072981022FE22E3A81F32E8E2D801B02
:10194000811740F4F70161917F0181EC92E00E94E0
:101950008107F4CF0E94AE1091E0811190E0892FB1
:101960000F900F90DF91CF911F910F91FF90EF900B
:101970000895CF93DF931F92CDB7DEB749839E01C1
:101980002F5F3F4F41E00E94800C0F90DF91CF917D
:1019900008952F923F924F925F926F927F928F9213
:1019A0009F92AF92BF92CF92DF92EF92FF920F93EE
:1019B0001F93CF93DF93CDB7DEB727970FB6F89479
:1019C000DEBF0FBECDBF8F83962E742F59018FB708
:1019D000F894C090B503D090B603E090B703F090B0
:1019E000B8038FBF5F81550F5B83812C312C22247C
:1019F000239450E05D834C832801612C712C871661
:101A000008F0A4C020924D025F8150936F021092A3
:101A10004E0210927002692D81EC92E07E830E944A
:101A200081070E94AE1020924D025F8150936F0299
:101A300010924E02109270027E8180914C028111B0
:101A4000FCCF2C813D81281931092132310514F058
:101A500020E230E0213208F020E220924C02209275
:101A60004B028FEF80934A0210924902820F8093BB
:101A7000480220922702809127024B81842B809379
:101A8000270280912602813071F410922602809103
:101A900027028093BB008091BC0083FDF8CF55ECFA
:101AA0005093BC0003C085EE8093BC0080914C0233
:101AB0008130E1F380914902821710F420914902AC
:101AC000A8E2B2E0EFEFF1E08E2F4FEF51E0841B80
:101AD000821718F48D918193F7CF1092AA01209369
:101AE000A9019091A9018091AA01981749F10115C6
:101AF000110591F4A501430D511D37FC5A955A83E8
:101B0000498381EC92E07E830E940707E981FA8194
:101B1000808333947E81E5CF2FB7F8948091B5030D
:101B20009091B603A091B703B091B8032FBF8C1961
:101B30009D09AE09BF0984159505A605B705D0F224
:101B4000872F713208F080E2880E59CF01151105F8
:101B500009F12FB7F8948091B5039091B603A09145
:101B6000B703B091B8032FBF8C199D09AE09BF0907
:101B700020E030E080179107A207B30758F0272F25
:101B800030E0832D032C000C990B8217930714F47B
:101B900033243A94832D27960FB6F894DEBF0FBEF8
:101BA000CDBFDF91CF911F910F91FF90EF90DF900C
:101BB000CF90BF90AF909F908F907F906F905F90ED
:101BC0004F903F902F900895BF92CF92DF92EF9267
:101BD000FF920F931F93CF93DF931F92CDB7DEB782
:101BE000F82EE62EC42EB22ED02E08EE13E09E0163
:101BF0002F5F3F4F41E00E94C90C882321F1EC2D5B
:101C0000F0E0EB19F109319621E030E002C0220F3B
:101C1000331FBA94E2F7215031090E2E01C0220F72
:101C20000A94EAF78D2D01C0880FEA95EAF7422F52
:101C30004095998149232823422B49836E2D8F2D6E
:101C40000E94B90C01C080E00F90DF91CF911F91ED
:101C50000F91FF90EF90DF90CF90BF900895CF92BB
:101C6000DF92EF92FF920F931F93CF93DF931F9218
:101C7000CDB7DEB7F82EE62ED42EC22E08EE13E036
:101C80009E012F5F3F4F41E00E94C90C9981CC20FB
:101C900041F041E050E001C0440FDA94EAF7492BEB
:101CA00009C021E030E0A90101C0440FDA94EAF74D
:101CB0004095492349836E2D8F2D0E94B90C0F90BA
:101CC000DF91CF911F910F91FF90EF90DF90CF9018
:101CD00008951F920F920FB60F9211242F933F93E6
:101CE0004F935F936F937F938F939F93AF93BF9324
:101CF000EF93FF938091B900887F803609F49CC0F0
:101D000068F5883209F45BC090F4803109F454C05E
:101D100038F4882309F4F6C0883009F44DC0F6C0C1
:101D2000883109F44CC0803209F45DC0EFC08034C2
:101D300009F468C048F4803309F455C0883309F0C9
:101D4000E5C080934A02D8C0803509F44FC0883579
:101D500009F45DC0883409F0D9C0D6C0883909F4C7
:101D6000C7C0A8F4883709F467C038F4883609F486
:101D700063C0803709F460C0C9C0883809F4B8C0AE
:101D8000803909F45FC0803809F0C0C05BC0803B77
:101D900009F486C038F4803A09F466C0883A09F438
:101DA0007FC0B4C0803C09F4A7C0883C09F4A4C03B
:101DB000883B09F48AC0AAC08091270210C0909184
:101DC000490280914802981770F5E091490281E03C
:101DD0008E0F80934902F0E0E85DFD4F8081809393
:101DE000BB0085EC86C080934A028EC0E091490218
:101DF00081E08E0F809349028091BB00F0E0E85DA6
:101E0000FD4F808390914902809148026EC0E0911D
:101E1000490281E08E0F809349028091BB00F0E07F
:101E2000E85DFD4F808380914B0281116DC081E0A0
:101E30008093260284EA61C083E080934C02109272
:101E4000FE01CFCF8091FE01803208F051C0E091B9
:101E5000FE0181E08E0F8093FE018091BB00F0E0D7
:101E6000E252FE4F8083BDCF85EC8093BC00109280
:101E70004C028091FE01803230F4E091FE01F0E0EE
:101E8000E252FE4F10826091FE0170E0E091DC01B1
:101E9000F091DD018EED91E009951092FE0136C0C2
:101EA00084E080934C021092DB011092DA01E09101
:101EB000D801F091D90109958091DA01811105C00D
:101EC00081E08093DA011092B801E091DB0181E0BA
:101ED0008E0F8093DB01F0E0E854FE4F8081809309
:101EE000BB009091DB018091DA01981708F479CF5B
:101EF00085E88093BC000AC085EC8093BC001092FA
:101F00004C0204C010924A020E941F07FF91EF91F9
:101F1000BF91AF919F918F917F916F915F914F9101
:101F20003F912F910F900FBE0F901F901895CB01EE
:101F3000181619062CF0009731F420E030E005C0A7
:101F400021E030E002C022E030E030930303209330
:101F500002030E94E9087093990060939800209111
:101F6000940030919500809198009091990082178B
:101F7000930720F410929500109294000895CB01DD
:101F8000181619062CF0009731F420E030E005C057
:101F900021E030E002C022E030E030930C032093D7
:101FA0000B030E94E90870938900609388002091D8
:101FB000840030918500809188009091890082177B
:101FC000930720F410928500109284000895CF9317
:101FD000DF93EC018DE491E09983888382E891E0BE
:101FE0000E94A01061E088E00E94221360E070E08F
:101FF000CE010E94BF0F60E070E0CE01DF91CF9173
:102000000C94970FCF93DF93EC010E94E70FCE0162
:10201000DF91CF910C945A282DE531E0FC013183FA
:10202000208344960C94E70FCF93DF93EC010E943A
:102030000C10CE01DF91CF910C945A281F920F9271
:102040000FB60F9211242F933F934F935F936F938B
:102050007F938F939F93AF93BF93EF93FF938CEFF7
:1020600092E00E94B908FF91EF91BF91AF919F91CB
:102070008F917F916F915F914F913F912F910F9031
:102080000FBE0F901F9018951F920F920FB60F92D0
:1020900011242F933F934F935F936F937F938F936D
:1020A0009F93AF93BF93EF93FF9385E093E00E94DC
:1020B000B908FF91EF91BF91AF919F918F917F915F
:1020C0006F915F914F913F912F910F900FBE0F90A5
:1020D0001F901895089508950895CF93DF93EC010C
:1020E000092E000CAA0BBB0B80934E0390934F0359
:1020F000A0935003B0935103BE0182E293E00E948B
:10210000BF0FBE0182E293E0DF91CF910C94970F55
:10211000BC01009791F0FC0101900020E9F7319794
:10212000AF01481B590BE0917102F09172020280DD
:10213000F381E02D81E792E0099480E090E008953A
:10214000CF93DF930E948810EC0183EA91E00E9414
:1021500088108C0F9D1FDF91CF9108952091700200
:1021600090916F02213208F04AC080914C02811197
:10217000FCCF32E030934C0231E030934B023FEF22
:1021800030934A021092490220934802AFE4B2E031
:1021900048E252E0FA013E2F341B321718F43D9109
:1021A0003193F9CF1092270220912702990F922B99
:1021B0009093270290912602913061F410922602AA
:1021C000909127029093BB009091BC0093FDF8CFB3
:1021D00095EC01C095EE9093BC0090914C0292302A
:1021E000E1F390914A029F3F79F080914A02803258
:1021F00041F080914A02803331F084E005C081E0F3
:1022000003C082E001C083E010924E02109270027F
:1022100010924D0208950F931F93CF93DF93C9EE51
:10222000D2E008EE13E02AEE32E041E06AE3888172
:102230000E94C90C8981DF91CF911F910F91089560
:1022400021E042E06AE68091E9020C942F0E482FCB
:102250006EE68091E9020C94B90C2F923F924F9256
:102260005F926F927F928F929F92AF92BF92CF9226
:10227000DF92EF92FF920F931F93CF93DF933C0176
:102280005B01342ED22F202E4F716DE68091E90232
:102290000E94B90C8D2F0E94271180E190E00E94CE
:1022A000C5276C01002339F080E190E00E94C5272A
:1022B000C82F492E02C0C0E0412CE12CF12CEA14B9
:1022C000FB0408F06EC0C7014096A816B90618F4C2
:1022D0005A2C5E1802C080E1582E852D90E020E037
:1022E00031E02D1B31092817390714F45D2E519464
:1022F000F301EE0DFF1D222059F09C2FAC2FB42DC1
:102300008A2F891B851530F484918D933196F8CFEF
:10231000CE2F4F2E2C2F342D452D6FE68091E902C4
:102320000E94800C852C912CC114D10429F1432DDD
:102330004F716DE68091E9020E94B90C8D2F0E94C9
:10234000271108EE13E09601452D6FE68091E90212
:102350000E94C90CA401B6018C2F942D0E94C129A2
:10236000892B51F0C6010E945A28222021F18C2F7E
:10237000942D0E945A281FC0E80CF91CD50DEA14B0
:10238000FB0408F09CCFD11101C03394432D4F7151
:102390006DE68091E9020E94B90C8D2F0E942711F1
:1023A0008ECFC6010E945A28222039F08C2F942DFE
:1023B0000E945A2802C080E001C081E0DF91CF91E5
:1023C0001F910F91FF90EF90DF90CF90BF90AF9053
:1023D0009F908F907F906F905F904F903F902F9045
:1023E00008950F931F93662351F0462F9C0108EE2A
:1023F00013E064E78091E9020E94C90C02C0FC016D
:1024000010821F910F9108950F931F93CF93DF9325
:10241000C9EED2E008EE13E02AEE32E042E062E7D5
:1024200088810E94C90C898190E0982F88272A8191
:10243000822BDF91CF911F910F910895EF92FF9220
:102440000F931F93CF93DF931F92CDB7DEB77A011F
:1024500089019E012F5F3F4F41E00E94C90C8823F4
:1024600039F029812E7730E035952795F7012083C3
:102470000F90DF91CF911F910F91FF90EF900895F2
:102480000F931F93CF93DF938C01C0E0D0E0F8014E
:10249000EC0FFD1F6491662371F0E0917102F091E1
:1024A00072020190F081E02D81E792E00995892B7D
:1024B00011F02196ECCFCE01DF91CF911F910F91BA
:1024C0000895CF93DF930E944012EC0183EA91E0DC
:1024D0000E9488108C0F9D1FDF91CF9108958F92DD
:1024E0009F92AF92BF920F931F93CF93DF93CDB77D
:1024F000DEB7A1970FB6F894DEBF0FBECDBF19A20D
:10250000423008F44AE08E010F5D1F4F842E912C5B
:10251000A12CB12CA50194010E949D27E62FB901A1
:10252000CA0101501109EA3014F4E05D01C0E95C10
:10253000D801EC93232B242B252B61F7C8010E9493
:102540008810A1960FB6F894DEBF0FBECDBFDF9105
:10255000CF911F910F91BF90AF909F908F90089552
:10256000CF93DF93EA0191E090934D0280936F0245
:1025700010924E021092700281EC92E00E9481074C
:10258000698181EC92E00E948107688181EC92E090
:102590000E9481070E94AE1091E0811190E0892F86
:1025A000DF91CF910895FC0180912502811103C034
:1025B0008FEF9FEF08959FB7F89482E08093E90032
:1025C0002091F20030E01216130614F421E030E0FE
:1025D0002115310559F0289884E6809324028091D2
:1025E000F10080838091F200882319F09FBFC90118
:1025F00008958BE68093E800F9CF2FB7F89483E035
:102600008093E9009091E800892F807295FF04C0C3
:102610009091F20080E4891B2FBF08958091AD0353
:1026200081110DC082E08093A90384E08093AA0306
:102630001092AC031092AB0381E08093AD0389EA62
:1026400093E00895362F90E0FC01E853F44F449155
:10265000FC01E755F44F2491FC01E657F44F8491B7
:10266000882309F451C04423E1F150E0FA01319785
:10267000EF30F105B0F5EA5AFF4F0C94BF27909167
:1026800080009F7707C0909180009F7D03C090914C
:102690008000977F9093800024C094B59F7702C0FC
:1026A00094B59F7D94BD1DC0909190009F7707C009
:1026B000909190009F7D03C090919000977F9093A0
:1026C00090000FC09091C0009F7703C09091C00010
:1026D0009F7D9093C00005C09091C200977F90931A
:1026E000C200E82FF0E0EE0FFF1FE458F44FA59171
:1026F000B4918FB7F894EC91311103C020952E233B
:1027000001C02E2B2C938FBF0895CF93DF9390E0C1
:10271000FC01E755F44F2491FC01E657F44F8491F6
:10272000882361F190E0880F991FFC01E259F44F72
:10273000C591D491FC01E458F44FA591B491611175
:1027400009C09FB7F8948881209582238883EC91F3
:102750002E230BC0623061F49FB7F8943881822F2A
:10276000809583238883EC912E2B2C939FBF06C0EA
:102770008FB7F894E8812E2B28838FBFDF91CF91FC
:102780000895823108F08251E82FF0E0E951F44FCA
:10279000E49180917B00E3FB222720F930E095E073
:1027A000220F331F9A95E1F78F7D282B20937B0012
:1027B000E770E064E0937C0080917A00806480930D
:1027C0007A0080917A0086FDFCCF8091780020917C
:1027D000790090E0922B08953FB7F8948091BA0366
:1027E0009091BB03A091BC03B091BD0326B5A89BFB
:1027F00005C02F3F19F00196A11DB11D3FBFBA2F93
:10280000A92F982F8827820F911DA11DB11DBC01F2
:10281000CD0142E0660F771F881F991F4A95D1F7B7
:1028200008958F929F92AF92BF92CF92DF92EF92D4
:10283000FF926B017C010E94EC134B015C01C114FF
:10284000D104E104F104F1F00E94EC13DC01CB01AE
:1028500088199909AA09BB09883E9340A105B105C9
:1028600070F321E0C21AD108E108F10888EE880E61
:1028700083E0981EA11CB11CC114D104E104F10431
:1028800019F7DDCFFF90EF90DF90CF90BF90AF9022
:102890009F908F9008951F920F920FB60F92112460
:1028A0002F933F938F939F93AF93BF938091B503E3
:1028B0009091B603A091B703B091B8033091B903DA
:1028C00023E0230F2D3720F40196A11DB11D05C073
:1028D00026E8230F0296A11DB11D2093B903809312
:1028E000B5039093B603A093B703B093B803809158
:1028F000BA039091BB03A091BC03B091BD030196B4
:10290000A11DB11D8093BA039093BB03A093BC0398
:10291000B093BD03BF91AF919F918F913F912F9144
:102920000F900FBE0F901F901895CF93DF93CDB7E8
:10293000DEB7CE5AD1090FB6F894DEBF0FBECDBFB9
:10294000789484B5826084BD84B5816084BD85B58A
:10295000826085BD85B5816085BD80916E00816096
:1029600080936E001092810080918100826080933C
:10297000810080918100816080938100809180003E
:1029800081608093800080919100826080939100AB
:10299000809191008160809391008091900081608E
:1029A000809390008091C10084608093C1008091E9
:1029B000C10082608093C1008091C10081608093DA
:1029C000C1008091C30081608093C3008091C000EA
:1029D00082608093C0008091C20081608093C200B9
:1029E00080917A00846080937A0080917A0082607E
:1029F00080937A0080917A00816080937A00809140
:102A00007A00806880937A00109225021092A801C3
:102A10001092A7018091D70081608093D70080EA4F
:102A20008093D80089B5806189BD89B5826089BDF0
:102A300009B400FEFDCF61E070E080E090E00E940C
:102A400011148091D8008F7C80618093D800809190
:102A5000E000807F8093E0008091E1008E7E809393
:102A6000E1008DE08093E200559A209AEEEFFFE7B7
:102A7000859194918B3F9C4D19F481E08093A60140
:102A800061E088E00E94851361E089E00E9485137F
:102A900061E08AE00E94851361E08BE00E9485136B
:102AA00061E08CE00E94851360E087E00E9485135E
:102AB0008FEF9FEF90937E0280937D0281E791E0FC
:102AC0000E94A0101092AA011092A90110924E0229
:102AD0001092700210924C0281E080934B0210928F
:102AE000260261E082E00E94221361E083E00E94FE
:102AF00022138091B9008E7F8093B9008091B90034
:102B00008D7F8093B90088E48093B80085E480933A
:102B1000BC008CE08093B8008EEC9AE00E946112B9
:102B200001E023E042E06BE68091E9020E94E40DBF
:102B300000E022E044E06BE18091E9020E94E40DB4
:102B400022E044E06CE18091E9020E94E40D20E083
:102B500046E06BE68091E9020E942F0E8BEB9AE033
:102B60000E94611228EE33E04AEE52E065E7809160
:102B7000E9020E941E128091EA02843319F08FE666
:102B80009AE002C089E89AE00E94611287EA9AE01E
:102B90000E94611221E047E06BE68091E9020E9409
:102BA0002F0E6EE170E080E090E00E94111420E0B2
:102BB00046E06BE68091E9020E942F0E40E76DE649
:102BC0008091E9020E94B90C86E00E94271140E042
:102BD0006DE68091E9020E94B90C28EE33E04AEEDE
:102BE00052E060E08091E9020E941E128090EA02A9
:102BF00028EE33E04AEE52E061E08091E9020E9463
:102C00001E129090EA0228EE33E04AEE52E062E0B3
:102C10008091E9020E941E12A090EA024FE765E24D
:102C20008091E9020E94B90C20E045E06AE68091BB
:102C3000E9020E942F0E48E665E28091E9020E94B7
:102C4000B90C21E041E06AE68091E9020E942F0E72
:102C500064E170E080E090E00E94111401E020E067
:102C600040E069E877E089E692E00E942D11882330
:102C700009F4CDC288E090E00E94C527B82E192F34
:102C8000E12CF12CF701E755FE4F4491F701E65591
:102C9000FE4F2491670133E0C30ED11CF701E555C7
:102CA000FE4FE491EE23D1F1EE2EF12CE330D8F07B
:102CB000B7018B2D912FC255DF4F2883CE5AD040BC
:102CC000C355DF4F4883CD5AD0400E94F228B82E1A
:102CD000192FC355DF4F4881CD5AD040C255DF4F21
:102CE0002881CE5AD040AB2DB12F80E090E08E15D8
:102CF0009F0548F4F601E80FF91FE755FE4FE491F0
:102D0000ED930196F4CF00E0B7018B2D912F0E9437
:102D10002D11EC0CFD1C811117C010C044E0E40E15
:102D2000F11CF601E755FE4FE491E13039F442E33E
:102D300068E38091E9020E94B90C06C08B2D912FA7
:102D40000E945A2882E064C250ECE516F10408F4AF
:102D500099CF8B2D912F0E945A2803E023E042E067
:102D60006BE68091E9020E94E40D42E168E3809104
:102D7000E9020E94B90C44E069E18091E9020E94F5
:102D8000B90C01E023E045E06AE18091E9020E948C
:102D9000E40D03E023E042E06AE18091E9020E9451
:102DA000E40D22E044E06BE18091E9020E94E40D31
:102DB00043E060E78091E9020E94B90C40E061E7DE
:102DC0008091E9020E94B90C20E040E060E080912F
:102DD000E9020E942F0E082D26E046E060E0809177
:102DE000E9020E94E40D092D26E046E061E08091B1
:102DF000E9020E94E40D0A2D26E046E062E080919F
:102E0000E9020E94E40DE12CF12CF701E658FE4F97
:102E1000E491A1E8B0E0AC0FBD1FAE0DB11DEC9385
:102E200081E08E0D9FEFE91AF90AA3E0AE1568F76D
:102E3000CD57DF4F6881C358D04070E09B012E5FB3
:102E40003F4F90E02817390704F700E0CE57DF4FD7
:102E50002881C258D040CF57DF4F4881C158D04059
:102E600081E890E08C0F9D1F03960E942D1180E059
:102E7000F701E658FE4FE491A1E8B0E0AC0FBD1FAA
:102E8000A80FB11DEC938F5FBFEFEB1AFB0A8430E4
:102E900078F3CD57DF4F6881C358D04070E0AB0165
:102EA0004E5F5F4F282F30E0421753070CF700E0CA
:102EB000CE57DF4F2881C258D040CF57DF4F4881CF
:102EC000C158D04081E890E08C0F9D1F03960E946E
:102ED0002D110E9420110E940412682FCE0101962C
:102EE0000E94F11142E06FE18091E9020E94B90C69
:102EF0004CE961E28091E9020E94B90C40E560E290
:102F00008091E9020E94B90C40E062E28091E902FE
:102F10000E94B90C0E94201121E046E06AE68091EF
:102F2000E9020E942F0E21E047E06AE68091E90263
:102F30000E942F0E21E043E06AE68091E9020E94A0
:102F40002F0E80E0F701E658FE4FE491A1E8B0E0D3
:102F5000AC0FBD1FA80FB11DEC938F5F2FEFE21ACE
:102F6000F20A843078F3CD57DF4F6881C358D040E0
:102F700070E0AB014E5F5F4F282F30E042175307E0
:102F80000CF700E0CE57DF4F2881C258D040CF5712
:102F9000DF4F4881C158D04081E890E08C0F9D1FE1
:102FA00003960E942D1180E0F701E658FE4FE49150
:102FB000A1E8B0E0AC0FBD1FA80FB11DEC938F5F6F
:102FC0003FEFE31AF30A843078F3CD57DF4F68817F
:102FD000C358D04070E0AB014E5F5F4F282F30E008
:102FE000421753070CF700E0CE57DF4F2881C25835
:102FF000D040CF57DF4F4881C158D04081E890E0A2
:103000008C0F9D1F03960E942D1180E0F701E6585A
:10301000FE4FE491A1E8B0E0AC0FBD1FA80FB11DB9
:10302000EC938F5F4FEFE41AF40A843078F3CD57B6
:10303000DF4F6881C358D04070E0AB014E5F5F4FF7
:10304000282F30E0421753070CF700E0CE57DF4F30
:103050002881C258D040CF57DF4F4881C158D04057
:1030600081E890E08C0F9D1F03960E942D110E9415
:10307000041283309105D8F3682FCE0101960E9487
:10308000F11180E0F701E658FE4FE491A1E8B0E0CD
:10309000AC0FBD1FA80FB11DEC938F5F5FEFE51A5A
:1030A000F50A843078F3CD57DF4F3880C358D040CD
:1030B000832C912CA4014E5F5F4F282F30E04217E4
:1030C000530704F7CE57DF4FB880C258D040CF57D0
:1030D000DF4F2880C158D040422D4F716DE680915E
:1030E000E9020E94B90C8B2D0E942711C12CD12C12
:1030F000612C77247394E1E84E2E512C4C0E5D1E0A
:1031000083E0480E511CC814D90498F5C6014096B6
:103110008816990618F4A32CAC1802C060E1A62EFC
:103120008A2D90E093012B1931092817390714F4DF
:10313000AB2CA19492012C0D3D1D08EE13E04A2DFD
:103140006FE68091E9020E94C90CCA0CD11CBA0C2E
:10315000C814D904C0F6B11001C02394422D4F7198
:103160006DE68091E9020E94B90C8B2D0E94271117
:10317000CACF0E94041283309105D8F3682FCE0184
:1031800001960E94F111F701E658FE4F80E09491FC
:10319000A1E8B0E0AC0FBD1FA80FB11D9C938F5FDD
:1031A000843010F43196F3CFCD57DF4F6881C35888
:1031B000D04070E0AB014E5F5F4F282F30E04217E8
:1031C000530784F700E0CE57DF4F2881C258D04024
:1031D000CF57DF4F4881C158D04081E890E08C0F35
:1031E0009D1F03960E942D1120E047E06AE6809122
:1031F000E9020E942F0E8AE290E09093EC02809305
:10320000EB020E9420110E940B1180E001C081E0BE
:10321000809358038091E9022CED30E0CD56DF4FCA
:1032200039832883C359D040AE014D565F4F63E1C7
:103230000E94B0128091E9022CE430E0CF56DF4FBB
:1032400039832883C159D040AE014F565F4F65E1A5
:103250000E94B0128091E9022BEA3FEFCF57DF4F77
:1032600039832883C158D040AE014F575F4F67E183
:103270000E94B0128091E9022CEF36E03A83298354
:10328000AE014F5F5F4F6AE00E94B0121091580389
:10329000111145C08FE59AE00E94611221E047E0DC
:1032A0006AE68091E9020E942F0E8FE39AE00E9465
:1032B00061128091540390915503009709F426C63A
:1032C0008130910509F424C68230910509F422C6A3
:1032D0008330910509F421C6079769F41DC61330A0
:1032E00008F036C6113009F42CC68091690083605D
:1032F00080936900E89A0E940B118093570385E13F
:103300009AE00E94611281E0809356038091EB0263
:103310009091EC0290935A038093590310C084EF6C
:1033200099E00E9440126091580370E080E090E0C4
:103330004AE00E946F1282EF99E00E94611261E000
:10334000809107030E94851361E0809109030E9428
:10335000851310920C0310920B0361E08091FE0222
:103360000E94851361E0809100030E9485131092F2
:1033700003031092020382E891E00E94A01061E032
:1033800088E00E94221360E070E082E293E00E94F5
:10339000BF0F60E070E082E293E00E94970FF89424
:1033A000109280001092810010928500109284008B
:1033B00028EE33E0309389002093880080918100CB
:1033C0008860809381008091810084608093810077
:1033D00080916F00826080936F0010929000109235
:1033E00091001092950010929400309399002093D0
:1033F0009800809191008860809391008091910065
:10340000846080939100809171008260809371004C
:103410007894C0902403D0902503E0902603F09088
:103420002703A701960160913603709137038091BD
:103430003803909139030E94F1238823C1F0C09290
:103440003603D0923703E0923803F092390310929A
:1034500046031092470310924803109249031092BA
:103460004203109243031092440310924503C0900C
:103470002803D0902903E0902A03F0902B03A701A2
:10348000960160913A0370913B0380913C039091C7
:103490003D030E94F1238823C1F0C0923A03D092E9
:1034A0003B03E0923C03F0923D03109246031092DE
:1034B000470310924803109249031092420310925E
:1034C00043031092440310924503C0902C03D09004
:1034D0002D03E0902E03F0902F03A7019601609139
:1034E0003E0370913F0380914003909141030E94FD
:1034F000F1238823C1F0C0923E03D0923F03E092B3
:103500004003F09241031092460310924703109239
:103510004803109249031092420310924303109201
:1035200044031092450304E010E084E690E00E941A
:103530006D1062E370E080E090E00E9411148CE96D
:103540009FEF0E946D106EE170E080E090E00E94BD
:1035500011140150110949F780E090E00E946D10AC
:103560000E94EC1360934A0370934B0380934C03C7
:1035700090934D0382E00E94C1131AE0DC011A9F70
:10358000C0011B9F900D1124BC01990F880B990B52
:103590000E94A02420E030EC4FE754E40E94F62380
:1035A0002B013C016093B4017093B5018093B60187
:1035B0009093B70181E00E94C1139C01129FC0014A
:1035C000139F900D1124BC01990F880B990B0E9439
:1035D000A02420E030EC4FE754E40E94F6234B0196
:1035E0005C016093B0017093B1018093B20190933C
:1035F000B30180E00E94C113AC01149FC001159F6C
:10360000900D1124BC01990F880B990B0E94A024E6
:1036100020E030EC4FE754E40E94F6236B017C017C
:103620006093AC017093AD018093AE019093AF01B4
:10363000A3019201609136037091370380913803A2
:10364000909139030E94F1238823C1F04092360300
:1036500050923703609238037092390310924603F8
:1036600010924703109248031092490310924203AC
:1036700010924303109244031092450380E090E0BF
:103680000E946D1010924603109247031092480357
:103690001092490310924203109243031092440384
:1036A00010924503A501940160913E0370913F0380
:1036B00080914003909141030E94F123882341F0BF
:1036C00080923E0390923F03A0924003B092410348
:1036D00080E090E00E946D10109246031092470324
:1036E0001092480310924903109242031092430330
:1036F0001092440310924503A701960160913A038A
:1037000070913B0380913C0390913D030E94F12313
:10371000882341F0C0923A03D0923B03E0923C03ED
:10372000F0923D0380E090E00E946D1010924603FD
:1037300010924703109248031092490310924203DB
:1037400010924303109244031092450382E891E0E3
:103750000E94A01060E088E00E94221384E891E0BB
:103760000E94A0101AE050E0252E50E0352E8091E6
:103770005603882351F120915B0330915C038091C3
:10378000590390915A034091AB01411103C028178E
:103790003907C8F31092AB010E940B1180935703B5
:1037A0000E9404129C0190935C0380935B039091B0
:1037B000570394FD04C02115344009F0DCC30E9476
:1037C00020118AEE9AE00E9461128090A1039090ED
:1037D000A203A090A303B090A4030E94EC13CB56C5
:1037E000DF4F688379838A839B83C559D04080915A
:1037F0004A0390914B03A0914C03B0914D03CB56DB
:10380000DF4F288139814A815B81C559D040281B0F
:10381000390B4A0B5B0BCA01B9010E949E246B0154
:103820007C0160911E0370911F0380912003909191
:1038300021030E949E249B01AC01C701B6010E9496
:10384000772587FD04C120E034E244E759E4C7014D
:10385000B6010E94F6232B013C0160913203709166
:1038600033038091300390913103680F791F072E45
:10387000000C880B990B0E94A0246B017C0120E0B6
:1038800030E044E353E4C501B4010E9484252BEDEC
:103890003FE049E450E40E94F6239B01AC01C701DC
:1038A000B6010E9412236B017C01A30192010E94C8
:1038B0008425209142033091430340914403509169
:1038C00045030E9413234B015C01609342037093F4
:1038D0004303809344039093450320913603309132
:1038E00037034091380350913903C701B6010E9454
:1038F0008425C756DF4F688379838A839B83C959A0
:10390000D0402091460330914703409148035091A5
:103910004903C701B6010E94122320913A03309156
:103920003B0340913C0350913D030E948425A30139
:1039300092010E94F6232B013C0120913E0330911D
:103940003F034091400350914103C501B4010E94DF
:1039500084254B015C01C0924603D0924703E0925C
:103960004803F0924903A3019201C756DF4F6881D3
:1039700079818A819B81C959D0400E941323A50176
:1039800094010E9413234B015C01C0901A03D09054
:103990001B03E0901C03F0901D032601370177FA0A
:1039A000709477F87094A30192010E94F12387FD2F
:1039B0000BC0A7019601B401C5010E947725181616
:1039C0002CF06401750102C07301620160914E0325
:1039D00070914F0380915003909151030E94A02455
:1039E0009B01AC01C701B6010E9413236B017C014E
:1039F00020E030E04FE753EC0E94F12387FD10C038
:103A000020E030E04FE753E4C701B6010E9477257C
:103A100018164CF0C701B6010E946824CB0105C0FE
:103A200081E09FEF02C08FEF90E00E946D10CB56B7
:103A3000DF4F88819981AA81BB81C559D04080938D
:103A40004A0390934B03A0934C03B0934D0382E041
:103A50000E94C113DC011A9FC0011B9F900D11240D
:103A6000BC01990F880B990B0E94A02420E030EC38
:103A70004FE754E40E94F6234B015C0181E00E9471
:103A8000C1139C01129FC001139F900D1124BC0112
:103A9000990F880B990B0E94A02420E030EC4FE78F
:103AA00054E40E94F6236B017C0180E00E94C11364
:103AB000AC01149FC001159F900D1124BC01990FFA
:103AC000880B990B0E94A02420E030EC4FE754E4CF
:103AD0000E94F6232B013C01A50194016091B401E1
:103AE0007091B5018091B6019091B7010E941223A7
:103AF000CB56DF4F688379838A839B83C559D04037
:103B000020E030E0A9010E94772518168CF42DECF6
:103B10003CEC4CEC5DE3CB56DF4F688179818A81C8
:103B20009B81C559D0400E94772587FF12C053C0A2
:103B30002DEC3CEC4CEC5DEBCB56DF4F6881798192
:103B40008A819B81C559D0400E94F12318160CF43C
:103B500042C0A501940160913603709137038091B2
:103B60003803909139030E94F1238823C1F0809299
:103B7000360390923703A0923803B0923903109223
:103B80004603109247031092480310924903109283
:103B9000420310924303109244031092450380E0C5
:103BA00090E00E946D10109246031092470310920D
:103BB000480310924903109242031092430310925B
:103BC0004403109245038092B4019092B501A092F3
:103BD000B601B092B701A70196016091B001709152
:103BE000B1018091B2019091B3010E9412234B0167
:103BF0005C0120E030E0A9010E94772518165CF4F2
:103C00002DEC3CEC4CEC5DE3C501B4010E94772542
:103C100087FF0CC04DC02DEC3CEC4CEC5DEBC501BE
:103C2000B4010E94F12318160CF442C0A7019601BA
:103C300060913E0370913F03809140039091410356
:103C40000E94F1238823C1F0C0923E03D0923F032B
:103C5000E0924003F0924103109246031092470312
:103C600010924803109249031092420310924303AA
:103C7000109244031092450380E090E00E946D1082
:103C80001092460310924703109248031092490382
:103C90001092420310924303109244031092450382
:103CA000C092B001D092B101E092B201F092B301A2
:103CB000A30192016091AC017091AD018091AE01C0
:103CC0009091AF010E9412236B017C0120E030E053
:103CD000A9010E94772518165CF42DEC3CEC4CEC05
:103CE0005DE3C701B6010E94772587FF0CC04DC078
:103CF0002DEC3CEC4CEC5DEBC701B6010E94F123CE
:103D000018160CF442C0A301920160913A0370911D
:103D10003B0380913C0390913D030E94F123882353
:103D2000C1F040923A0350923B0360923C03709280
:103D30003D031092460310924703109248031092DD
:103D400049031092420310924303109244031092CD
:103D5000450380E090E00E946D101092460310929F
:103D600047031092480310924903109242031092A5
:103D7000430310924403109245034092AC015092C9
:103D8000AD016092AE017092AF0183E991E00E94B3
:103D90008810C090B401D090B501E090B601F090C9
:103DA000B701A7019601C701B6010E948B2688239F
:103DB00019F087E991E01AC046015701E894B7F875
:103DC0002FEF3FEF4FE75FE7C501B4010E948B265D
:103DD00081110FC02FEF3FEF4FE75FE7C501B4013F
:103DE0000E94F12318162CF48BE991E00E948810B0
:103DF00082C02FEF3FEF4FE75FE4C701B6010E949B
:103E0000772518161CF48FE991E0F0CF2FEF3FEFE4
:103E10004FE75FECC701B6010E94F12387FDF3CFA6
:103E200020E030E0A901C701B6010E94F12387FF1D
:103E30000FC0E0917102F09172020190F081E02DCB
:103E40006DE281E792E00995F7FAF094F7F8F094C3
:103E50002AE037ED43EA5BE3C701B6010E94132372
:103E60004B015C010E946F246B017C010E949E2427
:103E70009B01AC01C501B4010E9412234B015C01FE
:103E80004AE0C701B6010E946F12E0917102F09101
:103E900072020190F081E02D6EE281E792E00995D7
:103EA00020E030E040E251E4C501B4010E948425E5
:103EB0004B015C010E946F246B01E12CF12C4AE064
:103EC000C701B6010E946F12C701B6010E949E246D
:103ED0009B01AC01C501B4010E94122320E030E037
:103EE00040E251E40E9484250E946F2480E090E02B
:103EF0004AE00E946F1283EA91E00E948810211428
:103F0000310409F434CC0E94000031CC12E005C029
:103F100013E003C011E001C014E0E12FF0E0EE0F68
:103F2000FF1FE050FF4F80EB97E0918380831230BA
:103F300009F0D5C980916900806380936900EA9A8D
:103F4000DAC9809169008C6080936900E99AD3C9CD
:103F5000133039F480916900806C80936900EB9A8A
:103F6000CAC9143009F0C1C980916A008063809386
:103F70006A00EE9AC0C991FF28CC609159037091F4
:103F80005A0380915B0390915C038617970738F47E
:103F90000E94041290935C0380935B03EECF8DE547
:103FA00093E00E94F11180915B0390915C0320915A
:103FB000590330915A03821B930B90935C038093B7
:103FC0005B038DE593E0892B29F4E091E902F09100
:103FD000EA0202C0EDE5F3E06480712C762C6624E1
:103FE0008581682A8084912C982C88248185882A50
:103FF000A484B12CBA2CAA248585A82A608170E0FB
:10400000762F66278181682B072E000C880B990B71
:104010000E94A02420E030E040E858E30E9484257C
:104020006B017C016093D9027093DA028093DB020A
:104030009093DC02B301770C880B990B0E94A024AB
:1040400020E030E040E858E30E9484252B013C0149
:104050006093DD027093DE028093DF029093E002B2
:10406000B401990C880B990B0E94A02420E030E049
:1040700040E858E30E948425CB56DF4F688379835C
:104080008A839B83C559D0406093E1027093E2021A
:104090008093E3029093E402B501BB0C880B990B6B
:1040A0000E94A02420E030E040E858E30E948425EC
:1040B000C756DF4F688379838A839B83C959D04071
:1040C0006093E5027093E6028093E7029093E80222
:1040D0009B01AC01C301B2010E9484254B015C012C
:1040E000CB56DF4F288139814A815B81C559D04049
:1040F000C701B6010E9484259B01AC01C501B40132
:104100000E9412239B01AC010E941323C356DF4F70
:10411000688379838A839B83CD59D0406093CD0295
:104120007093CE028093CF029093D002A3019201AC
:10413000C701B6010E9484254B015C01C756DF4FC1
:10414000288139814A815B81C959D040CB56DF4FE4
:10415000688179818A819B81C559D0400E948425DC
:104160009B01AC01C501B4010E9413239B01AC016A
:104170000E941323CF55DF4F688379838A839B8303
:10418000C15AD0406093D1027093D2028093D3027F
:104190009093D402A7019601C701B6010E9484251D
:1041A0004B015C01A3019201C301B2010E9484256D
:1041B0009B01AC01C501B4010E9412234B015C01BB
:1041C000CB56DF4F288139814A815B81C559D04068
:1041D000CA01B9010E9484259B01AC01C501B4014B
:1041E0000E9412234B015C01C756DF4F28813981A1
:1041F0004A815B81C959D040CA01B9010E94842516
:104200009B01AC01C501B4010E9413234B015C0169
:104210006093D5027093D6028093D7029093D80210
:10422000A7019601C701B6010E941323CB55DF4FAA
:10423000688379838A839B83C55AD040A301920106
:10424000C301B2010E941323C755DF4F68837983EE
:104250008A839B83C95AD040A7019601CB55DF4F73
:10426000688179818A819B81C55AD0400E948425CA
:104270006B017C01A3019201C755DF4F68817981F1
:104280008A819B81C95AD0400E9484259B01AC0140
:10429000C701B6010E94132320E030E040E85FE34D
:1042A0000E9412236B017C01CB56DF4F288139819C
:1042B0004A815B81C559D040C755DF4F68817981FC
:1042C0008A819B81C95AD0400E9484252B013C01E0
:1042D000C756DF4F288139814A815B81C959D04057
:1042E000CB55DF4F688179818A819B81C55AD04047
:1042F0000E9484259B01AC01C301B2010E941223DC
:10430000A70196010E94922360939D0370939E03E0
:1043100080939F039093A003A5019401C501B4016C
:104320000E9484256B017C01CF55DF4F28813981A4
:104330004A815B81C15AD040CA01B9010E948425DB
:10434000A70196010E9413230E9447269B01AC01FE
:10435000C356DF4F688179818A819B81CD59D040D6
:104360000E94F6230E94C2236093A1037093A203CC
:104370008093A3039093A403C356DF4F2881398110
:104380004A815B81CD59D040CA01B9010E94842580
:10439000A70196010E9413230E9447269B01AC01AE
:1043A000CF55DF4F688179818A819B81C15AD04086
:1043B0000E94F6230E94C2236093A5037093A60374
:1043C0008093A7039093A80300CACF92DF92EF9245
:1043D000FF920F931F93CF93DF931F92CDB7DEB75A
:1043E000182F062FE42E862F880F8E5F99830E9448
:1043F000270683E00E942706F12EC12E9981D92E2F
:104400008C2D8F19801798F4F601E7FE02C0849175
:1044100001C080810E942706182F80E00E94270695
:104420008123FFEFCF1ADF0A8111EACF01C081E0BB
:104430000F90DF91CF911F910F91FF90EF90DF9040
:10444000CF9008958EE093E00C940C10E1E7F2E039
:104450001382128288EE93E0A0E0B0E0848395831B
:10446000A683B78329E231E0318320832FEF3FEF2A
:1044700035872487E1ECF2E01382128284839583EE
:10448000A683B7838BE391E091838083E2E5F3E039
:104490008DE691E09183808387E090E0938382832F
:1044A0001482158216821086178212861186109247
:1044B0009D0310929E0310929F031092A0031092EE
:1044C000A1031092A2031092A3031092A4031092CE
:1044D000A5031092A6031092A7031092A803EEE082
:1044E000F3E08DE591E0918380831382128280E076
:1044F00090E0AFE7B3E484839583A683B783108607
:1045000011861286138684879587A687B78780E1F0
:1045100097E2A0E0B0E0808B918BA28BB38B8DE40F
:1045200091E0958B848B168A178A108E118E128ECD
:10453000138E148E158E168E178E10A211A28EEF6A
:104540009FEF93A382A315A214A285E591E097A300
:1045500086A310A611A612A613A614A615A616A623
:1045600017A610AA11AA12AA13AA10AE11AE12AE63
:1045700013AE14AA15AA16AA17AA14AE15AE16AE33
:1045800017AE10924E0310924F03109250031092E8
:104590005103E5E0F3E085E691E0918380832AE032
:1045A00030E03383228329E030E03583248317828F
:1045B00016821086ECEFF2E0918380838CE090E02D
:1045C000938382838BE090E09583848317821682A5
:1045D00081E0808788E68093E902E9EDF2E080E0FF
:1045E00090E0A0E8BFE380839183A283B383148229
:1045F00015821682178210861186128613861486FB
:10460000158616861786EDECF2E010821182128272
:1046100013821482158216821782108611861286E2
:10462000138608955058BB27AA270E942A230C946A
:104630003D250E942F2538F00E94362520F039F4C0
:104640009F3F19F426F40C9405250EF4E095E7FB42
:104650000C94FF24E92F0E944E2558F3BA176207E5
:1046600073078407950720F079F4A6F50C9470255C
:104670000EF4E0950B2EBA2FA02D0B01B90190017D
:104680000C01CA01A0011124FF27591B99F0593FC1
:1046900050F4503E68F11A16F040A22F232F342F09
:1046A0004427585FF3CF469537952795A795F04057
:1046B0005395C9F77EF41F16BA0B620B730B840B6C
:1046C000BAF09150A1F0FF0FBB1F661F771F881F24
:1046D000C2F70EC0BA0F621F731F841F48F487957C
:1046E00077956795B795F7959E3F08F0B0CF93956E
:1046F000880F08F09927EE0F9795879508950E94E7
:104700002F2560F080E891E009F49EEF0E943625A5
:1047100028F040E851E071F45EEF0CC00C940525E0
:104720000C947025E92FE0780E944E2540F3092E65
:10473000052AB1F3261737074807590738F00E2E18
:1047400007F8E02569F0E025E0640AC0EF6307F8A8
:10475000009407FADB01B9019D01DC01CA01AD013A
:10476000EF930E940D240E943D250E94C2235F9179
:10477000552339F02BED3FE049E450FD49EC0C9412
:1047800013230895DF93DD27B92FBF7740E85FE358
:104790001616170648075B0718F4D92F0E947C25C8
:1047A0009F938F937F936F930E948726EAECF0E0AC
:1047B0000E9408250E943D252F913F914F915F91C6
:1047C0000E949725DD2351F09058A2EA2AED3FE0A0
:1047D00049EC5FE3D0785D270E942A23DF910C9497
:1047E0003D250E94DB2408F481E008950E940A24FC
:1047F0000C943D250E94362558F00E942F2540F04C
:1048000029F45F3F29F00C94FF2451110C94712579
:104810000C9405250E944E2568F39923B1F3552386
:1048200091F3951B550BBB27AA27621773078407C3
:1048300038F09F5F5F4F220F331F441FAA1FA9F359
:1048400035D00E2E3AF0E0E832D091505040E69547
:10485000001CCAF72BD0FE2F29D0660F771F881FA8
:10486000BB1F261737074807AB07B0E809F0BB0B9B
:10487000802DBF01FF2793585F4F3AF09E3F5105AF
:1048800078F00C94FF240C9471255F3FE4F3983E7C
:10489000D4F3869577956795B795F7959F5FC9F798
:1048A000880F911D9695879597F90895E1E0660F19
:1048B000771F881FBB1F621773078407BA0720F092
:1048C000621B730B840BBA0BEE1F88F7E0950895FB
:1048D0000E946F246894B1110C94712508950E9470
:1048E000562588F09F5798F0B92F9927B751B0F007
:1048F000E1F0660F771F881F991F1AF0BA95C9F764
:1049000014C0B13091F00E947025B1E008950C946C
:104910007025672F782F8827B85F39F0B93FCCF31F
:10492000869577956795B395D9F73EF490958095E0
:10493000709561957F4F8F4F9F4F0895E89409C000
:1049400097FB3EF490958095709561957F4F8F4FC2
:104950009F4F9923A9F0F92F96E9BB279395F695D8
:10496000879577956795B795F111F8CFFAF4BB0F56
:1049700011F460FF1BC06F5F7F4F8F4F9F4F16C0BA
:10498000882311F096E911C0772321F09EE8872F44
:10499000762F05C0662371F096E8862F70E060E000
:1049A0002AF09A95660F771F881FDAF7880F969579
:1049B000879597F90895990F0008550FAA0BE0E81D
:1049C000FEEF16161706E807F907C0F012161306D1
:1049D000E407F50798F0621B730B840B950B39F411
:1049E0000A2661F0232B242B252B21F408950A2677
:1049F00009F4A140A6958FEF811D811D089597F9B7
:104A00009F6780E870E060E008959FEF80EC089574
:104A1000DF93CF931F930F93FF92EF92DF927B016F
:104A20008C01689406C0DA2EEF010E949725FE01E2
:104A3000E894A5912591359145915591A6F3EF0103
:104A40000E942A23FE019701A801DA9469F7DF90FA
:104A5000EF90FF900F911F91CF91DF910895002467
:104A60000A941616170618060906089500240A94D3
:104A700012161306140605060895092E0394000C59
:104A800011F4882352F0BB0F40F4BF2B11F460FFE8
:104A900004C06F5F7F4F8F4F9F4F089557FD905811
:104AA000440F551F59F05F3F71F04795880F97FBF2
:104AB000991F61F09F3F79F08795089512161306AC
:104AC0001406551FF2CF4695F1DF08C016161706DB
:104AD0001806991FF1CF8695710561050894089510
:104AE000E894BB2766277727CB0197F908950E94A2
:104AF000DB2408F48FEF08959B01AC0160E070E0C7
:104B000080E89FE30C94F6230E9497250C943D25A2
:104B10000E942F2538F00E94362520F0952311F0B1
:104B20000C94FF240C94052511240C9471250E94EB
:104B30004E2570F3959FC1F3950F50E0551F629F6E
:104B4000F001729FBB27F00DB11D639FAA27F00DE6
:104B5000B11DAA1F649F6627B00DA11D661F829F0D
:104B60002227B00DA11D621F739FB00DA11D621FF2
:104B7000839FA00D611D221F749F3327A00D611D0F
:104B8000231F849F600D211D822F762F6A2F1124F1
:104B90009F5750409AF0F1F088234AF0EE0FFF1F24
:104BA000BB1F661F771F881F91505040A9F79E3F7B
:104BB000510580F00C94FF240C9471255F3FE4F3C1
:104BC000983ED4F3869577956795B795F795E795D1
:104BD0009F5FC1F7FE2B880F911D9695879597F9DA
:104BE0000895FA01EE0FFF1F309621053105A1F15E
:104BF0006115710561F48038BFE39B0749F1689442
:104C00009038810561F08038BFEF9B0741F0992310
:104C10004AF5FF3FE1053105210519F1E8940894B3
:104C2000E795D901AA2329F4AB2FBE2FF85FD0F363
:104C300010C0FF5F70F4A695E0F7F73950F019F057
:104C4000FF3A38F49F779F930DD00F9007FC905850
:104C5000089546F00C94052560E070E080E89FE33D
:104C600008954FE79F775F934F933F932F930E9451
:104C700021272F913F914F915F910E9484250C94A1
:104C8000982619F416F40C9405250C94CA260E9453
:104C90005625B8F39923C9F3B6F39F57550B87FFF1
:104CA0000E94D8260024A0E640EA9001805856953C
:104CB000979528F4805C660F771F881F20F02617D1
:104CC0003707480730F4621B730B840B2029312906
:104CD0004A2BA69517940794202531254A2758F783
:104CE000660F771F881F20F026173707480730F414
:104CF000620B730B840B200D311D411DA09581F7B4
:104D0000B901842F9158880F9695879508959B0136
:104D1000AC010C9484250E94DB24880B990B089528
:104D200029F416F00C94FF240C9470250C9405259E
:104D30000E945625A8F39638A0F707F80F92E8943A
:104D40002BE33AEA48EB5FE70E949A250F920F9215
:104D50000F924DB75EB70F920E946927E7EFF0E020
:104D60000E9408254F915F91EF91FF91E595EE1F0D
:104D7000FF1F49F0FE57E0684427EE0F441FFA95E5
:104D8000E1F74195550B0E94E3260F9007FE0C9426
:104D90007C2508959F3F31F0915020F487957795B9
:104DA0006795B795880F911D9695879597F9089502
:104DB00091505040660F771F881FD2F708950C94CA
:104DC000FF240C94CA260E945625D8F39923C9F3D0
:104DD000940F511DA3F39150504094F059F0882343
:104DE00032F0660F771F881F91505040C1F79E3FE9
:104DF00051052CF7880F911D9695879597F9089581
:104E00005F3FACF0983E9CF0BB2786957795679501
:104E1000B79508F4B1609395C1F7BB0F58F711F43B
:104E200060FFE8CF6F5F7F4F8F4F9F4FE3CF0C94B2
:104E3000712516F00C94CA260C94052568940C94E0
:104E4000FF240E945625A8F39923C1F3AEF3DF9304
:104E5000CF931F930F93FF92C92FDD2788232AF04A
:104E60002197660F771F881FDAF720E030E040E8CF
:104E70005FEB9FE3883920F0803E38F021968F77F2
:104E80000E941323EFE1F1E004C00E941323ECE43D
:104E9000F1E00E9408258B01BE01EC01FB2E6F574B
:104EA00071097595771F880B990B0E94A02428E142
:104EB00032E741E35FE30E949725AF2D9801AE01F1
:104EC000FF900F911F91CF91DF910E942A230C94A4
:104ED0003D25FA01DC01AA0FBB1F9B01AC01BF57A6
:104EE00028F4222733274427507820C0B75190F464
:104EF000AB2F0024469537952795011CA395D2F337
:104F0000002071F0220F331F441FB395DAF30ED047
:104F10000C94122361307105A0E88A07B94630F479
:104F20009B01AC016627772788279078309621F07F
:104F300020833183428353830895A1E21A2EAA1B52
:104F4000BB1BFD010DC0AA1FBB1FEE1FFF1FA21739
:104F5000B307E407F50720F0A21BB30BE40BF50B36
:104F6000661F771F881F991F1A9469F760957095BF
:104F7000809590959B01AC01BD01CF010895EE0F86
:104F8000FF1F0590F491E02D0994CF93DF938230B9
:104F9000910510F482E090E0E091C003F091C1032C
:104FA00020E030E0C0E0D0E0309711F14081518145
:104FB00048175907C0F04817590761F48281938157
:104FC000209719F09B838A832BC09093C103809311
:104FD000C00326C02115310519F04217530718F4F4
:104FE0009A01BE01DF01EF010280F381E02DDCCFE9
:104FF0002115310509F1281B390B2430310590F4B6
:1050000012968D919C9113976115710521F0FB010A
:105010009383828304C09093C1038093C003FD01F6
:10502000329644C0FD01E20FF31F81939193225009
:1050300031092D933C933AC02091BE033091BF03B8
:10504000232B41F420911801309119013093BF03B3
:105050002093BE03209116013091170121153105CF
:1050600041F42DB73EB740911A0150911B01241B0A
:10507000350BE091BE03F091BF03E217F307A0F4F4
:105080002E1B3F0B2817390778F0AC014E5F5F4F9E
:105090002417350748F04E0F5F1F5093BF0340930E
:1050A000BE038193919302C0E0E0F0E0CF01DF9175
:1050B000CF9108950F931F93CF93DF93009709F437
:1050C0008CC0FC013297138212820091C0031091B0
:1050D000C1030115110581F420813181820F931FD5
:1050E0002091BE033091BF032817390779F5F0935B
:1050F000BF03E093BE0371C0D80140E050E0AE179B
:10510000BF0750F412962D913C911397AD012115D4
:10511000310509F1D901F3CF9D01DA0133832283EF
:1051200060817181860F971F8217930769F4EC01E4
:1051300028813981260F371F2E5F3F4F318320830F
:105140008A819B8193838283452B29F4F093C10349
:10515000E093C00342C01396FC93EE931297ED01C7
:10516000499159919E01240F351FE217F30771F4FD
:1051700080819181840F951F029611969C938E9346
:105180008281938113969C938E931297E0E0F0E0D6
:10519000D80112968D919C911397009719F0F80100
:1051A0008C01F6CF8D919C9198012E5F3F4F820F1D
:1051B000931F2091BE033091BF032817390769F46C
:1051C000309729F41092C1031092C00302C01382D9
:1051D00012821093BF030093BE03DF91CF911F9102
:1051E0000F910895A0E0B0E0E8EFF8E20C94DB291D
:1051F000EC01009721F4CB010E94C527B8C0FC0147
:10520000E60FF71F9C0122503109E217F30708F45B
:10521000ACC0D9010D911C91119706171707B0F07A
:105220000530110508F49FC0C80104978617970739
:1052300008F499C002501109061B170B0193119332
:105240006D937C93CF010E945A288DC05B01A01AF8
:10525000B10A4C01800E911EA091C003B091C10310
:1052600040E050E0E12CF12C109709F44AC0A81559
:10527000B905D1F56D907C901197630182E0C80E5D
:10528000D11CCA14DB0480F1A3014A195B096A012D
:1052900082E0C80ED11C1296BC9012971396AC9166
:1052A000B5E0CB16D10440F0B282A3835183408392
:1052B000D9016D937C930AC00E5F1F4FC301800F0D
:1052C000911FF90191838083EB2DFA2FE114F104F2
:1052D00031F0D7011396FC93EE93129744C0F093EC
:1052E000C103E093C0033FC08D919C911197481773
:1052F000590708F4AC017D0112960D90BC91A02DC8
:10530000B3CF8091BE039091BF0388159905E1F456
:1053100046175707C8F4809116019091170100971E
:1053200041F48DB79EB740911A0150911B01841B27
:10533000950BE817F907C8F4F093BF03E093BE0399
:10534000F901718360830FC0CB010E94C5277C01E6
:10535000009759F0A801BE010E94CE29CE010E94FB
:105360005A28C70104C0CE0102C080E090E0CDB74A
:10537000DEB7EEE00C94F72981E090E0F8940C940D
:105380000E2AFB01DC0104C08D910190801921F4EB
:1053900041505040C8F7881B990B0895FB01DC0170
:1053A00002C001900D9241505040D8F708952F92BD
:1053B0003F924F925F926F927F928F929F92AF92A5
:1053C000BF92CF92DF92EF92FF920F931F93CF93F2
:1053D000DF93CDB7DEB7CA1BDB0B0FB6F894DEBF89
:1053E0000FBECDBF09942A88398848885F846E84AF
:1053F0007D848C849B84AA84B984C884DF80EE80F9
:10540000FD800C811B81AA81B981CE0FD11D0FB601
:10541000F894DEBF0FBECDBFED01089515E0CBEFD0
:10542000D5E004C0FE010E94BF272196CC3FD107E2
:06543000C9F7F894FFCF5C
:1054360026062606260626062606FFFFFFFF00E1AD
:105446000000000000000000C203800000C180814F
:10545600000000E80300000000B406E8076D08CA73
:1054660006D50671088F0800000000810751071C49
:1054760007F706EF060707F80600000000E70F0229
:1054860010000000006A10B308000000000C1014A1
:1054960010000000006C10B708000000006B10B58B
:1054A6000873657475702829202D3E205374617227
:1054B6007400480073657475702829202D3E2045B8
:1054C6006E6400503A20006E616E00696E66006F71
:0654D6007666000D0A00DD
:00000001FF
