:100000000C94DE000C9406010C9406010C9406017D
:100010000C9406010C9406010C9406010C94060144
:100020000C9406010C9406010C946B040C94DD04F2
:100030000C9406010C9406010C9406010C94060124
:100040000C9406010C9406010C9406010C94060114
:100050000C9406010C9406010C9406010C940D07F7
:100060000C9406010C9406010C9406010C940601F4
:100070000C9406010C9406010C9406010C940601E4
:100080000C9406010C9406010C9406010C940601D4
:100090000C9406010C9406010C9406010C940601C4
:1000A0000C9406010C9406010C940601040307034A
:1000B000F602FA02FE022803280328030B030F03AB
:1000C000130319031D032803230300000000240069
:1000D00027002A002D003000000000002500280025
:1000E0002B002E0031000404040404030405020262
:1000F00002020403020202020606060606060404C1
:100100000202020404040802011040804010204052
:1001100080408008020401804020100201108010FD
:10012000204040200000000200090F0000030401ED
:10013000000C0000000000000000000000000000B3
:10014000000000080B000202020100090400000187
:10015000020200000524001001052401010104240D
:10016000020605240600010705810310004009046A
:100170000100020A00000007050202400000070516
:1001800083024000000403090412010002EF02018F
:100190004041233680000101020301417264756908
:1001A0006E6F204C4C430041726475696E6F204C39
:1001B000656F6E6172646F005707780811241FBE67
:1001C000CFEFDAE0DEBFCDBF11E0A0E0B1E0ECE7B9
:1001D000F3E102C005900D92A433B107D9F721E0F5
:1001E000A4E3B1E001C01D92A93BB207E1F710E022
:1001F000CDEDD0E004C02197FE010E947908CC3DEE
:10020000D107C9F70E948D070C94B1090C94000026
:100210000895FC0180915201811103C08FEF9FEF7F
:1002200008959FB7F89482E08093E9002091F2004E
:1002300030E01216130614F421E030E021153105E8
:1002400059F0289884E6809351018091F1008083D1
:100250008091F200882319F09FBFC90108958BE6B1
:100260008093E800F9CF2FB7F89483E08093E900FA
:100270009091E800892F807295FF04C09091F20060
:1002800080E4891B2FBF0895CF92DF92EF92FF92F7
:100290000F931F93CF93DF936C017A018B01C0E022
:1002A000D0E0CE15DF0589F0D8016D918D01D60122
:1002B000ED91FC910190F081E02DC6010995892B0B
:1002C00011F47E0102C02196ECCFC701DF91CF91DE
:1002D0001F910F91FF90EF90DF90CF900895809144
:1002E000490181110DC082E08093450184E0809333
:1002F0004601109248011092470181E08093490124
:1003000085E491E00895CF93DF931F92CDB7DEB7D8
:100310006983DC01ED91FC910280F381E02D41E0E5
:1003200050E0BE016F5F7F4F09950F90DF91CF9135
:10033000089583E08093E9008091F200882319F00A
:100340008AE38093E80008950E94330190E00895C5
:10035000CF93DF931F92CDB7DEB7FC0184859585DF
:1003600097FD05C02FEF3FEF358724870BC0CE01E7
:1003700001960E940901019719F4898190E002C059
:100380008FEF9FEF0F90DF91CF9108950F931F9301
:10039000CF93DF931F92CDB7DEB78C01FC0184852C
:1003A000958597FF0EC0CE0101960E940901019725
:1003B00019F4298130E002C02FEF3FEFF8013587B3
:1003C0002487F801848595850F90DF91CF911F9147
:1003D0000F910895FC018485958597FD0BC09FB70B
:1003E000F89482E08093E9008091F2009FBF90E052
:1003F000019608959FB7F89482E08093E900809178
:10040000F2009FBF90E00895089580E090E0089585
:1004100040913F015091400120913D0130913E01BA
:1004200042175307B4F49091E8009570E1F390916E
:10043000E80092FD19C08093F10080913F019091F6
:10044000400101968F739927892B19F48EEF8093C1
:10045000E80080913F019091400101969093400106
:1004600080933F0181E0089580E00895CF92DF926C
:10047000EF92FF920F931F93CF93DF931F92CDB70D
:10048000DEB7182F062FE42E862F880F8E5F9983F4
:100490000E94080283E00E940802F12EC12E998179
:1004A000D92E8C2D8F19801798F4F601E7FE02C023
:1004B000849101C080810E940802182F80E00E9470
:1004C00008028123FFEFCF1ADF0A8111EACF01C0B2
:1004D00081E00F90DF91CF911F910F91FF90EF90EE
:1004E000DF90CF900895DF92EF92FF920F931F93CA
:1004F000CF93DF93D82E8A017B01E40EF51EEB012A
:10050000CE15DF0571F0D7FE03C0FE01849101C056
:1005100088810E94080221968111F2CF8FEF9FEF10
:1005200001C0C801DF91CF911F910F91FF90EF9013
:10053000DF9008950F931F93CF93DF931F92CDB752
:10054000DEB782E0898342E450E063E471E080E852
:100550000E9473020E946F01DC0112960D911C91A2
:1005600013970115110569F0D801ED91FC910280F6
:10057000F381E02DBE016F5F7F4FC801099597FFA2
:1005800007C089810F90DF91CF911F910F9108953E
:10059000F80100851185E5CF615030F02091F10020
:1005A000FC0120830196F8CF289884E680935101BE
:1005B0000895362F90E0FC01EC5DFE4F4491FC0164
:1005C000EB5FFE4F2491FC01EA51FF4F8491882399
:1005D00009F451C04423E1F150E0FA013197EF30C2
:1005E000F105B0F5EA5AFF4F0C947908909180001C
:1005F0009F7707C0909180009F7D03C090918000FD
:10060000977F9093800024C094B59F7702C094B5E3
:100610009F7D94BD1DC0909190009F7707C09091E1
:1006200090009F7D03C090919000977F90939000E1
:100630000FC09091C0009F7703C09091C0009F7D34
:100640009093C00005C09091C200977F9093C20024
:10065000E82FF0E0EE0FFF1FE852FF4FA591B49195
:100660008FB7F894EC91311103C020952E2301C06F
:100670002E2B2C938FBF0895CF93DF9390E0FC0136
:10068000EB5FFE4F2491FC01EA51FF4F84918823D8
:1006900061F190E0880F991FFC01E653FF4FC5916F
:1006A000D491FC01E852FF4FA591B491611109C0AA
:1006B0009FB7F8948881209582238883EC912E231C
:1006C0000BC0623061F49FB7F8943881822F809517
:1006D00083238883EC912E2B2C939FBF06C08FB76A
:1006E000F894E8812E2B28838FBFDF91CF91089556
:1006F0003FB7F8948091390190913A01A0913B0164
:10070000B0913C0126B5A89B05C02F3F19F001967A
:10071000A11DB11D3FBFBA2FA92F982F8827820F87
:10072000911DA11DB11DBC01CD0142E0660F771FD7
:10073000881F991F4A95D1F70895CF92DF92EF92C3
:10074000FF920E9478036B017C010E947803DC0118
:10075000CB018C199D09AE09BF09883E9340A105C4
:10076000B10598F3FF90EF90DF90CF9008958F92AE
:100770009F92AF92BF92CF92DF92EF92FF920F9330
:100780001F93CF93DF936C015B017A0180910B0182
:10079000882309F456C080915201882309F451C07E
:1007A0008091440180FF05C08091E00082608093C9
:1007B000E000E70110E00AEF83E0882E9AE3992E2B
:1007C0002097B1F10E943301811105C00150C9F198
:1007D0000E949D03F5CF282F30E0C217D3070CF4F9
:1007E0008C2F4FB7F8948092E9009091E80095FF24
:1007F0001DC0282F30E0C21BD30BF501982F91505C
:1008000020F081918093F100FACFA20EB31E112344
:1008100019F09092E80009C08091E80085FD06C0BB
:100820009092E80011E0209709F010E04FBFC8CF88
:100830001111C8CF5D9884E6809343011E141F04F4
:1008400044F081E090E0F6019383828380E090E0C1
:1008500001C0C701DF91CF911F910F91FF90EF90E1
:10086000DF90CF90BF90AF909F908F900895CF93DF
:10087000DF93FC01268137812115310529F161E0E3
:100880002130310509F060E0EC01888568278A8114
:100890000E94D90260E08C810E94D9020000000011
:1008A0000000000000000000000000000000000048
:1008B00000000000000000000000000061E08C81EA
:1008C000DF91CF910C94D902DF91CF9108950E94CE
:1008D000AC090C9414091F920F920FB60F921124B9
:1008E0008F939F938091E1009091E100937F90938B
:1008F000E10083FF0FC01092E90091E09093EB00BC
:100900001092EC0092E39093ED001092520198E067
:100910009093F00082FF20C093E09093E9009091C3
:10092000F200992319F09AE39093E8009091430123
:10093000992339F090914301915090934301992369
:1009400089F190915101992339F090915101915081
:1009500090935101992341F184FF10C08091E200EE
:100960008E7E81608093E2008091E1008F7E809393
:10097000E100809144018E7E806111C080FF16C02D
:100980008091E2008E7E80618093E2008091E100A0
:100990008E7E8093E100809144018E7E8160809301
:1009A000440104C05D9ACDCF289AD6CF9F918F91F4
:1009B0000F900FBE0F901F9018951F920F920FB6B9
:1009C0000F921124CF92DF92EF92FF920F931F9319
:1009D0002F933F934F935F936F937F938F939F9347
:1009E000AF93BF93EF93FF93CF93DF93CDB7DEB772
:1009F0006C97DEBFCDBF1092E9008091E80083FFC5
:100A0000EDC168E0CE0145960E94CC0282EF809352
:100A1000E8008D8987FF05C09091E80090FFFCCF2A
:100A200003C09EEF9093E800982F907609F0C6C01F
:100A30009E892F89188D91110CC0803829F48091DE
:100A400042018093F10002C01092F1001092F10077
:100A500048C1422F50E0512B913051F4811141C1D6
:100A60004130510509F03DC1809142018D7F0BC09D
:100A7000933061F4811135C14130510509F031C124
:100A8000809142018260809342012BC1953041F4F4
:100A90008091E80080FFFCCF20682093E30021C113
:100AA000963009F05FC0EB8CFC8C1092E90010923C
:100AB000400110923F01123091F510923E011092C8
:100AC0003D010E949A0299E0BE016F5F7F4FDB01FA
:100AD000E92F1D92EA95E9F799831A8391E09E83A5
:100AE00090EA98879AEF998720913F0130914001D1
:100AF000275F3F4F3C832B838D831092E900109238
:100B0000400110923F01F0923E01E0923D0149E028
:100B100050E080E00E9473020E949A02E2C0F092CC
:100B20003E01E0923D010E946F01DC011296ED90C2
:100B3000FC901397E114F10409F4C0C0D701ED91C2
:100B4000FC910480F581E02DBE016B5E7F4FC701F3
:100B50000995009719F00CF0C4C0C7C0F701E084F4
:100B6000F184E8CF973009F4C0C0983021F481E0D7
:100B70008093F100B6C0993009F0B3C0837009F0DA
:100B8000B4C0E3E1F1E081E021E036E39081992314
:100B900061F08093E9002093EB0091919093EC0039
:100BA0003093ED008F5F873089F78EE78093EA00FE
:100BB0001092EA008F898093520193C08B8D9C8D97
:100BC0001092E9001092400110923F0190933E0173
:100BD00080933D01898D811156C08E899D89913AFE
:100BE00059F4813209F081C047E050E064E071E0DF
:100BF00080E00E94730275C0913209F076C08332A2
:100C000089F4888D90E0982F88272F89822BA0E087
:100C1000B0E08093000190930101A0930201B09392
:100C200003015FC0803269F48091E80082FFFCCF4D
:100C300067E084E091E00E94CC028BEF8093E800B3
:100C400006C0823209F04DC08F8980930B018091DC
:100C50004101882319F0EEEFFAE002C0E0E0F8E08D
:100C60008091040190910501A0910601B0910701C6
:100C7000803B9440A105B10509F07BC080910B0138
:100C800080FF93C076C00E946F01DC0112960D9127
:100C90001C9113970115110541F1D801ED91FC91BB
:100CA0000190F081E02DBE016B5E7F4FC801099578
:100CB000811117C0F80100851185ECCF113009F4BE
:100CC0004EC0133091F48F89882309F445C08230D7
:100CD00081F440E860E187EA91E00E9436028823CF
:100CE00021F08EEF8093E80079C081E28093EB00E1
:100CF00075C0813029F440E86BE08BE991E0EDCFDD
:100D0000833099F70E946F01DC011296ED90FC9000
:100D100013978E010F5F1F4F6801E114F10479F002
:100D2000D701ED91FC910680F781E02DB801C70154
:100D30000995080F111DF701E084F184EECFD80169
:100D40001C92F60101900020E9F73197BF016C1960
:100D50007D0940E0C601C1CF65E871E002C069E8E5
:100D600071E06115710509F2FB01449150E080E8E2
:100D700040CF0FB6F894A895809160008861809369
:100D80006000109260000FBEA895EE3F2AE0F207C7
:100D900039F08091FE0A9091FF0A91838083A1CF60
:100DA0001092FF0A1092FE0A9CCFEE3F8AE0F807ED
:100DB00031F0808191819093FF0A8093FE0A87E74A
:100DC00097E7918380839BE088E10FB6F894A8951C
:100DD000809360000FBE9093600083CF6C960FB637
:100DE000F894DEBF0FBECDBFDF91CF91FF91EF91A1
:100DF000BF91AF919F918F917F916F915F914F9133
:100E00003F912F911F910F91FF90EF90DF90CF9026
:100E10000F900FBE0F901F9018951F920F920FB654
:100E20000F9211242F933F938F939F93AF93BF9370
:100E30008091350190913601A0913701B091380130
:100E40003091340123E0230F2D3720F40196A11DAA
:100E5000B11D05C026E8230F0296A11DB11D2093E8
:100E600034018093350190933601A0933701B093FC
:100E700038018091390190913A01A0913B01B091E4
:100E80003C010196A11DB11D8093390190933A0157
:100E9000A0933B01B0933C01BF91AF919F918F9183
:100EA0003F912F910F900FBE0F901F901895E3E583
:100EB000F1E01382128288EE93E0A0E0B0E0848338
:100EC0009583A683B7838DE191E0918380838FEF33
:100ED0009FEF95878487ECEAF1E08FE291E09183C0
:100EE00080832AE030E03383228329E030E03583B9
:100EF0002483178216821086E3EAF1E091838083CF
:100F00008CE090E0938382838BE090E095838483F0
:100F10001782168281E080870895789484B5826074
:100F200084BD84B5816084BD85B5826085BD85B58D
:100F3000816085BD80916E00816080936E0010920B
:100F40008100809181008260809381008091810086
:100F50008160809381008091800081608093800017
:100F600080919100826080939100809191008160D6
:100F70008093910080919000816080939000809197
:100F8000C10084608093C1008091C1008260809321
:100F9000C1008091C10081608093C1008091C30035
:100FA00081608093C3008091C00082608093C00004
:100FB0008091C20081608093C20080917A00846039
:100FC00080937A0080917A00826080937A00809189
:100FD0007A00816080937A0080917A0080688093A3
:100FE0007A001092520110924201109244018091B5
:100FF000D70081608093D70080EA8093D80089B5BC
:10100000806189BD89B5826089BD09B400FEFDCFCC
:101010000E949D038091D8008F7C80618093D800CE
:101020008091E000807F8093E0008091E1008E7EDF
:101030008093E1008DE08093E200559A209AEEEFD4
:10104000FFE7859194918B3F9C4D19F481E080934B
:10105000410161E088E00E943C0361E089E00E9478
:101060003C0361E08AE00E943C0361E08BE00E9467
:101070003C0361E08CE00E943C0360E087E00E945A
:101080003C0361E08091AE010E943C0361E08091ED
:10109000B0010E943C03C1E0D0E0D093B301C09303
:1010A000B20161E08091A5010E943C0361E0809162
:1010B000A7010E943C03D093AA01C093A90160E05C
:1010C00088E00E94D902CBEED0E000E010E08CEA8C
:1010D00091E00E94370483EA91E00E943704CE0138
:1010E0000197F1F70115110591F30E940000EFCF70
:1010F0000895EE0FFF1F0590F491E02D0994CF9312
:10110000DF938230910510F482E090E0E091B70126
:10111000F091B80120E030E0C0E0D0E0309711F16C
:101120004081518148175907C0F04817590761F4A9
:1011300082819381209719F09B838A832BC090939F
:10114000B8018093B70126C02115310519F0421767
:10115000530718F49A01BE01DF01EF010280F38109
:10116000E02DDCCF2115310509F1281B390B243086
:10117000310590F412968D919C911397611571052C
:1011800021F0FB019383828304C09093B801809384
:10119000B701FD01329644C0FD01E20FF31F8193B8
:1011A0009193225031092D933C933AC02091B5017F
:1011B0003091B601232B41F420910E0130910F01A3
:1011C0003093B6012093B50120910C0130910D01AF
:1011D0002115310541F42DB73EB7409110015091D2
:1011E0001101241B350BE091B501F091B601E21716
:1011F000F307A0F42E1B3F0B2817390778F0AC013A
:101200004E5F5F4F2417350748F04E0F5F1F509316
:10121000B6014093B5018193919302C0E0E0F0E004
:10122000CF01DF91CF9108950F931F93CF93DF9359
:10123000009709F48CC0FC0132971382128200914E
:10124000B7011091B8010115110581F42081318198
:10125000820F931F2091B5013091B60128173907ED
:1012600079F5F093B601E093B50171C0D80140E083
:1012700050E0AE17BF0750F412962D913C91139792
:10128000AD012115310509F1D901F3CF9D01DA0135
:101290003383228360817181860F971F82179307A2
:1012A00069F4EC0128813981260F371F2E5F3F4FEB
:1012B000318320838A819B8193838283452B29F408
:1012C000F093B801E093B70142C01396FC93EE93FC
:1012D0001297ED01499159919E01240F351FE21794
:1012E000F30771F480819181840F951F0296119606
:1012F0009C938E938281938113969C938E931297E5
:10130000E0E0F0E0D80112968D919C911397009740
:1013100019F0F8018C01F6CF8D919C9198012E5F08
:101320003F4F820F931F2091B5013091B6012817CE
:10133000390769F4309729F41092B8011092B70177
:1013400002C0138212821093B6010093B501DF919F
:10135000CF911F910F91089581E090E0F8940C9443
:10136000B10910E0CDEDD0E004C0FE010E94790883
:0C1370002196CE3DD107C9F7F894FFCFBD
:10137C00FFFFFFFF00E10000000000000000B901CA
:10138C00800000C18081000000000000008301B7D4
:10139C0003A4019901EA01A801C60100000000089C
:0413AC0001690400CF
:00000001FF
